{
  "contractName": "ICO",
  "abi": [
    {
      "inputs": [
        {
          "internalType": "contract IERC20Mintable",
          "name": "_token",
          "type": "address"
        },
        {
          "internalType": "contract IERC20",
          "name": "_dai",
          "type": "address"
        },
        {
          "internalType": "contract IERC20",
          "name": "_usdc",
          "type": "address"
        },
        {
          "internalType": "contract IERC20",
          "name": "_usdt",
          "type": "address"
        },
        {
          "internalType": "contract IERC20",
          "name": "_busd",
          "type": "address"
        },
        {
          "internalType": "uint256",
          "name": "_allocation",
          "type": "uint256"
        },
        {
          "internalType": "uint256",
          "name": "_min",
          "type": "uint256"
        },
        {
          "internalType": "uint256",
          "name": "_limit",
          "type": "uint256"
        },
        {
          "internalType": "uint256",
          "name": "_rate",
          "type": "uint256"
        },
        {
          "internalType": "string",
          "name": "_name",
          "type": "string"
        },
        {
          "internalType": "bool",
          "name": "_whitelisted",
          "type": "bool"
        }
      ],
      "stateMutability": "nonpayable",
      "type": "constructor"
    },
    {
      "anonymous": false,
      "inputs": [
        {
          "indexed": true,
          "internalType": "uint256",
          "name": "allocation",
          "type": "uint256"
        }
      ],
      "name": "AddedNewStage",
      "type": "event"
    },
    {
      "anonymous": false,
      "inputs": [
        {
          "indexed": true,
          "internalType": "address",
          "name": "account",
          "type": "address"
        }
      ],
      "name": "AddedToWhitelist",
      "type": "event"
    },
    {
      "anonymous": false,
      "inputs": [
        {
          "indexed": true,
          "internalType": "address",
          "name": "previousOwner",
          "type": "address"
        },
        {
          "indexed": true,
          "internalType": "address",
          "name": "newOwner",
          "type": "address"
        }
      ],
      "name": "OwnershipTransferred",
      "type": "event"
    },
    {
      "anonymous": false,
      "inputs": [
        {
          "indexed": false,
          "internalType": "address",
          "name": "account",
          "type": "address"
        }
      ],
      "name": "Paused",
      "type": "event"
    },
    {
      "anonymous": false,
      "inputs": [
        {
          "indexed": true,
          "internalType": "address",
          "name": "account",
          "type": "address"
        }
      ],
      "name": "RemovedFromWhitelist",
      "type": "event"
    },
    {
      "anonymous": false,
      "inputs": [
        {
          "indexed": false,
          "internalType": "address",
          "name": "account",
          "type": "address"
        }
      ],
      "name": "Unpaused",
      "type": "event"
    },
    {
      "inputs": [],
      "name": "TOKEN",
      "outputs": [
        {
          "internalType": "contract IERC20Mintable",
          "name": "",
          "type": "address"
        }
      ],
      "stateMutability": "view",
      "type": "function"
    },
    {
      "inputs": [
        {
          "internalType": "address",
          "name": "_address",
          "type": "address"
        }
      ],
      "name": "add",
      "outputs": [],
      "stateMutability": "nonpayable",
      "type": "function"
    },
    {
      "inputs": [
        {
          "internalType": "address[]",
          "name": "_addresses",
          "type": "address[]"
        }
      ],
      "name": "addBatch",
      "outputs": [],
      "stateMutability": "nonpayable",
      "type": "function"
    },
    {
      "inputs": [],
      "name": "currentStage",
      "outputs": [
        {
          "internalType": "uint256",
          "name": "",
          "type": "uint256"
        }
      ],
      "stateMutability": "view",
      "type": "function"
    },
    {
      "inputs": [
        {
          "internalType": "uint256",
          "name": "_stage",
          "type": "uint256"
        }
      ],
      "name": "getStage",
      "outputs": [
        {
          "internalType": "string",
          "name": "name",
          "type": "string"
        },
        {
          "internalType": "uint256",
          "name": "allocation",
          "type": "uint256"
        },
        {
          "internalType": "uint256",
          "name": "min",
          "type": "uint256"
        },
        {
          "internalType": "uint256",
          "name": "limit",
          "type": "uint256"
        },
        {
          "internalType": "uint256",
          "name": "rate",
          "type": "uint256"
        },
        {
          "internalType": "uint256",
          "name": "sold",
          "type": "uint256"
        },
        {
          "internalType": "bool",
          "name": "active",
          "type": "bool"
        },
        {
          "internalType": "bool",
          "name": "goalReached",
          "type": "bool"
        },
        {
          "internalType": "bool",
          "name": "whitelisted",
          "type": "bool"
        }
      ],
      "stateMutability": "view",
      "type": "function"
    },
    {
      "inputs": [
        {
          "internalType": "address",
          "name": "_address",
          "type": "address"
        }
      ],
      "name": "isWhitelisted",
      "outputs": [
        {
          "internalType": "bool",
          "name": "",
          "type": "bool"
        }
      ],
      "stateMutability": "view",
      "type": "function"
    },
    {
      "inputs": [],
      "name": "owner",
      "outputs": [
        {
          "internalType": "address",
          "name": "",
          "type": "address"
        }
      ],
      "stateMutability": "view",
      "type": "function"
    },
    {
      "inputs": [],
      "name": "paused",
      "outputs": [
        {
          "internalType": "bool",
          "name": "",
          "type": "bool"
        }
      ],
      "stateMutability": "view",
      "type": "function"
    },
    {
      "inputs": [
        {
          "internalType": "address",
          "name": "_address",
          "type": "address"
        }
      ],
      "name": "remove",
      "outputs": [],
      "stateMutability": "nonpayable",
      "type": "function"
    },
    {
      "inputs": [
        {
          "internalType": "address[]",
          "name": "_addresses",
          "type": "address[]"
        }
      ],
      "name": "removeBatch",
      "outputs": [],
      "stateMutability": "nonpayable",
      "type": "function"
    },
    {
      "inputs": [],
      "name": "renounceOwnership",
      "outputs": [],
      "stateMutability": "nonpayable",
      "type": "function"
    },
    {
      "inputs": [
        {
          "internalType": "address",
          "name": "newOwner",
          "type": "address"
        }
      ],
      "name": "transferOwnership",
      "outputs": [],
      "stateMutability": "nonpayable",
      "type": "function"
    },
    {
      "inputs": [],
      "name": "getRemainingTokens",
      "outputs": [
        {
          "internalType": "uint256",
          "name": "",
          "type": "uint256"
        }
      ],
      "stateMutability": "view",
      "type": "function"
    },
    {
      "inputs": [],
      "name": "getCurrentrate",
      "outputs": [
        {
          "internalType": "uint256",
          "name": "",
          "type": "uint256"
        }
      ],
      "stateMutability": "view",
      "type": "function"
    },
    {
      "inputs": [],
      "name": "getCurrentMinimum",
      "outputs": [
        {
          "internalType": "uint256",
          "name": "",
          "type": "uint256"
        }
      ],
      "stateMutability": "view",
      "type": "function"
    },
    {
      "inputs": [],
      "name": "getCurrentLimit",
      "outputs": [
        {
          "internalType": "uint256",
          "name": "",
          "type": "uint256"
        }
      ],
      "stateMutability": "view",
      "type": "function"
    },
    {
      "inputs": [],
      "name": "getLeftOverInputAmount",
      "outputs": [
        {
          "internalType": "uint256",
          "name": "",
          "type": "uint256"
        }
      ],
      "stateMutability": "view",
      "type": "function"
    },
    {
      "inputs": [
        {
          "internalType": "address",
          "name": "_user",
          "type": "address"
        }
      ],
      "name": "getLeftOverLimitAmount",
      "outputs": [
        {
          "internalType": "uint256",
          "name": "",
          "type": "uint256"
        }
      ],
      "stateMutability": "view",
      "type": "function"
    },
    {
      "inputs": [],
      "name": "getTotalStages",
      "outputs": [
        {
          "internalType": "uint256",
          "name": "",
          "type": "uint256"
        }
      ],
      "stateMutability": "view",
      "type": "function"
    },
    {
      "inputs": [],
      "name": "startICO",
      "outputs": [],
      "stateMutability": "nonpayable",
      "type": "function"
    },
    {
      "inputs": [],
      "name": "pauseICO",
      "outputs": [],
      "stateMutability": "nonpayable",
      "type": "function"
    },
    {
      "inputs": [],
      "name": "unpauseICO",
      "outputs": [],
      "stateMutability": "nonpayable",
      "type": "function"
    },
    {
      "inputs": [],
      "name": "startNextStage",
      "outputs": [],
      "stateMutability": "nonpayable",
      "type": "function"
    },
    {
      "inputs": [
        {
          "internalType": "uint256",
          "name": "_allocation",
          "type": "uint256"
        },
        {
          "internalType": "uint256",
          "name": "_min",
          "type": "uint256"
        },
        {
          "internalType": "uint256",
          "name": "_limit",
          "type": "uint256"
        },
        {
          "internalType": "uint256",
          "name": "_rate",
          "type": "uint256"
        },
        {
          "internalType": "string",
          "name": "_name",
          "type": "string"
        },
        {
          "internalType": "bool",
          "name": "_whitelisted",
          "type": "bool"
        }
      ],
      "name": "setNewStage",
      "outputs": [],
      "stateMutability": "nonpayable",
      "type": "function"
    },
    {
      "inputs": [
        {
          "internalType": "uint256",
          "name": "_inputamount",
          "type": "uint256"
        },
        {
          "internalType": "contract IERC20",
          "name": "_paytoken",
          "type": "address"
        }
      ],
      "name": "buyTokens",
      "outputs": [],
      "stateMutability": "nonpayable",
      "type": "function"
    }
  ],
  "bytecode": "0x60806040523480156200001157600080fd5b50604051620037b4380380620037b4833981016040819052620000349162000454565b6000620000406200018f565b600080546001600160a01b0319166001600160a01b0383169081178255604051929350917f8be0079c531659141344cd1fd0a4f28419497f9722a3daafe3b4186f6b6457e0908290a3506000600460006101000a81548160ff0219169083151502179055508a600860006101000a8154816001600160a01b0302191690836001600160a01b0316021790555089600660006101000a8154816001600160a01b0302191690836001600160a01b0316021790555088600460016101000a8154816001600160a01b0302191690836001600160a01b0316021790555087600560006101000a8154816001600160a01b0302191690836001600160a01b0316021790555086600760006101000a8154816001600160a01b0302191690836001600160a01b031602179055506200017e8686868686866200019360201b60201c565b50505050505050505050506200059c565b3390565b60408051610140810182526002805480835260208084018781529484018b9052606084018a90526080840189905260a08401889052600060c0850181905260e0850181905261010085018190528615156101208601526001830184559290925282517f405787fa12a823e0f2b7631cc41b3ba8828b3321ca811111fa75cd3aa3bb5ace6008909202918201908155935180519394859490936200025b937f405787fa12a823e0f2b7631cc41b3ba8828b3321ca811111fa75cd3aa3bb5acf01920190620002e0565b5060408201516002820155606082015160038201556080820151600482015560a0820151600582015560c0820151600682015560e08201516007909101805461010080850151610120909501511515620100000262ff00001995151590910261ff001994151560ff199093169290921793909316179290921617905550505050505050565b828054620002ee9062000530565b90600052602060002090601f0160209004810192826200031257600085556200035d565b82601f106200032d57805160ff19168380011785556200035d565b828001600101855582156200035d579182015b828111156200035d57825182559160200191906001019062000340565b506200036b9291506200036f565b5090565b5b808211156200036b576000815560010162000370565b805180151581146200039757600080fd5b919050565b8051620003978162000583565b600082601f830112620003ba578081fd5b81516001600160401b0380821115620003d757620003d76200056d565b6040516020601f8401601f1916820181018381118382101715620003ff57620003ff6200056d565b604052838252858401810187101562000416578485fd5b8492505b838310156200043957858301810151828401820152918201916200041a565b838311156200044a57848185840101525b5095945050505050565b60008060008060008060008060008060006101608c8e03121562000476578687fd5b8b51620004838162000583565b60208d0151909b50620004968162000583565b9950620004a660408d016200039c565b9850620004b660608d016200039c565b9750620004c660808d016200039c565b965060a08c0151955060c08c0151945060e08c015193506101008c015192506101208c015160018060401b03811115620004fe578283fd5b6200050c8e828f01620003a9565b9250506200051e6101408d0162000386565b90509295989b509295989b9093969950565b6002810460018216806200054557607f821691505b602082108114156200056757634e487b7160e01b600052602260045260246000fd5b50919050565b634e487b7160e01b600052604160045260246000fd5b6001600160a01b03811681146200059957600080fd5b50565b61320880620005ac6000396000f3fe608060405234801561001057600080fd5b50600436106101635760003560e01c806363d177e6116100ce57806382bfefc81161008757806382bfefc81461027f5780638da5cb5b14610294578063ae87ba611461029c578063af35ae27146102a4578063c625e9b1146102ac578063ce363ad3146102bf578063f2fde38b146102d257610163565b806363d177e6146102395780636b845bfe146102415780636ef817e314610254578063715018a61461025c578063722c817c146102645780637fa8c1581461027757610163565b806333c77a6d1161012057806333c77a6d146101f15780633af32abf146101f957806351dd3164146102195780635bf5d54c146102215780635c975abb146102295780635ee6509a1461023157610163565b80630a3b0a4f146101685780631c8d7fff1461017d57806324efa2641461019b57806329092d0e146101ae5780632e325020146101c15780632f455ec7146101e9575b600080fd5b61017b610176366004612843565b6102e5565b005b610185610379565b604051610192919061306c565b60405180910390f35b61017b6101a936600461285f565b6103b5565b61017b6101bc366004612843565b6104d8565b6101d46101cf36600461292e565b610560565b60405161019299989796959493929190612acc565b61018561069d565b61017b6106a3565b61020c610207366004612843565b610711565b6040516101929190612ac1565b610185610733565b61018561076f565b61020c610775565b61017b61077e565b61017b6108b8565b61017b61024f36600461285f565b610923565b610185610a42565b61017b610a7e565b610185610272366004612843565b610b07565b61017b610b6f565b610287610c78565b6040516101929190612a56565b610287610c87565b610185610c96565b610185610cc8565b61017b6102ba36600461295e565b610d49565b61017b6102cd36600461298d565b610fbe565b61017b6102e0366004612843565b611013565b6102ed6110d3565b6001600160a01b03166102fe610c87565b6001600160a01b03161461032d5760405162461bcd60e51b815260040161032490612e05565b60405180910390fd5b6001600160a01b038116600081815260036020526040808220805460ff19166001179055517fa850ae9193f515cbae8d35e8925bd2be26627fc91bce650b8652ed254e9cab039190a250565b600060026001548154811061039e57634e487b7160e01b600052603260045260246000fd5b906000526020600020906008020160050154905090565b6103bd6110d3565b6001600160a01b03166103ce610c87565b6001600160a01b0316146103f45760405162461bcd60e51b815260040161032490612e05565b60005b81518110156104d45760016003600084848151811061042657634e487b7160e01b600052603260045260246000fd5b60200260200101516001600160a01b03166001600160a01b0316815260200190815260200160002060006101000a81548160ff02191690831515021790555081818151811061048557634e487b7160e01b600052603260045260246000fd5b60200260200101516001600160a01b03167fa850ae9193f515cbae8d35e8925bd2be26627fc91bce650b8652ed254e9cab0360405160405180910390a2806104cc81613148565b9150506103f7565b5050565b6104e06110d3565b6001600160a01b03166104f1610c87565b6001600160a01b0316146105175760405162461bcd60e51b815260040161032490612e05565b6001600160a01b038116600081815260036020526040808220805460ff19169055517fcdd2e9b91a56913d370075169cefa1602ba36be5301664f752192bb1709df7579190a250565b6060600080600080600080600080600060028b8154811061059157634e487b7160e01b600052603260045260246000fd5b906000526020600020906008020190508060010180546105b09061310d565b80601f01602080910402602001604051908101604052809291908181526020018280546105dc9061310d565b80156106295780601f106105fe57610100808354040283529160200191610629565b820191906000526020600020905b81548152906001019060200180831161060c57829003601f168201915b5050505050995080600201549850806003015497508060040154965080600501549550806006015494508060070160009054906101000a900460ff1693508060070160019054906101000a900460ff1692508060070160029054906101000a900460ff169150509193959799909294969850565b60025490565b6106ab6110d3565b6001600160a01b03166106bc610c87565b6001600160a01b0316146106e25760405162461bcd60e51b815260040161032490612e05565b6106ea610775565b156107075760405162461bcd60e51b815260040161032490612daa565b61070f6110d7565b565b6001600160a01b03811660009081526003602052604090205460ff165b919050565b600060026001548154811061075857634e487b7160e01b600052603260045260246000fd5b906000526020600020906008020160030154905090565b60015481565b60045460ff1690565b6107866110d3565b6001600160a01b0316610797610c87565b6001600160a01b0316146107bd5760405162461bcd60e51b815260040161032490612e05565b600180546107ca91611149565b6107d261069d565b116107ef5760405162461bcd60e51b815260040161032490612eaf565b6107fa60015461115c565b6108176108126001805461114990919063ffffffff16565b6111ff565b600060026001548154811061083c57634e487b7160e01b600052603260045260246000fd5b90600052602060002090600802016002015490506108586112dc565b600061086382612014565b905060026001548154811061088857634e487b7160e01b600052603260045260246000fd5b90600052602060002090600802016002015481146104d45760405162461bcd60e51b815260040161032490612c83565b6108c06110d3565b6001600160a01b03166108d1610c87565b6001600160a01b0316146108f75760405162461bcd60e51b815260040161032490612e05565b6108ff610775565b61091b5760405162461bcd60e51b815260040161032490612ba8565b61070f6120f9565b61092b6110d3565b6001600160a01b031661093c610c87565b6001600160a01b0316146109625760405162461bcd60e51b815260040161032490612e05565b60005b81518110156104d45760006003600084848151811061099457634e487b7160e01b600052603260045260246000fd5b60200260200101516001600160a01b03166001600160a01b0316815260200190815260200160002060006101000a81548160ff0219169083151502179055508181815181106109f357634e487b7160e01b600052603260045260246000fd5b60200260200101516001600160a01b03167fcdd2e9b91a56913d370075169cefa1602ba36be5301664f752192bb1709df75760405160405180910390a280610a3a81613148565b915050610965565b6000600260015481548110610a6757634e487b7160e01b600052603260045260246000fd5b906000526020600020906008020160040154905090565b610a866110d3565b6001600160a01b0316610a97610c87565b6001600160a01b031614610abd5760405162461bcd60e51b815260040161032490612e05565b600080546040516001600160a01b03909116907f8be0079c531659141344cd1fd0a4f28419497f9722a3daafe3b4186f6b6457e0908390a3600080546001600160a01b0319169055565b6001600160a01b03811660009081526009602052604081205460015460028054610b699392908110610b4957634e487b7160e01b600052603260045260246000fd5b90600052602060002090600802016004015461215090919063ffffffff16565b92915050565b610b776110d3565b6001600160a01b0316610b88610c87565b6001600160a01b031614610bae5760405162461bcd60e51b815260040161032490612e05565b610bb661069d565b610bd25760405162461bcd60e51b815260040161032490612c11565b600260015481548110610bf557634e487b7160e01b600052603260045260246000fd5b600091825260209091206007600890920201015460ff16151560011415610c2e5760405162461bcd60e51b815260040161032490612dd4565b610c3860006111ff565b610c75600260015481548110610c5e57634e487b7160e01b600052603260045260246000fd5b906000526020600020906008020160020154612014565b50565b6008546001600160a01b031681565b6000546001600160a01b031690565b6000610cc3670de0b6b3a7640000610cbd610caf610379565b610cb7610cc8565b9061215c565b90612168565b905090565b6008546040516370a0823160e01b81526000916001600160a01b0316906370a0823190610cf9903090600401612a56565b60206040518083038186803b158015610d1157600080fd5b505afa158015610d25573d6000803e3d6000fd5b505050506040513d601f19601f82011682018060405250810190610cc39190612946565b610d51610775565b15610d6e5760405162461bcd60e51b815260040161032490612daa565b600260015481548110610d9157634e487b7160e01b600052603260045260246000fd5b600091825260209091206007600890920201015460ff161515600114610dc95760405162461bcd60e51b815260040161032490612d7d565b8181610dd481612174565b1515600114610df55760405162461bcd60e51b815260040161032490612fb9565b600260015481548110610e1857634e487b7160e01b600052603260045260246000fd5b9060005260206000209060080201600301548210158015610e6d5750600260015481548110610e5757634e487b7160e01b600052603260045260246000fd5b9060005260206000209060080201600401548211155b610e895760405162461bcd60e51b815260040161032490612b79565b600260015481548110610eac57634e487b7160e01b600052603260045260246000fd5b906000526020600020906008020160070160029054906101000a900460ff161515600115151415610f0157610ee033610711565b1515600114610f015760405162461bcd60e51b815260040161032490613002565b610f0c8433856121ea565b6008546040516370a0823160e01b81526001600160a01b03909116906370a0823190610f3c903090600401612a56565b60206040518083038186803b158015610f5457600080fd5b505afa158015610f68573d6000803e3d6000fd5b505050506040513d601f19601f82011682018060405250810190610f8c9190612946565b610fb857600260015481548110610fb357634e487b7160e01b600052603260045260246000fd5b506000525b50505050565b610fc66110d3565b6001600160a01b0316610fd7610c87565b6001600160a01b031614610ffd5760405162461bcd60e51b815260040161032490612e05565b61100b868686868686612654565b505050505050565b61101b6110d3565b6001600160a01b031661102c610c87565b6001600160a01b0316146110525760405162461bcd60e51b815260040161032490612e05565b6001600160a01b0381166110785760405162461bcd60e51b815260040161032490612c3d565b600080546040516001600160a01b03808516939216917f8be0079c531659141344cd1fd0a4f28419497f9722a3daafe3b4186f6b6457e091a3600080546001600160a01b0319166001600160a01b0392909216919091179055565b3390565b6110df610775565b156110fc5760405162461bcd60e51b815260040161032490612daa565b6004805460ff191660011790557f62e78cea01bee320cd4e420270b5ea74000d11b0c9f74754ebdbfc544b05a2586111326110d3565b60405161113f9190612a56565b60405180910390a1565b6000611155828461309f565b9392505050565b60026001548154811061117f57634e487b7160e01b600052603260045260246000fd5b600091825260209091206007600890920201015460ff1615156001146111b75760405162461bcd60e51b815260040161032490612d7d565b6000600282815481106111da57634e487b7160e01b600052603260045260246000fd5b60009182526020909120600890910201600701805460ff191691151591909117905550565b6002818154811061122057634e487b7160e01b600052603260045260246000fd5b600091825260209091206007600890920201015460ff161515600114156112595760405162461bcd60e51b815260040161032490612f8e565b60016002828154811061127c57634e487b7160e01b600052603260045260246000fd5b906000526020600020906008020160070160006101000a81548160ff021916908315150217905550600281815481106112c557634e487b7160e01b600052603260045260246000fd5b600091825260209091206008909102015460015550565b6008546040516370a0823160e01b81526001600160a01b039091169063095ea7b390309083906370a0823190611316908490600401612a56565b60206040518083038186803b15801561132e57600080fd5b505afa158015611342573d6000803e3d6000fd5b505050506040513d601f19601f820116820180604052508101906113669190612946565b6040518363ffffffff1660e01b8152600401611383929190612aa8565b602060405180830381600087803b15801561139d57600080fd5b505af11580156113b1573d6000803e3d6000fd5b505050506040513d601f19601f820116820180604052508101906113d59190612912565b506006546040516370a0823160e01b81526001600160a01b039091169063095ea7b390309083906370a0823190611410908490600401612a56565b60206040518083038186803b15801561142857600080fd5b505afa15801561143c573d6000803e3d6000fd5b505050506040513d601f19601f820116820180604052508101906114609190612946565b6040518363ffffffff1660e01b815260040161147d929190612aa8565b602060405180830381600087803b15801561149757600080fd5b505af11580156114ab573d6000803e3d6000fd5b505050506040513d601f19601f820116820180604052508101906114cf9190612912565b50600480546040516370a0823160e01b81526101009091046001600160a01b03169163095ea7b391309184916370a082319161150d91859101612a56565b60206040518083038186803b15801561152557600080fd5b505afa158015611539573d6000803e3d6000fd5b505050506040513d601f19601f8201168201806040525081019061155d9190612946565b6040518363ffffffff1660e01b815260040161157a929190612aa8565b602060405180830381600087803b15801561159457600080fd5b505af11580156115a8573d6000803e3d6000fd5b505050506040513d601f19601f820116820180604052508101906115cc9190612912565b506005546040516370a0823160e01b81526001600160a01b039091169063095ea7b390309083906370a0823190611607908490600401612a56565b60206040518083038186803b15801561161f57600080fd5b505afa158015611633573d6000803e3d6000fd5b505050506040513d601f19601f820116820180604052508101906116579190612946565b6040518363ffffffff1660e01b8152600401611674929190612aa8565b602060405180830381600087803b15801561168e57600080fd5b505af11580156116a2573d6000803e3d6000fd5b505050506040513d601f19601f820116820180604052508101906116c69190612912565b506007546040516370a0823160e01b81526001600160a01b039091169063095ea7b390309083906370a0823190611701908490600401612a56565b60206040518083038186803b15801561171957600080fd5b505afa15801561172d573d6000803e3d6000fd5b505050506040513d601f19601f820116820180604052508101906117519190612946565b6040518363ffffffff1660e01b815260040161176e929190612aa8565b602060405180830381600087803b15801561178857600080fd5b505af115801561179c573d6000803e3d6000fd5b505050506040513d601f19601f820116820180604052508101906117c09190612912565b506008546001600160a01b03166323b872dd306117db610c87565b6008546040516370a0823160e01b81526001600160a01b03909116906370a082319061180b903090600401612a56565b60206040518083038186803b15801561182357600080fd5b505afa158015611837573d6000803e3d6000fd5b505050506040513d601f19601f8201168201806040525081019061185b9190612946565b6040518463ffffffff1660e01b815260040161187993929190612a84565b602060405180830381600087803b15801561189357600080fd5b505af11580156118a7573d6000803e3d6000fd5b505050506040513d601f19601f820116820180604052508101906118cb9190612912565b506006546001600160a01b03166323b872dd306118e6610c87565b6006546040516370a0823160e01b81526001600160a01b03909116906370a0823190611916903090600401612a56565b60206040518083038186803b15801561192e57600080fd5b505afa158015611942573d6000803e3d6000fd5b505050506040513d601f19601f820116820180604052508101906119669190612946565b6040518463ffffffff1660e01b815260040161198493929190612a84565b602060405180830381600087803b15801561199e57600080fd5b505af11580156119b2573d6000803e3d6000fd5b505050506040513d601f19601f820116820180604052508101906119d69190612912565b5060045461010090046001600160a01b03166323b872dd306119f6610c87565b600480546040516370a0823160e01b81526101009091046001600160a01b0316916370a0823191611a2991309101612a56565b60206040518083038186803b158015611a4157600080fd5b505afa158015611a55573d6000803e3d6000fd5b505050506040513d601f19601f82011682018060405250810190611a799190612946565b6040518463ffffffff1660e01b8152600401611a9793929190612a84565b602060405180830381600087803b158015611ab157600080fd5b505af1158015611ac5573d6000803e3d6000fd5b505050506040513d601f19601f82011682018060405250810190611ae99190612912565b506005546001600160a01b03166323b872dd30611b04610c87565b6005546040516370a0823160e01b81526001600160a01b03909116906370a0823190611b34903090600401612a56565b60206040518083038186803b158015611b4c57600080fd5b505afa158015611b60573d6000803e3d6000fd5b505050506040513d601f19601f82011682018060405250810190611b849190612946565b6040518463ffffffff1660e01b8152600401611ba293929190612a84565b602060405180830381600087803b158015611bbc57600080fd5b505af1158015611bd0573d6000803e3d6000fd5b505050506040513d601f19601f82011682018060405250810190611bf49190612912565b506007546001600160a01b03166323b872dd30611c0f610c87565b6007546040516370a0823160e01b81526001600160a01b03909116906370a0823190611c3f903090600401612a56565b60206040518083038186803b158015611c5757600080fd5b505afa158015611c6b573d6000803e3d6000fd5b505050506040513d601f19601f82011682018060405250810190611c8f9190612946565b6040518463ffffffff1660e01b8152600401611cad93929190612a84565b602060405180830381600087803b158015611cc757600080fd5b505af1158015611cdb573d6000803e3d6000fd5b505050506040513d601f19601f82011682018060405250810190611cff9190612912565b506008546040516370a0823160e01b81526001600160a01b03909116906370a0823190611d30903090600401612a56565b60206040518083038186803b158015611d4857600080fd5b505afa158015611d5c573d6000803e3d6000fd5b505050506040513d601f19601f82011682018060405250810190611d809190612946565b15611d9d5760405162461bcd60e51b815260040161032490612cd0565b6006546040516370a0823160e01b81526001600160a01b03909116906370a0823190611dcd903090600401612a56565b60206040518083038186803b158015611de557600080fd5b505afa158015611df9573d6000803e3d6000fd5b505050506040513d601f19601f82011682018060405250810190611e1d9190612946565b15611e3a5760405162461bcd60e51b815260040161032490612e3a565b600480546040516370a0823160e01b81526101009091046001600160a01b0316916370a0823191611e6d91309101612a56565b60206040518083038186803b158015611e8557600080fd5b505afa158015611e99573d6000803e3d6000fd5b505050506040513d601f19601f82011682018060405250810190611ebd9190612946565b15611eda5760405162461bcd60e51b815260040161032490612e74565b6005546040516370a0823160e01b81526001600160a01b03909116906370a0823190611f0a903090600401612a56565b60206040518083038186803b158015611f2257600080fd5b505afa158015611f36573d6000803e3d6000fd5b505050506040513d601f19601f82011682018060405250810190611f5a9190612946565b15611f775760405162461bcd60e51b815260040161032490612bd6565b6007546040516370a0823160e01b81526001600160a01b03909116906370a0823190611fa7903090600401612a56565b60206040518083038186803b158015611fbf57600080fd5b505afa158015611fd3573d6000803e3d6000fd5b505050506040513d601f19601f82011682018060405250810190611ff79190612946565b1561070f5760405162461bcd60e51b815260040161032490612f0d565b6008546040516340c10f1960e01b81526000916001600160a01b0316906340c10f19906120479030908690600401612aa8565b600060405180830381600087803b15801561206157600080fd5b505af1158015612075573d6000803e3d6000fd5b50506008546040516370a0823160e01b81526001600160a01b0390911692506370a0823191506120a9903090600401612a56565b60206040518083038186803b1580156120c157600080fd5b505afa1580156120d5573d6000803e3d6000fd5b505050506040513d601f19601f82011682018060405250810190610b699190612946565b612101610775565b61211d5760405162461bcd60e51b815260040161032490612ba8565b6004805460ff191690557f5db9ee0a495bf2e6ff9c91a7834c1ba4fdd244a5e8aa4e537bd38aeae4b073aa6111326110d3565b600061115582846130f6565b600061115582846130d7565b600061115582846130b7565b6006546000906001600160a01b03838116911614806121a557506004546001600160a01b0383811661010090920416145b806121bd57506005546001600160a01b038381169116145b806121d557506007546001600160a01b038381169116145b156121e25750600161072e565b50600061072e565b60026001548154811061220d57634e487b7160e01b600052603260045260246000fd5b60009182526020808320600460089093020191909101546001600160a01b038516835260099091526040909120546122459085611149565b11156122635760405162461bcd60e51b815260040161032490612d0b565b604051636eb1769f60e11b815283906001600160a01b0383169063dd62ed3e906122939086903090600401612a6a565b60206040518083038186803b1580156122ab57600080fd5b505afa1580156122bf573d6000803e3d6000fd5b505050506040513d601f19601f820116820180604052508101906122e39190612946565b10156123015760405162461bcd60e51b815260040161032490613039565b6040516323b872dd60e01b81526001600160a01b038216906323b872dd9061233190859030908890600401612a84565b602060405180830381600087803b15801561234b57600080fd5b505af115801561235f573d6000803e3d6000fd5b505050506040513d601f19601f820116820180604052508101906123839190612912565b5060006123d9670de0b6b3a7640000610cbd866002600154815481106123b957634e487b7160e01b600052603260045260246000fd5b90600052602060002090600802016005015461215c90919063ffffffff16565b9050806123f85760405162461bcd60e51b815260040161032490612d59565b6008546040516370a0823160e01b815282916001600160a01b0316906370a0823190612428903090600401612a56565b60206040518083038186803b15801561244057600080fd5b505afa158015612454573d6000803e3d6000fd5b505050506040513d601f19601f820116820180604052508101906124789190612946565b10156124965760405162461bcd60e51b815260040161032490612f48565b60085460405163095ea7b360e01b81526001600160a01b039091169063095ea7b3906124c89030908590600401612aa8565b602060405180830381600087803b1580156124e257600080fd5b505af11580156124f6573d6000803e3d6000fd5b505050506040513d601f19601f8201168201806040525081019061251a9190612912565b506008546040516323b872dd60e01b81526001600160a01b03909116906323b872dd9061254f90309087908690600401612a84565b602060405180830381600087803b15801561256957600080fd5b505af115801561257d573d6000803e3d6000fd5b505050506040513d601f19601f820116820180604052508101906125a19190612912565b50336000908152600960205260409020546125bc9082611149565b33600090815260096020526040902055600154600280546126169284929181106125f657634e487b7160e01b600052603260045260246000fd5b90600052602060002090600802016006015461114990919063ffffffff16565b60026001548154811061263957634e487b7160e01b600052603260045260246000fd5b90600052602060002090600802016006018190555050505050565b60408051610140810182526002805480835260208084018781529484018b9052606084018a90526080840189905260a08401889052600060c0850181905260e0850181905261010085018190528615156101208601526001830184559290925282517f405787fa12a823e0f2b7631cc41b3ba8828b3321ca811111fa75cd3aa3bb5ace60089092029182019081559351805193948594909361271a937f405787fa12a823e0f2b7631cc41b3ba8828b3321ca811111fa75cd3aa3bb5acf0192019061279f565b5060408201516002820155606082015160038201556080820151600482015560a0820151600582015560c0820151600682015560e08201516007909101805461010080850151610120909501511515620100000262ff00001995151590910261ff001994151560ff199093169290921793909316179290921617905550505050505050565b8280546127ab9061310d565b90600052602060002090601f0160209004810192826127cd5760008555612813565b82601f106127e657805160ff1916838001178555612813565b82800160010185558215612813579182015b828111156128135782518255916020019190600101906127f8565b5061281f929150612823565b5090565b5b8082111561281f5760008155600101612824565b803561072e816131a4565b600060208284031215612854578081fd5b81356111558161318f565b60006020808385031215612871578182fd5b823567ffffffffffffffff80821115612888578384fd5b818501915085601f83011261289b578384fd5b8135818111156128ad576128ad613179565b83810291506128bd848301613075565b8181528481019084860184860187018a10156128d7578788fd5b8795505b8386101561290557803594506128f08561318f565b848352600195909501949186019186016128db565b5098975050505050505050565b600060208284031215612923578081fd5b8151611155816131a4565b60006020828403121561293f578081fd5b5035919050565b600060208284031215612957578081fd5b5051919050565b60008060408385031215612970578081fd5b8235915060208301356129828161318f565b809150509250929050565b60008060008060008060c087890312156129a5578182fd5b8635955060208088013595506040880135945060608801359350608088013567ffffffffffffffff808211156129d9578485fd5b818a0191508a601f8301126129ec578485fd5b8135818111156129fe576129fe613179565b612a10601f8201601f19168501613075565b91508082528b84828501011115612a25578586fd5b80848401858401378101909201939093529150612a4460a08801612838565b90509295509295509295565b15159052565b6001600160a01b0391909116815260200190565b6001600160a01b0392831681529116602082015260400190565b6001600160a01b039384168152919092166020820152604081019190915260600190565b6001600160a01b03929092168252602082015260400190565b901515815260200190565b60006101208083528b5180828501528291505b80821015612b01576020828e0101516101408386010152602082019150612adf565b80821115612b13578261014082860101525b610140601f19601f830116850101925050508960208301528860408301528760608301528660808301528560a0830152612b5060c0830186612a50565b612b5d60e0830185612a50565b612b6b610100830184612a50565b9a9950505050505050505050565b6020808252601590820152744d7573742062652077697468696e206c696d69747360581b604082015260600190565b60208082526014908201527314185d5cd8589b194e881b9bdd081c185d5cd95960621b604082015260600190565b6020808252602d908201526000805160206131b383398151915260408201526c6c205553445420746f6b656e7360981b606082015260800190565b602080825260129082015271139bc81cdd1859d95cc81d1bc81cdd185c9d60721b604082015260600190565b60208082526026908201527f4f776e61626c653a206e6577206f776e657220697320746865207a65726f206160408201526564647265737360d01b606082015260800190565b6020808252602d908201527f49434f20646964206e6f74206765742074686520636f727265637420616c6c6f60408201526c18d85d1a5bdb88185b5bdd5b9d609a1b606082015260800190565b6020808252602d908201526000805160206131b383398151915260408201526c6c204f464c5920746f6b656e7360981b606082015260800190565b6020808252602e908201527f43616e7420627579206d6f7265207468656e20746865206d6178204c696d697460408201526d206f66207468697320737461676560901b606082015260800190565b6020808252600a9082015269063616e742062757920360b41b604082015260600190565b6020808252601390820152725374616765206973206e6f742061637469766560681b604082015260600190565b60208082526010908201526f14185d5cd8589b194e881c185d5cd95960821b604082015260600190565b6020808252601790820152761250d3c81a185cc8185b1c9958591e481cdd185c9d1959604a1b604082015260600190565b6020808252818101527f4f776e61626c653a2063616c6c6572206973206e6f7420746865206f776e6572604082015260600190565b6020808252602c908201526000805160206131b383398151915260408201526b6c2044414920746f6b656e7360a01b606082015260800190565b6020808252602d908201526000805160206131b383398151915260408201526c6c205553444320746f6b656e7360981b606082015260800190565b602080825260409082018190527f5468697320697320746865206c61737420537461676520706c65617365206d61908201527f6b652061206e6577206f6e6520646f20746f20746869732066756e6374696f6e606082015260800190565b6020808252602d908201526000805160206131b383398151915260408201526c6c204255534420746f6b656e7360981b606082015260800190565b60208082526026908201527f4e6f7420656e6f7567687420746f6b656e7320696e20746869732073616c6520604082015265746f2062757960d01b606082015260800190565b602080825260119082015270105b1c9958591e481858dd1a5d985d1959607a1b604082015260600190565b60208082526029908201527f4f6e6c7920444149202d2055534443202d2055534454202d2042555344206973604082015268081858d8d95c1d195960ba1b606082015260800190565b6020808252601e908201527f546869732073746167652069732077686974656c6973746564206f6e6c790000604082015260600190565b60208082526019908201527810d85b1b195c881b5d5cdd08185c1c1c9bdd9948199a5c9cdd603a1b604082015260600190565b90815260200190565b60405181810167ffffffffffffffff8111828210171561309757613097613179565b604052919050565b600082198211156130b2576130b2613163565b500190565b6000826130d257634e487b7160e01b81526012600452602481fd5b500490565b60008160001904831182151516156130f1576130f1613163565b500290565b60008282101561310857613108613163565b500390565b60028104600182168061312157607f821691505b6020821081141561314257634e487b7160e01b600052602260045260246000fd5b50919050565b600060001982141561315c5761315c613163565b5060010190565b634e487b7160e01b600052601160045260246000fd5b634e487b7160e01b600052604160045260246000fd5b6001600160a01b0381168114610c7557600080fd5b8015158114610c7557600080fdfe49434f20636f6e747261637420646964206e6f742073656e64206f757420616ca264697066735822122098e788ead877ff902d632bc8fc69298e402daf591001154239a5a992be26cf7764736f6c63430008000033",
  "immutableReferences": {},
  "source": "//SPDX-License-Identifier: MIT\npragma solidity ^0.8.0;\n\nimport \"@openzeppelin/contracts/utils/math/SafeMath.sol\";\nimport '@openzeppelin/contracts/security/Pausable.sol';\n\nimport \"@openzeppelin/contracts/token/ERC20/IERC20.sol\";\nimport \"../interfaces/IERC20Mintable.sol\";\nimport './Whitelist.sol';\n\n\ncontract ICO is Whitelist, Pausable {\n    using SafeMath for uint256;\n    \n    IERC20 internal USDC; \n    IERC20 internal USDT; \n    IERC20 internal DAI; \n    IERC20 internal BUSD; \n    IERC20Mintable public TOKEN;\n\n    // Mapping that holds all the buyers there buy amount; \n    mapping(address => uint256) internal userbuyAmounts; \n    /**\n     * @dev Constructor that sets up the first Stage of the ICO \n     *  \n     * @param _token OFLY token address.\n     * @param _dai Dai token address. \n     * @param _usdc USDC token address.\n     * @param _usdt USDT token address.\n     * @param _allocation Amount OFLY tokens allocated to the first stage.\n     * @param _limit The max dollar amount per address in gwei . \n     * @param _rate OFLY token rate in gwei.\n     * @param _name The name of the first Sale Stage. \n     * @param _whitelisted Require the stage to be whitelisted or not. \n     */\n    constructor(\n        IERC20Mintable _token,\n        IERC20 _dai, \n        IERC20 _usdc, \n        IERC20 _usdt,\n        IERC20 _busd,\n        uint256 _allocation,\n        uint256 _min,\n        uint256 _limit,\n        uint256 _rate,\n        string memory _name, \n        bool _whitelisted\n    )  {\n        TOKEN = _token;\n        DAI = _dai;\n        USDC = _usdc;\n        USDT = _usdt;\n        BUSD = _busd; \n        // add the first stage to the ICO.\n        addStage(_allocation, _min, _limit, _rate, _name, _whitelisted);\n    }\n    \n    function getRemainingTokens() public view returns(uint256) {\n        return TOKEN.balanceOf(address(this));\n    }\n\n    function getCurrentrate() public view returns(uint256) {\n        return Stages[currentStage].rate;\n    }\n\n    function getCurrentMinimum() public view returns(uint256) {\n        return Stages[currentStage].min;\n    }\n\n    function getCurrentLimit() public view returns(uint256) {\n        return Stages[currentStage].limit;\n    }\n\n    function getLeftOverInputAmount() public view returns(uint256) {\n        return getRemainingTokens().mul(getCurrentrate()).div(10**18);\n    }\n\n    function getLeftOverLimitAmount(address _user) public view returns(uint256) {\n        return Stages[currentStage].limit.sub(userbuyAmounts[_user]);\n    }\n\n    function getTotalStages() public view returns (uint256) {\n        return Stages.length;\n    }\n\n    /**\n     * @dev Starts the ICO and kicks of the first Sale Stage.  \n     */\n    function startICO() public onlyOwner {\n        // make shure the first current stage hasnt been activated \n        require(getTotalStages() != 0, 'No stages to start');\n        require(Stages[currentStage].active != true, 'ICO has already started');\n        // activate the first stage \n        activateStage(0);\n        // mint the OFLY tokens \n        mintAllocation(Stages[currentStage].allocation);\n        // ICO is now open for the first sale stage. \n    }\n    \n    /**\n     * @dev Pauses the ICO so no one will be able to buy tokens.  \n     */\n    function pauseICO() public onlyOwner whenNotPaused {\n        _pause();\n    }\n\n     /**\n     * @dev unpauses the ICO so its open to investors again. \n     */\n    function unpauseICO() public onlyOwner whenPaused {\n        _unpause();\n    }\n\n    /**\n     * @dev Starts the NEXT Sale Stage of the ICO.  \n     */\n    function startNextStage() public onlyOwner {\n        // check if we arent in the last stage. In that cause we cant start a new one. \n        require(getTotalStages() > currentStage.add(1),'This is the last Stage please make a new one do to this function');\n        // internal function will make shure the goal has been met off the previous stage and the next stage isnt already active.\n        deactivateStage(currentStage); \n        activateStage(currentStage.add(1)); // sets the current stage to the new one\n\n        uint256 all = Stages[currentStage].allocation;\n        // send all the leftover tokens to the owner\n        sweep();\n        // mint the OFLY tokens \n        uint256 newAllocation = mintAllocation(all);\n        require(newAllocation == Stages[currentStage].allocation, 'ICO did not get the correct allocation amount');\n    }\n\n    /**\n     * @dev Lets the admin add a new stage to the ICO. \n     * \n     * @param _allocation The allocation (amount of OFLY tokens).\n     * @param _limit The max USD limit in gwei a user can buy.\n     * @param _rate Amount of OFLY tokens returned for 1 unit of DAI/USDC/USDT.\n     * @param _name The name of the sale Stage.\n     * @param _whitelisted If the stage is whitelisted or not. \n     */\n    function setNewStage(\n        uint256 _allocation, \n        uint256 _min,\n        uint256 _limit, \n        uint256 _rate, \n        string memory _name, \n        bool _whitelisted\n    ) public onlyOwner {\n\n        // init the stage \n        addStage(_allocation, _min, _limit, _rate, _name, _whitelisted);\n\n    }\n\n    /**\n     * @dev Lets investors buy ICO tokens with the accepted tokens\n     *  \n     * @param _inputamount Amount of stablecoins invested.\n     * @param _paytoken The token in wich the user wants to pay. \n     */\n    function buyTokens(\n        uint256 _inputamount, \n        IERC20 _paytoken\n    ) public \n        whenNotPaused\n        onlyActive\n        isWhitinLimitsAndAccepted(_inputamount, _paytoken)\n    {  \n        if(Stages[currentStage].whitelisted == true) {\n            require(isWhitelisted(msg.sender) == true, 'This stage is whitelisted only');\n        }\n        \n        handlePayment(_inputamount, msg.sender, _paytoken);\n        if(TOKEN.balanceOf(address(this)) == 0) {\n            Stages[currentStage].goalReached == true; \n        }\n\n    } \n\n    \n    /**\n     * @dev Internal function that handles the payment and sends tokens to the caller. \n     *  \n     * @param _amount Amount of OFLY tokens to be minted.\n     */\n\n    function handlePayment(uint256 _amount, address _caller, IERC20 _paytoken) internal {\n        // set up local amount variable and handle the amount if the paytoken is usdc or usdc\n      \n        require(userbuyAmounts[_caller].add(_amount) <= Stages[currentStage].limit, 'Cant buy more then the max Limit of this stage');\n        // we check if the user has approved the contract to spend the tokens\n        require(_paytoken.allowance(_caller, address(this)) >= _amount, 'Caller must approve first');\n        // grab the tokens from msg.sender.\n        _paytoken.transferFrom(_caller, address(this), _amount);\n       \n        // calculate the amount to send\n        uint tokensBought = Stages[currentStage].rate.mul(_amount).div(10**18);\n        require(tokensBought != 0, 'cant buy 0');\n        require(TOKEN.balanceOf(address(this)) >= tokensBought, 'Not enought tokens in this sale to buy');\n        // send the tokens to the investor;\n        TOKEN.approve(address(this), tokensBought);\n        TOKEN.transferFrom(address(this), _caller, tokensBought);\n\n        // update the buyer info \n        userbuyAmounts[msg.sender] = userbuyAmounts[msg.sender].add(tokensBought);\n        Stages[currentStage].amountSold = Stages[currentStage].amountSold.add(tokensBought);\n    }\n\n    /**\n     * @dev Internal function to mint the required OFLY tokens to the contract\n     *  \n     * @param amount Amount of OFLY tokens to be minted.\n     */\n    function mintAllocation(uint256 amount) internal returns(uint256){\n        // mint the allocation for this stage to the contract \n        TOKEN.mint(address(this), amount);\n\n        // make shure we have the tokens in the contract \n        return TOKEN.balanceOf(address(this));\n    }\n\n    /**\n     * @dev Internal function to sweep the contract clean to start a new stage.\n     *  \n     */\n    function sweep() internal {\n        // transfer remaining tokens to the owner. \n        TOKEN.approve(address(this), TOKEN.balanceOf(address(this)) );\n        DAI.approve(address(this),DAI.balanceOf(address(this)) );\n        USDC.approve(address(this),USDC.balanceOf(address(this)) );\n        USDT.approve(address(this), USDT.balanceOf(address(this)) );\n        BUSD.approve(address(this), BUSD.balanceOf(address(this)) );\n        TOKEN.transferFrom(address(this), owner(), TOKEN.balanceOf(address(this)));\n        DAI.transferFrom(address(this), owner(), DAI.balanceOf(address(this)));\n        USDC.transferFrom(address(this), owner(), USDC.balanceOf(address(this)));\n        USDT.transferFrom(address(this), owner(), USDT.balanceOf(address(this)));\n        BUSD.transferFrom(address(this), owner(), BUSD.balanceOf(address(this)));\n        require(TOKEN.balanceOf(address(this)) == 0, 'ICO contract did not send out all OFLY tokens');\n        require(DAI.balanceOf(address(this)) == 0, 'ICO contract did not send out all DAI tokens');\n        require(USDC.balanceOf(address(this)) == 0, 'ICO contract did not send out all USDC tokens');\n        require(USDT.balanceOf(address(this)) == 0, 'ICO contract did not send out all USDT tokens');\n        require(BUSD.balanceOf(address(this)) == 0, 'ICO contract did not send out all BUSD tokens');\n    }\n\n    function isAcceptedToken(IERC20 _token) internal returns(bool) {\n        if (_token == DAI || _token == USDC || _token == USDT || _token == BUSD) {\n            return true; \n        } else {\n            return false;\n        }\n    }\n    /**\n     * @dev Modifier to make shure we only accept the listed Stablecoins as payment. \n     *  \n     * @param _token the payment token. \n     */\n    modifier isWhitinLimitsAndAccepted(uint256 _amount, IERC20 _token) {\n        require(isAcceptedToken(_token) == true, 'Only DAI - USDC - USDT - BUSD is accepted');\n        require(_amount >= Stages[currentStage].min && _amount <= Stages[currentStage].limit, 'Must be within limits');\n        _;\n        \n    }\n    \n  \n    \n}",
  "sourcePath": "/Users/lexcalebout/Desktop/Dev-Projects/OFlights_ICO/packages/contracts/contracts/ico/ICO.sol",
  "compiler": {
    "name": "solc",
    "version": "0.8.0+commit.c7dfd78e.Emscripten.clang"
  },
  "schemaVersion": "3.3.4",
  "updatedAt": "2021-04-16T16:09:17.538Z",
  "devdoc": {
    "kind": "dev",
    "methods": {
      "add(address)": {
        "details": "Adds a new address to the whitelist.",
        "params": {
          "_address": "The address to be whitelisted. "
        }
      },
      "addBatch(address[])": {
        "details": "Adds a new address to the whitelist.",
        "params": {
          "_addresses": "Array of addresses to be whitelisted. "
        }
      },
      "buyTokens(uint256,address)": {
        "details": "Lets investors buy ICO tokens with the accepted tokens  ",
        "params": {
          "_inputamount": "Amount of stablecoins invested.",
          "_paytoken": "The token in wich the user wants to pay. "
        }
      },
      "constructor": {
        "details": "Constructor that sets up the first Stage of the ICO   ",
        "params": {
          "_allocation": "Amount OFLY tokens allocated to the first stage.",
          "_dai": "Dai token address. ",
          "_limit": "The max dollar amount per address in gwei . ",
          "_name": "The name of the first Sale Stage. ",
          "_rate": "OFLY token rate in gwei.",
          "_token": "OFLY token address.",
          "_usdc": "USDC token address.",
          "_usdt": "USDT token address.",
          "_whitelisted": "Require the stage to be whitelisted or not. "
        }
      },
      "getStage(uint256)": {
        "params": {
          "_stage": "The ID of the stage.",
          "active": "Indicates if the stage is active.",
          "allocation": "The allocation (amount of OFLY tokens).",
          "goalReached": "If all of the tokens are sold. ",
          "limit": "The max USD limit in gwei a user can buy.",
          "name": "The name of the sale Stage.",
          "rate": "Amount of OFLY tokens returned for 1 unit of DAI/USDC/USDT.",
          "whitelisted": "If the stage is whitelisted or not. "
        }
      },
      "isWhitelisted(address)": {
        "details": "Getter to check if address is whitelisted.",
        "params": {
          "_address": "The address to check. "
        }
      },
      "owner()": {
        "details": "Returns the address of the current owner."
      },
      "pauseICO()": {
        "details": "Pauses the ICO so no one will be able to buy tokens.  "
      },
      "paused()": {
        "details": "Returns true if the contract is paused, and false otherwise."
      },
      "remove(address)": {
        "details": "Removes a address from the whitelist.",
        "params": {
          "_address": "The address to remove. "
        }
      },
      "removeBatch(address[])": {
        "details": "Removes a address from the whitelist.",
        "params": {
          "_addresses": "Array of addresses to be whitelisted. "
        }
      },
      "renounceOwnership()": {
        "details": "Leaves the contract without owner. It will not be possible to call `onlyOwner` functions anymore. Can only be called by the current owner. NOTE: Renouncing ownership will leave the contract without an owner, thereby removing any functionality that is only available to the owner."
      },
      "setNewStage(uint256,uint256,uint256,uint256,string,bool)": {
        "details": "Lets the admin add a new stage to the ICO.  ",
        "params": {
          "_allocation": "The allocation (amount of OFLY tokens).",
          "_limit": "The max USD limit in gwei a user can buy.",
          "_name": "The name of the sale Stage.",
          "_rate": "Amount of OFLY tokens returned for 1 unit of DAI/USDC/USDT.",
          "_whitelisted": "If the stage is whitelisted or not. "
        }
      },
      "startICO()": {
        "details": "Starts the ICO and kicks of the first Sale Stage.  "
      },
      "startNextStage()": {
        "details": "Starts the NEXT Sale Stage of the ICO.  "
      },
      "transferOwnership(address)": {
        "details": "Transfers ownership of the contract to a new account (`newOwner`). Can only be called by the current owner."
      },
      "unpauseICO()": {
        "details": "unpauses the ICO so its open to investors again. "
      }
    },
    "version": 1
  },
  "userdoc": {
    "kind": "user",
    "methods": {
      "getStage(uint256)": {
        "notice": "Returns all the relevant information about a specific stage."
      }
    },
    "version": 1
  }
}