{
  "contractName": "OFlightsFarm",
  "abi": [
    {
      "inputs": [
        {
          "internalType": "contract IERC20Mintable",
          "name": "_ofly",
          "type": "address"
        },
        {
          "internalType": "address",
          "name": "_devaddr",
          "type": "address"
        },
        {
          "internalType": "uint256",
          "name": "_oflyPerBlock",
          "type": "uint256"
        },
        {
          "internalType": "uint256",
          "name": "_startBlock",
          "type": "uint256"
        },
        {
          "internalType": "uint256",
          "name": "_bonusEndBlock",
          "type": "uint256"
        }
      ],
      "stateMutability": "nonpayable",
      "type": "constructor"
    },
    {
      "anonymous": false,
      "inputs": [
        {
          "indexed": true,
          "internalType": "address",
          "name": "user",
          "type": "address"
        },
        {
          "indexed": true,
          "internalType": "uint256",
          "name": "pid",
          "type": "uint256"
        },
        {
          "indexed": false,
          "internalType": "uint256",
          "name": "amount",
          "type": "uint256"
        }
      ],
      "name": "Deposit",
      "type": "event"
    },
    {
      "anonymous": false,
      "inputs": [
        {
          "indexed": true,
          "internalType": "address",
          "name": "user",
          "type": "address"
        },
        {
          "indexed": true,
          "internalType": "uint256",
          "name": "pid",
          "type": "uint256"
        },
        {
          "indexed": false,
          "internalType": "uint256",
          "name": "amount",
          "type": "uint256"
        }
      ],
      "name": "EmergencyWithdraw",
      "type": "event"
    },
    {
      "anonymous": false,
      "inputs": [
        {
          "indexed": true,
          "internalType": "address",
          "name": "previousOwner",
          "type": "address"
        },
        {
          "indexed": true,
          "internalType": "address",
          "name": "newOwner",
          "type": "address"
        }
      ],
      "name": "OwnershipTransferred",
      "type": "event"
    },
    {
      "anonymous": false,
      "inputs": [
        {
          "indexed": true,
          "internalType": "address",
          "name": "user",
          "type": "address"
        },
        {
          "indexed": true,
          "internalType": "uint256",
          "name": "pid",
          "type": "uint256"
        },
        {
          "indexed": false,
          "internalType": "uint256",
          "name": "amount",
          "type": "uint256"
        }
      ],
      "name": "Withdraw",
      "type": "event"
    },
    {
      "inputs": [],
      "name": "BONUS_MULTIPLIER",
      "outputs": [
        {
          "internalType": "uint256",
          "name": "",
          "type": "uint256"
        }
      ],
      "stateMutability": "view",
      "type": "function",
      "constant": true
    },
    {
      "inputs": [],
      "name": "bonusEndBlock",
      "outputs": [
        {
          "internalType": "uint256",
          "name": "",
          "type": "uint256"
        }
      ],
      "stateMutability": "view",
      "type": "function",
      "constant": true
    },
    {
      "inputs": [],
      "name": "devaddr",
      "outputs": [
        {
          "internalType": "address",
          "name": "",
          "type": "address"
        }
      ],
      "stateMutability": "view",
      "type": "function",
      "constant": true
    },
    {
      "inputs": [],
      "name": "migrator",
      "outputs": [
        {
          "internalType": "contract IMigratorChef",
          "name": "",
          "type": "address"
        }
      ],
      "stateMutability": "view",
      "type": "function",
      "constant": true
    },
    {
      "inputs": [],
      "name": "ofly",
      "outputs": [
        {
          "internalType": "contract IERC20Mintable",
          "name": "",
          "type": "address"
        }
      ],
      "stateMutability": "view",
      "type": "function",
      "constant": true
    },
    {
      "inputs": [],
      "name": "oflyPerBlock",
      "outputs": [
        {
          "internalType": "uint256",
          "name": "",
          "type": "uint256"
        }
      ],
      "stateMutability": "view",
      "type": "function",
      "constant": true
    },
    {
      "inputs": [],
      "name": "owner",
      "outputs": [
        {
          "internalType": "address",
          "name": "",
          "type": "address"
        }
      ],
      "stateMutability": "view",
      "type": "function",
      "constant": true
    },
    {
      "inputs": [
        {
          "internalType": "uint256",
          "name": "",
          "type": "uint256"
        }
      ],
      "name": "poolInfo",
      "outputs": [
        {
          "internalType": "contract IERC20",
          "name": "lpToken",
          "type": "address"
        },
        {
          "internalType": "uint256",
          "name": "allocPoint",
          "type": "uint256"
        },
        {
          "internalType": "uint256",
          "name": "lastRewardBlock",
          "type": "uint256"
        },
        {
          "internalType": "uint256",
          "name": "accOflyPerShare",
          "type": "uint256"
        }
      ],
      "stateMutability": "view",
      "type": "function",
      "constant": true
    },
    {
      "inputs": [],
      "name": "renounceOwnership",
      "outputs": [],
      "stateMutability": "nonpayable",
      "type": "function"
    },
    {
      "inputs": [],
      "name": "startBlock",
      "outputs": [
        {
          "internalType": "uint256",
          "name": "",
          "type": "uint256"
        }
      ],
      "stateMutability": "view",
      "type": "function",
      "constant": true
    },
    {
      "inputs": [],
      "name": "totalAllocPoint",
      "outputs": [
        {
          "internalType": "uint256",
          "name": "",
          "type": "uint256"
        }
      ],
      "stateMutability": "view",
      "type": "function",
      "constant": true
    },
    {
      "inputs": [
        {
          "internalType": "address",
          "name": "newOwner",
          "type": "address"
        }
      ],
      "name": "transferOwnership",
      "outputs": [],
      "stateMutability": "nonpayable",
      "type": "function"
    },
    {
      "inputs": [
        {
          "internalType": "uint256",
          "name": "",
          "type": "uint256"
        },
        {
          "internalType": "address",
          "name": "",
          "type": "address"
        }
      ],
      "name": "userInfo",
      "outputs": [
        {
          "internalType": "uint256",
          "name": "amount",
          "type": "uint256"
        },
        {
          "internalType": "uint256",
          "name": "rewardDebt",
          "type": "uint256"
        }
      ],
      "stateMutability": "view",
      "type": "function",
      "constant": true
    },
    {
      "inputs": [],
      "name": "poolLength",
      "outputs": [
        {
          "internalType": "uint256",
          "name": "",
          "type": "uint256"
        }
      ],
      "stateMutability": "view",
      "type": "function",
      "constant": true
    },
    {
      "inputs": [
        {
          "internalType": "uint256",
          "name": "_allocPoint",
          "type": "uint256"
        },
        {
          "internalType": "contract IERC20",
          "name": "_lpToken",
          "type": "address"
        },
        {
          "internalType": "bool",
          "name": "_withUpdate",
          "type": "bool"
        }
      ],
      "name": "add",
      "outputs": [],
      "stateMutability": "nonpayable",
      "type": "function"
    },
    {
      "inputs": [
        {
          "internalType": "uint256",
          "name": "_pid",
          "type": "uint256"
        },
        {
          "internalType": "uint256",
          "name": "_allocPoint",
          "type": "uint256"
        },
        {
          "internalType": "bool",
          "name": "_withUpdate",
          "type": "bool"
        }
      ],
      "name": "set",
      "outputs": [],
      "stateMutability": "nonpayable",
      "type": "function"
    },
    {
      "inputs": [
        {
          "internalType": "contract IMigratorChef",
          "name": "_migrator",
          "type": "address"
        }
      ],
      "name": "setMigrator",
      "outputs": [],
      "stateMutability": "nonpayable",
      "type": "function"
    },
    {
      "inputs": [
        {
          "internalType": "uint256",
          "name": "_pid",
          "type": "uint256"
        }
      ],
      "name": "migrate",
      "outputs": [],
      "stateMutability": "nonpayable",
      "type": "function"
    },
    {
      "inputs": [
        {
          "internalType": "uint256",
          "name": "_from",
          "type": "uint256"
        },
        {
          "internalType": "uint256",
          "name": "_to",
          "type": "uint256"
        }
      ],
      "name": "getMultiplier",
      "outputs": [
        {
          "internalType": "uint256",
          "name": "",
          "type": "uint256"
        }
      ],
      "stateMutability": "view",
      "type": "function",
      "constant": true
    },
    {
      "inputs": [
        {
          "internalType": "uint256",
          "name": "_pid",
          "type": "uint256"
        },
        {
          "internalType": "address",
          "name": "_user",
          "type": "address"
        }
      ],
      "name": "pendingOfly",
      "outputs": [
        {
          "internalType": "uint256",
          "name": "",
          "type": "uint256"
        }
      ],
      "stateMutability": "view",
      "type": "function",
      "constant": true
    },
    {
      "inputs": [],
      "name": "massUpdatePools",
      "outputs": [],
      "stateMutability": "nonpayable",
      "type": "function"
    },
    {
      "inputs": [
        {
          "internalType": "uint256",
          "name": "_pid",
          "type": "uint256"
        }
      ],
      "name": "updatePool",
      "outputs": [],
      "stateMutability": "nonpayable",
      "type": "function"
    },
    {
      "inputs": [
        {
          "internalType": "uint256",
          "name": "_pid",
          "type": "uint256"
        },
        {
          "internalType": "uint256",
          "name": "_amount",
          "type": "uint256"
        }
      ],
      "name": "deposit",
      "outputs": [],
      "stateMutability": "nonpayable",
      "type": "function"
    },
    {
      "inputs": [
        {
          "internalType": "uint256",
          "name": "_pid",
          "type": "uint256"
        },
        {
          "internalType": "uint256",
          "name": "_amount",
          "type": "uint256"
        }
      ],
      "name": "withdraw",
      "outputs": [],
      "stateMutability": "nonpayable",
      "type": "function"
    },
    {
      "inputs": [
        {
          "internalType": "uint256",
          "name": "_pid",
          "type": "uint256"
        }
      ],
      "name": "emergencyWithdraw",
      "outputs": [],
      "stateMutability": "nonpayable",
      "type": "function"
    },
    {
      "inputs": [
        {
          "internalType": "address",
          "name": "_devaddr",
          "type": "address"
        }
      ],
      "name": "dev",
      "outputs": [],
      "stateMutability": "nonpayable",
      "type": "function"
    }
  ],
  "bytecode": "0x608060405260006008553480156200001657600080fd5b5060405162001d5738038062001d578339810160408190526200003991620000d2565b600062000045620000ce565b600080546001600160a01b0319166001600160a01b0383169081178255604051929350917f8be0079c531659141344cd1fd0a4f28419497f9722a3daafe3b4186f6b6457e0908290a350600180546001600160a01b039687166001600160a01b031991821617909155600280549590961694169390931790935560045560035560095562000142565b3390565b600080600080600060a08688031215620000ea578081fd5b8551620000f78162000129565b60208701519095506200010a8162000129565b6040870151606088015160809098015196999198509695945092505050565b6001600160a01b03811681146200013f57600080fd5b50565b611c0580620001526000396000f3fe608060405234801561001057600080fd5b506004361061016e5760003560e01c806364482f79116100ce5780638da5cb5b116100875780638da5cb5b146102a35780638dbb1e3a146102ab57806393f1a40b146102be578063a3533835146102df578063d49e77cd146102f2578063e2bbb158146102fa578063f2fde38b1461030d5761016e565b806364482f791461025d578063715018a6146102705780637a3e5fca146102785780637cd07e47146102805780638aa28550146102885780638d88a90e146102905761016e565b8063441a3e701161012b578063441a3e70146101ec578063454b0608146101ff57806348cd4cb11461021257806351eb05a61461021a5780635312ea8e1461022d5780635356c03b14610240578063630b5ba1146102555761016e565b8063081e3eda146101735780631526fe271461019157806317caf6f1146101b45780631aed6553146101bc5780631eaaa045146101c457806323cf3118146101d9575b600080fd5b61017b610320565b6040516101889190611aca565b60405180910390f35b6101a461019f3660046116c1565b610326565b6040516101889493929190611836565b61017b61036a565b61017b610370565b6101d76101d2366004611720565b610376565b005b6101d76101e736600461166d565b6104e1565b6101d76101fa366004611761565b610542565b6101d761020d3660046116c1565b61068a565b61017b6108c3565b6101d76102283660046116c1565b6108c9565b6101d761023b3660046116c1565b610af8565b610248610bab565b60405161018891906117cb565b6101d7610bba565b6101d761026b366004611782565b610be5565b6101d7610cc5565b61017b610d4e565b610248610d54565b61017b610d63565b6101d761029e36600461166d565b610d68565b610248610db4565b61017b6102b9366004611761565b610dc3565b6102d16102cc3660046116f1565b610e2f565b604051610188929190611ad3565b61017b6102ed3660046116f1565b610e53565b610248610fd1565b6101d7610308366004611761565b610fe0565b6101d761031b36600461166d565b6110fe565b60065490565b6006818154811061033657600080fd5b600091825260209091206004909102018054600182015460028301546003909301546001600160a01b039092169350919084565b60085481565b60035481565b61037e6111be565b6001600160a01b031661038f610db4565b6001600160a01b0316146103be5760405162461bcd60e51b81526004016103b59061193e565b60405180910390fd5b80156103cc576103cc610bba565b600060095443116103df576009546103e1565b435b6008549091506103f190856111c2565b600855604080516080810182526001600160a01b0394851681526020810195865290810191825260006060820181815260068054600181018255925291517ff652222313e28459528d920b65115c16c04f3efc82aaedc97be59f3f377c0d3f600490920291820180546001600160a01b031916919096161790945593517ff652222313e28459528d920b65115c16c04f3efc82aaedc97be59f3f377c0d40840155517ff652222313e28459528d920b65115c16c04f3efc82aaedc97be59f3f377c0d418301555090517ff652222313e28459528d920b65115c16c04f3efc82aaedc97be59f3f377c0d4290910155565b6104e96111be565b6001600160a01b03166104fa610db4565b6001600160a01b0316146105205760405162461bcd60e51b81526004016103b59061193e565b600580546001600160a01b0319166001600160a01b0392909216919091179055565b60006006838154811061056557634e487b7160e01b600052603260045260246000fd5b6000918252602080832086845260078252604080852033865290925292208054600490920290920192508311156105ae5760405162461bcd60e51b81526004016103b5906119aa565b6105b7846108c9565b60006105f182600101546105eb64e8d4a510006105e5876003015487600001546111d590919063ffffffff16565b906111e1565b906111ed565b90506105fd33826111f9565b815461060990856111ed565b80835560038401546106269164e8d4a51000916105e591906111d5565b60018301558254610641906001600160a01b03163386611399565b84336001600160a01b03167ff279e6a1f5e320cca91135676d9cb6e44ca8a08c0b88342bcdb1144f6511b5688660405161067b9190611aca565b60405180910390a35050505050565b6005546001600160a01b03166106b25760405162461bcd60e51b81526004016103b590611a9c565b6000600682815481106106d557634e487b7160e01b600052603260045260246000fd5b60009182526020822060049182020180546040516370a0823160e01b81529194506001600160a01b0316929183916370a0823191610715913091016117cb565b60206040518083038186803b15801561072d57600080fd5b505afa158015610741573d6000803e3d6000fd5b505050506040513d601f19601f8201168201806040525081019061076591906116d9565b600554909150610782906001600160a01b038481169116836113ef565b60055460405163ce5494bb60e01b81526000916001600160a01b03169063ce5494bb906107b39086906004016117cb565b602060405180830381600087803b1580156107cd57600080fd5b505af11580156107e1573d6000803e3d6000fd5b505050506040513d601f19601f8201168201806040525081019061080591906116a5565b6040516370a0823160e01b81529091506001600160a01b038216906370a08231906108349030906004016117cb565b60206040518083038186803b15801561084c57600080fd5b505afa158015610860573d6000803e3d6000fd5b505050506040513d601f19601f8201168201806040525081019061088491906116d9565b82146108a25760405162461bcd60e51b81526004016103b590611a20565b83546001600160a01b0319166001600160a01b039190911617909255505050565b60095481565b6000600682815481106108ec57634e487b7160e01b600052603260045260246000fd5b906000526020600020906004020190508060020154431161090d5750610af5565b80546040516370a0823160e01b81526000916001600160a01b0316906370a082319061093d9030906004016117cb565b60206040518083038186803b15801561095557600080fd5b505afa158015610969573d6000803e3d6000fd5b505050506040513d601f19601f8201168201806040525081019061098d91906116d9565b9050806109a1575043600290910155610af5565b60006109b1836002015443610dc3565b905060006109de6008546105e586600101546109d8600454876111d590919063ffffffff16565b906111d5565b6001546002549192506001600160a01b03908116916340c10f199116610a0584600a6111e1565b6040518363ffffffff1660e01b8152600401610a2292919061181d565b600060405180830381600087803b158015610a3c57600080fd5b505af1158015610a50573d6000803e3d6000fd5b50506001546040516340c10f1960e01b81526001600160a01b0390911692506340c10f199150610a86903090859060040161181d565b600060405180830381600087803b158015610aa057600080fd5b505af1158015610ab4573d6000803e3d6000fd5b50505050610ae2610ad7846105e564e8d4a51000856111d590919063ffffffff16565b6003860154906111c2565b6003850155505043600290920191909155505b50565b600060068281548110610b1b57634e487b7160e01b600052603260045260246000fd5b60009182526020808320858452600782526040808520338087529352909320805460049093029093018054909450610b60926001600160a01b03919091169190611399565b8054604051849133917fbb757047c2b5f3974fe26b7c10f732e7bce710b0952a71082702781e62ae059591610b9491611aca565b60405180910390a360008082556001909101555050565b6001546001600160a01b031681565b60065460005b81811015610be157610bd1816108c9565b610bda81611b7b565b9050610bc0565b5050565b610bed6111be565b6001600160a01b0316610bfe610db4565b6001600160a01b031614610c245760405162461bcd60e51b81526004016103b59061193e565b8015610c3257610c32610bba565b610c8382610c7d60068681548110610c5a57634e487b7160e01b600052603260045260246000fd5b9060005260206000209060040201600101546008546111ed90919063ffffffff16565b906111c2565b6008819055508160068481548110610cab57634e487b7160e01b600052603260045260246000fd5b906000526020600020906004020160010181905550505050565b610ccd6111be565b6001600160a01b0316610cde610db4565b6001600160a01b031614610d045760405162461bcd60e51b81526004016103b59061193e565b600080546040516001600160a01b03909116907f8be0079c531659141344cd1fd0a4f28419497f9722a3daafe3b4186f6b6457e0908390a3600080546001600160a01b0319169055565b60045481565b6005546001600160a01b031681565b600a81565b6002546001600160a01b03163314610d925760405162461bcd60e51b81526004016103b59061191b565b600280546001600160a01b0319166001600160a01b0392909216919091179055565b6000546001600160a01b031690565b60006003548211610de457610ddd600a6109d884866111ed565b9050610e29565b6003548310610df757610ddd82846111ed565b610ddd610e0f600354846111ed90919063ffffffff16565b610c7d600a6109d8876003546111ed90919063ffffffff16565b92915050565b60076020908152600092835260408084209091529082529020805460019091015482565b60008060068481548110610e7757634e487b7160e01b600052603260045260246000fd5b600091825260208083208784526007825260408085206001600160a01b038981168752935280852060049485029092016003810154815492516370a0823160e01b815291975092959294929391909116916370a0823191610eda913091016117cb565b60206040518083038186803b158015610ef257600080fd5b505afa158015610f06573d6000803e3d6000fd5b505050506040513d601f19601f82011682018060405250810190610f2a91906116d9565b9050836002015443118015610f3e57508015155b15610f9e576000610f53856002015443610dc3565b90506000610f7a6008546105e588600101546109d8600454876111d590919063ffffffff16565b9050610f99610f92846105e58464e8d4a510006111d5565b85906111c2565b935050505b610fc683600101546105eb64e8d4a510006105e58688600001546111d590919063ffffffff16565b979650505050505050565b6002546001600160a01b031681565b60006006838154811061100357634e487b7160e01b600052603260045260246000fd5b60009182526020808320868452600782526040808520338652909252922060049091029091019150611034846108c9565b80541561107757600061106982600101546105eb64e8d4a510006105e5876003015487600001546111d590919063ffffffff16565b905061107533826111f9565b505b815461108e906001600160a01b03163330866114b2565b805461109a90846111c2565b80825560038301546110b79164e8d4a51000916105e591906111d5565b6001820155604051849033907f90890809c654f11d6e72a28fa60149770a0d11ec6c92319d6ceb2bb0a4ea1a15906110f0908790611aca565b60405180910390a350505050565b6111066111be565b6001600160a01b0316611117610db4565b6001600160a01b03161461113d5760405162461bcd60e51b81526004016103b59061193e565b6001600160a01b0381166111635760405162461bcd60e51b81526004016103b59061188f565b600080546040516001600160a01b03808516939216917f8be0079c531659141344cd1fd0a4f28419497f9722a3daafe3b4186f6b6457e091a3600080546001600160a01b0319166001600160a01b0392909216919091179055565b3390565b60006111ce8284611ae1565b9392505050565b60006111ce8284611b19565b60006111ce8284611af9565b60006111ce8284611b38565b6001546040516370a0823160e01b81526000916001600160a01b0316906370a082319061122a9030906004016117cb565b60206040518083038186803b15801561124257600080fd5b505afa158015611256573d6000803e3d6000fd5b505050506040513d601f19601f8201168201806040525081019061127a91906116d9565b90508082111561130e5760015460405163a9059cbb60e01b81526001600160a01b039091169063a9059cbb906112b6908690859060040161181d565b602060405180830381600087803b1580156112d057600080fd5b505af11580156112e4573d6000803e3d6000fd5b505050506040513d601f19601f820116820180604052508101906113089190611689565b50611394565b60015460405163a9059cbb60e01b81526001600160a01b039091169063a9059cbb90611340908690869060040161181d565b602060405180830381600087803b15801561135a57600080fd5b505af115801561136e573d6000803e3d6000fd5b505050506040513d601f19601f820116820180604052508101906113929190611689565b505b505050565b6113948363a9059cbb60e01b84846040516024016113b892919061181d565b60408051601f198184030181529190526020810180516001600160e01b03166001600160e01b0319909316929092179091526114d3565b8015806114775750604051636eb1769f60e11b81526001600160a01b0384169063dd62ed3e9061142590309086906004016117df565b60206040518083038186803b15801561143d57600080fd5b505afa158015611451573d6000803e3d6000fd5b505050506040513d601f19601f8201168201806040525081019061147591906116d9565b155b6114935760405162461bcd60e51b81526004016103b590611a46565b6113948363095ea7b360e01b84846040516024016113b892919061181d565b611392846323b872dd60e01b8585856040516024016113b8939291906117f9565b6000611528826040518060400160405280602081526020017f5361666545524332303a206c6f772d6c6576656c2063616c6c206661696c6564815250856001600160a01b03166115629092919063ffffffff16565b80519091501561139457808060200190518101906115469190611689565b6113945760405162461bcd60e51b81526004016103b5906119d6565b60606115718484600085611579565b949350505050565b60608247101561159b5760405162461bcd60e51b81526004016103b5906118d5565b6115a48561162e565b6115c05760405162461bcd60e51b81526004016103b590611973565b600080866001600160a01b031685876040516115dc91906117af565b60006040518083038185875af1925050503d8060008114611619576040519150601f19603f3d011682016040523d82523d6000602084013e61161e565b606091505b5091509150610fc6828286611634565b3b151590565b606083156116435750816111ce565b8251156116535782518084602001fd5b8160405162461bcd60e51b81526004016103b5919061185c565b60006020828403121561167e578081fd5b81356111ce81611bac565b60006020828403121561169a578081fd5b81516111ce81611bc1565b6000602082840312156116b6578081fd5b81516111ce81611bac565b6000602082840312156116d2578081fd5b5035919050565b6000602082840312156116ea578081fd5b5051919050565b60008060408385031215611703578081fd5b82359150602083013561171581611bac565b809150509250929050565b600080600060608486031215611734578081fd5b83359250602084013561174681611bac565b9150604084013561175681611bc1565b809150509250925092565b60008060408385031215611773578182fd5b50508035926020909101359150565b600080600060608486031215611796578283fd5b8335925060208401359150604084013561175681611bc1565b600082516117c1818460208701611b4f565b9190910192915050565b6001600160a01b0391909116815260200190565b6001600160a01b0392831681529116602082015260400190565b6001600160a01b039384168152919092166020820152604081019190915260600190565b6001600160a01b03929092168252602082015260400190565b6001600160a01b0394909416845260208401929092526040830152606082015260800190565b600060208252825180602084015261187b816040850160208701611b4f565b601f01601f19169190910160400192915050565b60208082526026908201527f4f776e61626c653a206e6577206f776e657220697320746865207a65726f206160408201526564647265737360d01b606082015260800190565b60208082526026908201527f416464726573733a20696e73756666696369656e742062616c616e636520666f6040820152651c8818d85b1b60d21b606082015260800190565b6020808252600990820152686465763a207775743f60b81b604082015260600190565b6020808252818101527f4f776e61626c653a2063616c6c6572206973206e6f7420746865206f776e6572604082015260600190565b6020808252601d908201527f416464726573733a2063616c6c20746f206e6f6e2d636f6e7472616374000000604082015260600190565b6020808252601290820152711dda5d1a191c985dce881b9bdd0819dbdbd960721b604082015260600190565b6020808252602a908201527f5361666545524332303a204552433230206f7065726174696f6e20646964206e6040820152691bdd081cdd58d8d9595960b21b606082015260800190565b6020808252600c908201526b1b5a59dc985d194e8818985960a21b604082015260600190565b60208082526036908201527f5361666545524332303a20617070726f76652066726f6d206e6f6e2d7a65726f60408201527520746f206e6f6e2d7a65726f20616c6c6f77616e636560501b606082015260800190565b60208082526014908201527336b4b3b930ba329d1037379036b4b3b930ba37b960611b604082015260600190565b90815260200190565b918252602082015260400190565b60008219821115611af457611af4611b96565b500190565b600082611b1457634e487b7160e01b81526012600452602481fd5b500490565b6000816000190483118215151615611b3357611b33611b96565b500290565b600082821015611b4a57611b4a611b96565b500390565b60005b83811015611b6a578181015183820152602001611b52565b838111156113925750506000910152565b6000600019821415611b8f57611b8f611b96565b5060010190565b634e487b7160e01b600052601160045260246000fd5b6001600160a01b0381168114610af557600080fd5b8015158114610af557600080fdfea2646970667358221220567bb3a18b84cf3ffc26a7adcf0325a96d662b3745d3ced711250457cabf11f264736f6c63430008000033",
  "immutableReferences": {},
  "source": "// SPDX-License-Identifier: MIT\n\npragma solidity ^0.8.0;\n\nimport \"@openzeppelin/contracts/token/ERC20/IERC20.sol\";\nimport \"@openzeppelin/contracts/token/ERC20/utils/SafeERC20.sol\";\nimport \"@openzeppelin/contracts/utils/structs/EnumerableSet.sol\";\nimport \"@openzeppelin/contracts/utils/math/SafeMath.sol\";\nimport \"@openzeppelin/contracts/access/Ownable.sol\";\nimport \"../interfaces/IERC20Mintable.sol\";\n\n\ninterface IMigratorChef {\n    // Perform LP token migration from legacy UniswapV2 to SushiSwap.\n    // Take the current LP token address and return the new LP token address.\n    // Migrator should have full access to the caller's LP token.\n    // Return the new LP token address.\n    //\n    // XXX Migrator must have allowance access to UniswapV2 LP tokens.\n    // SushiSwap must mint EXACTLY the same amount of SushiSwap LP tokens or\n    // else something bad will happen. Traditional UniswapV2 does not\n    // do that so be careful!\n    function migrate(IERC20 token) external returns (IERC20);\n}\n\n\n// MasterChef is the master of OFly. He can make OFly and he is a fair guy.\n//\n// Note that it's ownable and the owner wields tremendous power. The ownership\n// will be transferred to a governance smart contract once OFLY is sufficiently\n// distributed and the community can show to govern itself.\n//\n// Have fun reading it. Hopefully it's bug-free. God bless.\ncontract OFlightsFarm is Ownable {\n    using SafeMath for uint256;\n    using SafeERC20 for IERC20;\n    // Info of each user.\n    struct UserInfo {\n        uint256 amount; // How many LP tokens the user has provided.\n        uint256 rewardDebt; // Reward debt. See explanation below.\n        //\n        // We do some fancy math here. Basically, any point in time, the amount of SUSHIs\n        // entitled to a user but is pending to be distributed is:\n        //\n        //   pending reward = (user.amount * pool.accOflyPerShare) - user.rewardDebt\n        //\n        // Whenever a user deposits or withdraws LP tokens to a pool. Here's what happens:\n        //   1. The pool's `accOflyPerShare` (and `lastRewardBlock`) gets updated.\n        //   2. User receives the pending reward sent to his/her address.\n        //   3. User's `amount` gets updated.\n        //   4. User's `rewardDebt` gets updated.\n    }\n    // Info of each pool.\n    struct PoolInfo {\n        IERC20 lpToken; // Address of LP token contract.\n        uint256 allocPoint; // How many allocation points assigned to this pool. SUSHIs to distribute per block.\n        uint256 lastRewardBlock; // Last block number that SUSHIs distribution occurs.\n        uint256 accOflyPerShare; // Accumulated SUSHIs per share, times 1e12. See below.\n    }\n    // The OFLY TOKEN!\n    IERC20Mintable public ofly;\n    // Dev address.\n    address public devaddr;\n    // Block number when bonus OFLY period ends.\n    uint256 public bonusEndBlock;\n    // OFLY tokens created per block.\n    uint256 public oflyPerBlock;\n    // Bonus muliplier for early ofly makers.\n    uint256 public constant BONUS_MULTIPLIER = 10;\n    // The migrator contract. It has a lot of power. Can only be set through governance (owner).\n    IMigratorChef public migrator;\n    // Info of each pool.\n    PoolInfo[] public poolInfo;\n    // Info of each user that stakes LP tokens.\n    mapping(uint256 => mapping(address => UserInfo)) public userInfo;\n    // Total allocation poitns. Must be the sum of all allocation points in all pools.\n    uint256 public totalAllocPoint = 0;\n    // The block number when OFLY mining starts.\n    uint256 public startBlock;\n    event Deposit(address indexed user, uint256 indexed pid, uint256 amount);\n    event Withdraw(address indexed user, uint256 indexed pid, uint256 amount);\n    event EmergencyWithdraw(\n        address indexed user,\n        uint256 indexed pid,\n        uint256 amount\n    );\n\n    constructor(\n        IERC20Mintable _ofly,\n        address _devaddr,\n        uint256 _oflyPerBlock,\n        uint256 _startBlock,\n        uint256 _bonusEndBlock\n    )  {\n        ofly = _ofly;\n        devaddr = _devaddr;\n        oflyPerBlock = _oflyPerBlock;\n        bonusEndBlock = _bonusEndBlock;\n        startBlock = _startBlock;\n    }\n\n    function poolLength() external view returns (uint256) {\n        return poolInfo.length;\n    }\n\n    // Add a new lp to the pool. Can only be called by the owner.\n    // XXX DO NOT add the same LP token more than once. Rewards will be messed up if you do.\n    function add(\n        uint256 _allocPoint,\n        IERC20 _lpToken,\n        bool _withUpdate\n    ) public onlyOwner {\n        if (_withUpdate) {\n            massUpdatePools();\n        }\n        uint256 lastRewardBlock =\n            block.number > startBlock ? block.number : startBlock;\n        totalAllocPoint = totalAllocPoint.add(_allocPoint);\n        poolInfo.push(\n            PoolInfo({\n                lpToken: _lpToken,\n                allocPoint: _allocPoint,\n                lastRewardBlock: lastRewardBlock,\n                accOflyPerShare: 0\n            })\n        );\n    }\n\n    // Update the given pool's OFLY allocation point. Can only be called by the owner.\n    function set(\n        uint256 _pid,\n        uint256 _allocPoint,\n        bool _withUpdate\n    ) public onlyOwner {\n        if (_withUpdate) {\n            massUpdatePools();\n        }\n        totalAllocPoint = totalAllocPoint.sub(poolInfo[_pid].allocPoint).add(\n            _allocPoint\n        );\n        poolInfo[_pid].allocPoint = _allocPoint;\n    }\n\n    // Set the migrator contract. Can only be called by the owner.\n    function setMigrator(IMigratorChef _migrator) public onlyOwner {\n        migrator = _migrator;\n    }\n\n    // Migrate lp token to another lp contract. Can be called by anyone. We trust that migrator contract is good.\n    function migrate(uint256 _pid) public {\n        require(address(migrator) != address(0), \"migrate: no migrator\");\n        PoolInfo storage pool = poolInfo[_pid];\n        IERC20 lpToken = pool.lpToken;\n        uint256 bal = lpToken.balanceOf(address(this));\n        lpToken.safeApprove(address(migrator), bal);\n        IERC20 newLpToken = migrator.migrate(lpToken);\n        require(bal == newLpToken.balanceOf(address(this)), \"migrate: bad\");\n        pool.lpToken = newLpToken;\n    }\n\n    // Return reward multiplier over the given _from to _to block.\n    function getMultiplier(uint256 _from, uint256 _to)\n        public\n        view\n        returns (uint256)\n    {\n        if (_to <= bonusEndBlock) {\n            return _to.sub(_from).mul(BONUS_MULTIPLIER);\n        } else if (_from >= bonusEndBlock) {\n            return _to.sub(_from);\n        } else {\n            return\n                bonusEndBlock.sub(_from).mul(BONUS_MULTIPLIER).add(\n                    _to.sub(bonusEndBlock)\n                );\n        }\n    }\n\n    // View function to see pending SUSHIs on frontend.\n    function pendingOfly(uint256 _pid, address _user)\n        external\n        view\n        returns (uint256)\n    {\n        PoolInfo storage pool = poolInfo[_pid];\n        UserInfo storage user = userInfo[_pid][_user];\n        uint256 accOflyPerShare = pool.accOflyPerShare;\n        uint256 lpSupply = pool.lpToken.balanceOf(address(this));\n        if (block.number > pool.lastRewardBlock && lpSupply != 0) {\n            uint256 multiplier =\n                getMultiplier(pool.lastRewardBlock, block.number);\n            uint256 sushiReward =\n                multiplier.mul(oflyPerBlock).mul(pool.allocPoint).div(\n                    totalAllocPoint\n                );\n            accOflyPerShare = accOflyPerShare.add(\n                sushiReward.mul(1e12).div(lpSupply)\n            );\n        }\n        return user.amount.mul(accOflyPerShare).div(1e12).sub(user.rewardDebt);\n    }\n\n    // Update reward vairables for all pools. Be careful of gas spending!\n    function massUpdatePools() public {\n        uint256 length = poolInfo.length;\n        for (uint256 pid = 0; pid < length; ++pid) {\n            updatePool(pid);\n        }\n    }\n\n    // Update reward variables of the given pool to be up-to-date.\n    function updatePool(uint256 _pid) public {\n        PoolInfo storage pool = poolInfo[_pid];\n        if (block.number <= pool.lastRewardBlock) {\n            return;\n        }\n        uint256 lpSupply = pool.lpToken.balanceOf(address(this));\n        if (lpSupply == 0) {\n            pool.lastRewardBlock = block.number;\n            return;\n        }\n        uint256 multiplier = getMultiplier(pool.lastRewardBlock, block.number);\n        uint256 sushiReward =\n            multiplier.mul(oflyPerBlock).mul(pool.allocPoint).div(\n                totalAllocPoint\n            );\n        ofly.mint(devaddr, sushiReward.div(10));\n        ofly.mint(address(this), sushiReward);\n        pool.accOflyPerShare = pool.accOflyPerShare.add(\n            sushiReward.mul(1e12).div(lpSupply)\n        );\n        pool.lastRewardBlock = block.number;\n    }\n\n    // Deposit LP tokens to MasterChef for OFLY allocation.\n    function deposit(uint256 _pid, uint256 _amount) public {\n        PoolInfo storage pool = poolInfo[_pid];\n        UserInfo storage user = userInfo[_pid][msg.sender];\n        updatePool(_pid);\n        if (user.amount > 0) {\n            uint256 pending =\n                user.amount.mul(pool.accOflyPerShare).div(1e12).sub(\n                    user.rewardDebt\n                );\n            safeOflyTransfer(msg.sender, pending);\n        }\n        pool.lpToken.safeTransferFrom(\n            address(msg.sender),\n            address(this),\n            _amount\n        );\n        user.amount = user.amount.add(_amount);\n        user.rewardDebt = user.amount.mul(pool.accOflyPerShare).div(1e12);\n        emit Deposit(msg.sender, _pid, _amount);\n    }\n\n    // Withdraw LP tokens from MasterChef.\n    function withdraw(uint256 _pid, uint256 _amount) public {\n        PoolInfo storage pool = poolInfo[_pid];\n        UserInfo storage user = userInfo[_pid][msg.sender];\n        require(user.amount >= _amount, \"withdraw: not good\");\n        updatePool(_pid);\n        uint256 pending =\n            user.amount.mul(pool.accOflyPerShare).div(1e12).sub(\n                user.rewardDebt\n            );\n        safeOflyTransfer(msg.sender, pending);\n        user.amount = user.amount.sub(_amount);\n        user.rewardDebt = user.amount.mul(pool.accOflyPerShare).div(1e12);\n        pool.lpToken.safeTransfer(address(msg.sender), _amount);\n        emit Withdraw(msg.sender, _pid, _amount);\n    }\n\n    // Withdraw without caring about rewards. EMERGENCY ONLY.\n    function emergencyWithdraw(uint256 _pid) public {\n        PoolInfo storage pool = poolInfo[_pid];\n        UserInfo storage user = userInfo[_pid][msg.sender];\n        pool.lpToken.safeTransfer(address(msg.sender), user.amount);\n        emit EmergencyWithdraw(msg.sender, _pid, user.amount);\n        user.amount = 0;\n        user.rewardDebt = 0;\n    }\n\n    // Safe ofly transfer function, just in case if rounding error causes pool to not have enough SUSHIs.\n    function safeOflyTransfer(address _to, uint256 _amount) internal {\n        uint256 sushiBal = ofly.balanceOf(address(this));\n        if (_amount > sushiBal) {\n            ofly.transfer(_to, sushiBal);\n        } else {\n            ofly.transfer(_to, _amount);\n        }\n    }\n\n    // Update dev address by the previous dev.\n    function dev(address _devaddr) public {\n        require(msg.sender == devaddr, \"dev: wut?\");\n        devaddr = _devaddr;\n    }\n}",
  "sourcePath": "/Users/lexcalebout/Desktop/Dev-Projects/OFlights_ICO/packages/contracts/contracts/farming/OFlightsFarm.sol",
  "compiler": {
    "name": "solc",
    "version": "0.8.0+commit.c7dfd78e.Emscripten.clang"
  },
  "schemaVersion": "3.3.4",
  "updatedAt": "2021-04-15T16:41:38.488Z",
  "networkType": "ethereum",
  "devdoc": {
    "kind": "dev",
    "methods": {
      "owner()": {
        "details": "Returns the address of the current owner."
      },
      "renounceOwnership()": {
        "details": "Leaves the contract without owner. It will not be possible to call `onlyOwner` functions anymore. Can only be called by the current owner. NOTE: Renouncing ownership will leave the contract without an owner, thereby removing any functionality that is only available to the owner."
      },
      "transferOwnership(address)": {
        "details": "Transfers ownership of the contract to a new account (`newOwner`). Can only be called by the current owner."
      }
    },
    "version": 1
  },
  "userdoc": {
    "kind": "user",
    "methods": {},
    "version": 1
  }
}