{
  "contractName": "ICO",
  "abi": [
    {
      "inputs": [
        {
          "internalType": "contract IERC20Mintable",
          "name": "_token",
          "type": "address"
        },
        {
          "internalType": "contract IERC20",
          "name": "_dai",
          "type": "address"
        },
        {
          "internalType": "contract IERC20",
          "name": "_usdc",
          "type": "address"
        },
        {
          "internalType": "contract IERC20",
          "name": "_usdt",
          "type": "address"
        },
        {
          "internalType": "contract IERC20",
          "name": "_busd",
          "type": "address"
        },
        {
          "internalType": "uint256",
          "name": "_allocation",
          "type": "uint256"
        },
        {
          "internalType": "uint256",
          "name": "_min",
          "type": "uint256"
        },
        {
          "internalType": "uint256",
          "name": "_limit",
          "type": "uint256"
        },
        {
          "internalType": "uint256",
          "name": "_rate",
          "type": "uint256"
        },
        {
          "internalType": "string",
          "name": "_name",
          "type": "string"
        },
        {
          "internalType": "bool",
          "name": "_whitelisted",
          "type": "bool"
        }
      ],
      "stateMutability": "nonpayable",
      "type": "constructor"
    },
    {
      "anonymous": false,
      "inputs": [
        {
          "indexed": true,
          "internalType": "uint256",
          "name": "allocation",
          "type": "uint256"
        }
      ],
      "name": "AddedNewStage",
      "type": "event"
    },
    {
      "anonymous": false,
      "inputs": [
        {
          "indexed": true,
          "internalType": "address",
          "name": "account",
          "type": "address"
        }
      ],
      "name": "AddedToWhitelist",
      "type": "event"
    },
    {
      "anonymous": false,
      "inputs": [
        {
          "indexed": true,
          "internalType": "address",
          "name": "previousOwner",
          "type": "address"
        },
        {
          "indexed": true,
          "internalType": "address",
          "name": "newOwner",
          "type": "address"
        }
      ],
      "name": "OwnershipTransferred",
      "type": "event"
    },
    {
      "anonymous": false,
      "inputs": [
        {
          "indexed": false,
          "internalType": "address",
          "name": "account",
          "type": "address"
        }
      ],
      "name": "Paused",
      "type": "event"
    },
    {
      "anonymous": false,
      "inputs": [
        {
          "indexed": true,
          "internalType": "address",
          "name": "account",
          "type": "address"
        }
      ],
      "name": "RemovedFromWhitelist",
      "type": "event"
    },
    {
      "anonymous": false,
      "inputs": [
        {
          "indexed": false,
          "internalType": "address",
          "name": "account",
          "type": "address"
        }
      ],
      "name": "Unpaused",
      "type": "event"
    },
    {
      "inputs": [],
      "name": "TOKEN",
      "outputs": [
        {
          "internalType": "contract IERC20Mintable",
          "name": "",
          "type": "address"
        }
      ],
      "stateMutability": "view",
      "type": "function",
      "constant": true
    },
    {
      "inputs": [
        {
          "internalType": "address",
          "name": "_address",
          "type": "address"
        }
      ],
      "name": "add",
      "outputs": [],
      "stateMutability": "nonpayable",
      "type": "function"
    },
    {
      "inputs": [
        {
          "internalType": "address[]",
          "name": "_addresses",
          "type": "address[]"
        }
      ],
      "name": "addBatch",
      "outputs": [],
      "stateMutability": "nonpayable",
      "type": "function"
    },
    {
      "inputs": [],
      "name": "currentStage",
      "outputs": [
        {
          "internalType": "uint256",
          "name": "",
          "type": "uint256"
        }
      ],
      "stateMutability": "view",
      "type": "function",
      "constant": true
    },
    {
      "inputs": [
        {
          "internalType": "uint256",
          "name": "_stage",
          "type": "uint256"
        }
      ],
      "name": "getStage",
      "outputs": [
        {
          "internalType": "string",
          "name": "name",
          "type": "string"
        },
        {
          "internalType": "uint256",
          "name": "allocation",
          "type": "uint256"
        },
        {
          "internalType": "uint256",
          "name": "min",
          "type": "uint256"
        },
        {
          "internalType": "uint256",
          "name": "limit",
          "type": "uint256"
        },
        {
          "internalType": "uint256",
          "name": "rate",
          "type": "uint256"
        },
        {
          "internalType": "uint256",
          "name": "sold",
          "type": "uint256"
        },
        {
          "internalType": "bool",
          "name": "active",
          "type": "bool"
        },
        {
          "internalType": "bool",
          "name": "goalReached",
          "type": "bool"
        },
        {
          "internalType": "bool",
          "name": "whitelisted",
          "type": "bool"
        }
      ],
      "stateMutability": "view",
      "type": "function",
      "constant": true
    },
    {
      "inputs": [
        {
          "internalType": "address",
          "name": "_address",
          "type": "address"
        }
      ],
      "name": "isWhitelisted",
      "outputs": [
        {
          "internalType": "bool",
          "name": "",
          "type": "bool"
        }
      ],
      "stateMutability": "view",
      "type": "function",
      "constant": true
    },
    {
      "inputs": [],
      "name": "owner",
      "outputs": [
        {
          "internalType": "address",
          "name": "",
          "type": "address"
        }
      ],
      "stateMutability": "view",
      "type": "function",
      "constant": true
    },
    {
      "inputs": [],
      "name": "paused",
      "outputs": [
        {
          "internalType": "bool",
          "name": "",
          "type": "bool"
        }
      ],
      "stateMutability": "view",
      "type": "function",
      "constant": true
    },
    {
      "inputs": [
        {
          "internalType": "address",
          "name": "_address",
          "type": "address"
        }
      ],
      "name": "remove",
      "outputs": [],
      "stateMutability": "nonpayable",
      "type": "function"
    },
    {
      "inputs": [
        {
          "internalType": "address[]",
          "name": "_addresses",
          "type": "address[]"
        }
      ],
      "name": "removeBatch",
      "outputs": [],
      "stateMutability": "nonpayable",
      "type": "function"
    },
    {
      "inputs": [],
      "name": "renounceOwnership",
      "outputs": [],
      "stateMutability": "nonpayable",
      "type": "function"
    },
    {
      "inputs": [
        {
          "internalType": "address",
          "name": "newOwner",
          "type": "address"
        }
      ],
      "name": "transferOwnership",
      "outputs": [],
      "stateMutability": "nonpayable",
      "type": "function"
    },
    {
      "inputs": [],
      "name": "getRemainingTokens",
      "outputs": [
        {
          "internalType": "uint256",
          "name": "",
          "type": "uint256"
        }
      ],
      "stateMutability": "view",
      "type": "function",
      "constant": true
    },
    {
      "inputs": [],
      "name": "getCurrentrate",
      "outputs": [
        {
          "internalType": "uint256",
          "name": "",
          "type": "uint256"
        }
      ],
      "stateMutability": "view",
      "type": "function",
      "constant": true
    },
    {
      "inputs": [],
      "name": "getCurrentMinimum",
      "outputs": [
        {
          "internalType": "uint256",
          "name": "",
          "type": "uint256"
        }
      ],
      "stateMutability": "view",
      "type": "function",
      "constant": true
    },
    {
      "inputs": [],
      "name": "getCurrentLimit",
      "outputs": [
        {
          "internalType": "uint256",
          "name": "",
          "type": "uint256"
        }
      ],
      "stateMutability": "view",
      "type": "function",
      "constant": true
    },
    {
      "inputs": [],
      "name": "getLeftOverInputAmount",
      "outputs": [
        {
          "internalType": "uint256",
          "name": "",
          "type": "uint256"
        }
      ],
      "stateMutability": "view",
      "type": "function",
      "constant": true
    },
    {
      "inputs": [],
      "name": "getTotalStages",
      "outputs": [
        {
          "internalType": "uint256",
          "name": "",
          "type": "uint256"
        }
      ],
      "stateMutability": "view",
      "type": "function",
      "constant": true
    },
    {
      "inputs": [],
      "name": "startICO",
      "outputs": [],
      "stateMutability": "nonpayable",
      "type": "function"
    },
    {
      "inputs": [],
      "name": "pauseICO",
      "outputs": [],
      "stateMutability": "nonpayable",
      "type": "function"
    },
    {
      "inputs": [],
      "name": "unpauseICO",
      "outputs": [],
      "stateMutability": "nonpayable",
      "type": "function"
    },
    {
      "inputs": [],
      "name": "startNextStage",
      "outputs": [],
      "stateMutability": "nonpayable",
      "type": "function"
    },
    {
      "inputs": [
        {
          "internalType": "uint256",
          "name": "_allocation",
          "type": "uint256"
        },
        {
          "internalType": "uint256",
          "name": "_min",
          "type": "uint256"
        },
        {
          "internalType": "uint256",
          "name": "_limit",
          "type": "uint256"
        },
        {
          "internalType": "uint256",
          "name": "_rate",
          "type": "uint256"
        },
        {
          "internalType": "string",
          "name": "_name",
          "type": "string"
        },
        {
          "internalType": "bool",
          "name": "_whitelisted",
          "type": "bool"
        }
      ],
      "name": "setNewStage",
      "outputs": [],
      "stateMutability": "nonpayable",
      "type": "function"
    },
    {
      "inputs": [
        {
          "internalType": "uint256",
          "name": "_inputamount",
          "type": "uint256"
        },
        {
          "internalType": "contract IERC20",
          "name": "_paytoken",
          "type": "address"
        }
      ],
      "name": "buyTokens",
      "outputs": [],
      "stateMutability": "nonpayable",
      "type": "function"
    },
    {
      "inputs": [
        {
          "internalType": "address",
          "name": "farmAddress",
          "type": "address"
        },
        {
          "internalType": "uint256",
          "name": "amount",
          "type": "uint256"
        }
      ],
      "name": "mintRewardTokens",
      "outputs": [],
      "stateMutability": "nonpayable",
      "type": "function"
    },
    {
      "inputs": [
        {
          "internalType": "contract IERC20",
          "name": "_token",
          "type": "address"
        }
      ],
      "name": "isAcceptedToken",
      "outputs": [
        {
          "internalType": "bool",
          "name": "",
          "type": "bool"
        }
      ],
      "stateMutability": "view",
      "type": "function",
      "constant": true
    }
  ],
  "bytecode": "0x60806040523480156200001157600080fd5b50604051620037dd380380620037dd833981016040819052620000349162000454565b6000620000406200018f565b600080546001600160a01b0319166001600160a01b0383169081178255604051929350917f8be0079c531659141344cd1fd0a4f28419497f9722a3daafe3b4186f6b6457e0908290a3506000600460006101000a81548160ff0219169083151502179055508a600860006101000a8154816001600160a01b0302191690836001600160a01b0316021790555089600660006101000a8154816001600160a01b0302191690836001600160a01b0316021790555088600460016101000a8154816001600160a01b0302191690836001600160a01b0316021790555087600560006101000a8154816001600160a01b0302191690836001600160a01b0316021790555086600760006101000a8154816001600160a01b0302191690836001600160a01b031602179055506200017e8686868686866200019360201b60201c565b50505050505050505050506200059c565b3390565b60408051610140810182526002805480835260208084018781529484018b9052606084018a90526080840189905260a08401889052600060c0850181905260e0850181905261010085018190528615156101208601526001830184559290925282517f405787fa12a823e0f2b7631cc41b3ba8828b3321ca811111fa75cd3aa3bb5ace6008909202918201908155935180519394859490936200025b937f405787fa12a823e0f2b7631cc41b3ba8828b3321ca811111fa75cd3aa3bb5acf01920190620002e0565b5060408201516002820155606082015160038201556080820151600482015560a0820151600582015560c0820151600682015560e08201516007909101805461010080850151610120909501511515620100000262ff00001995151590910261ff001994151560ff199093169290921793909316179290921617905550505050505050565b828054620002ee9062000530565b90600052602060002090601f0160209004810192826200031257600085556200035d565b82601f106200032d57805160ff19168380011785556200035d565b828001600101855582156200035d579182015b828111156200035d57825182559160200191906001019062000340565b506200036b9291506200036f565b5090565b5b808211156200036b576000815560010162000370565b805180151581146200039757600080fd5b919050565b8051620003978162000583565b600082601f830112620003ba578081fd5b81516001600160401b0380821115620003d757620003d76200056d565b6040516020601f8401601f1916820181018381118382101715620003ff57620003ff6200056d565b604052838252858401810187101562000416578485fd5b8492505b838310156200043957858301810151828401820152918201916200041a565b838311156200044a57848185840101525b5095945050505050565b60008060008060008060008060008060006101608c8e03121562000476578687fd5b8b51620004838162000583565b60208d0151909b50620004968162000583565b9950620004a660408d016200039c565b9850620004b660608d016200039c565b9750620004c660808d016200039c565b965060a08c0151955060c08c0151945060e08c015193506101008c015192506101208c015160018060401b03811115620004fe578283fd5b6200050c8e828f01620003a9565b9250506200051e6101408d0162000386565b90509295989b509295989b9093969950565b6002810460018216806200054557607f821691505b602082108114156200056757634e487b7160e01b600052602260045260246000fd5b50919050565b634e487b7160e01b600052604160045260246000fd5b6001600160a01b03811681146200059957600080fd5b50565b61323180620005ac6000396000f3fe608060405234801561001057600080fd5b506004361061016e5760003560e01c806363d177e6116100ce57806382bfefc81161008757806382bfefc81461029d5780638da5cb5b146102b2578063ae87ba61146102ba578063af35ae27146102c2578063c625e9b1146102ca578063ce363ad3146102dd578063f2fde38b146102f05761016e565b806363d177e6146102575780636b845bfe1461025f5780636eee2dad146102725780636ef817e314610285578063715018a61461028d5780637fa8c158146102955761016e565b806333c77a6d1161012b57806333c77a6d146101fc5780633af32abf146102045780633b6e750f1461022457806351dd3164146102375780635bf5d54c1461023f5780635c975abb146102475780635ee6509a1461024f5761016e565b80630a3b0a4f146101735780631c8d7fff1461018857806324efa264146101a657806329092d0e146101b95780632e325020146101cc5780632f455ec7146101f4575b600080fd5b6101866101813660046128a6565b610303565b005b610190610397565b60405161019d91906130ac565b60405180910390f35b6101866101b43660046128ed565b6103d3565b6101866101c73660046128a6565b6104f6565b6101df6101da3660046129bc565b61057e565b60405161019d99989796959493929190612b5a565b6101906106bb565b6101866106c1565b6102176102123660046128a6565b61072f565b60405161019d9190612b4f565b6102176102323660046128a6565b610751565b6101906107c7565b610190610803565b610217610809565b610186610812565b61018661094c565b61018661026d3660046128ed565b6109b7565b6101866102803660046128c2565b610ad6565b610190610c2f565b610186610c6b565b610186610cf4565b6102a5610dfd565b60405161019d9190612ae4565b6102a5610e0c565b610190610e1b565b610190610e4d565b6101866102d83660046129ec565b610ece565b6101866102eb366004612a1b565b611143565b6101866102fe3660046128a6565b611198565b61030b611258565b6001600160a01b031661031c610e0c565b6001600160a01b03161461034b5760405162461bcd60e51b815260040161034290612e45565b60405180910390fd5b6001600160a01b038116600081815260036020526040808220805460ff19166001179055517fa850ae9193f515cbae8d35e8925bd2be26627fc91bce650b8652ed254e9cab039190a250565b60006002600154815481106103bc57634e487b7160e01b600052603260045260246000fd5b906000526020600020906008020160050154905090565b6103db611258565b6001600160a01b03166103ec610e0c565b6001600160a01b0316146104125760405162461bcd60e51b815260040161034290612e45565b60005b81518110156104f25760016003600084848151811061044457634e487b7160e01b600052603260045260246000fd5b60200260200101516001600160a01b03166001600160a01b0316815260200190815260200160002060006101000a81548160ff0219169083151502179055508181815181106104a357634e487b7160e01b600052603260045260246000fd5b60200260200101516001600160a01b03167fa850ae9193f515cbae8d35e8925bd2be26627fc91bce650b8652ed254e9cab0360405160405180910390a2806104ea81613171565b915050610415565b5050565b6104fe611258565b6001600160a01b031661050f610e0c565b6001600160a01b0316146105355760405162461bcd60e51b815260040161034290612e45565b6001600160a01b038116600081815260036020526040808220805460ff19169055517fcdd2e9b91a56913d370075169cefa1602ba36be5301664f752192bb1709df7579190a250565b6060600080600080600080600080600060028b815481106105af57634e487b7160e01b600052603260045260246000fd5b906000526020600020906008020190508060010180546105ce90613136565b80601f01602080910402602001604051908101604052809291908181526020018280546105fa90613136565b80156106475780601f1061061c57610100808354040283529160200191610647565b820191906000526020600020905b81548152906001019060200180831161062a57829003601f168201915b5050505050995080600201549850806003015497508060040154965080600501549550806006015494508060070160009054906101000a900460ff1693508060070160019054906101000a900460ff1692508060070160029054906101000a900460ff169150509193959799909294969850565b60025490565b6106c9611258565b6001600160a01b03166106da610e0c565b6001600160a01b0316146107005760405162461bcd60e51b815260040161034290612e45565b610708610809565b156107255760405162461bcd60e51b815260040161034290612dea565b61072d61125c565b565b6001600160a01b03811660009081526003602052604090205460ff165b919050565b6006546000906001600160a01b038381169116148061078257506004546001600160a01b0383811661010090920416145b8061079a57506005546001600160a01b038381169116145b806107b257506007546001600160a01b038381169116145b156107bf5750600161074c565b50600061074c565b60006002600154815481106107ec57634e487b7160e01b600052603260045260246000fd5b906000526020600020906008020160030154905090565b60015481565b60045460ff1690565b61081a611258565b6001600160a01b031661082b610e0c565b6001600160a01b0316146108515760405162461bcd60e51b815260040161034290612e45565b6001805461085e916112ce565b6108666106bb565b116108835760405162461bcd60e51b815260040161034290612eef565b61088e6001546112e1565b6108ab6108a6600180546112ce90919063ffffffff16565b611384565b60006002600154815481106108d057634e487b7160e01b600052603260045260246000fd5b90600052602060002090600802016002015490506108ec611461565b60006108f782612199565b905060026001548154811061091c57634e487b7160e01b600052603260045260246000fd5b90600052602060002090600802016002015481146104f25760405162461bcd60e51b815260040161034290612d11565b610954611258565b6001600160a01b0316610965610e0c565b6001600160a01b03161461098b5760405162461bcd60e51b815260040161034290612e45565b610993610809565b6109af5760405162461bcd60e51b815260040161034290612c36565b61072d612284565b6109bf611258565b6001600160a01b03166109d0610e0c565b6001600160a01b0316146109f65760405162461bcd60e51b815260040161034290612e45565b60005b81518110156104f257600060036000848481518110610a2857634e487b7160e01b600052603260045260246000fd5b60200260200101516001600160a01b03166001600160a01b0316815260200190815260200160002060006101000a81548160ff021916908315150217905550818181518110610a8757634e487b7160e01b600052603260045260246000fd5b60200260200101516001600160a01b03167fcdd2e9b91a56913d370075169cefa1602ba36be5301664f752192bb1709df75760405160405180910390a280610ace81613171565b9150506109f9565b610ade611258565b6001600160a01b0316610aef610e0c565b6001600160a01b031614610b155760405162461bcd60e51b815260040161034290612e45565b610b1e81612199565b5060085460405163095ea7b360e01b81526001600160a01b039091169063095ea7b390610b519030908590600401612b36565b602060405180830381600087803b158015610b6b57600080fd5b505af1158015610b7f573d6000803e3d6000fd5b505050506040513d601f19601f82011682018060405250810190610ba391906129a0565b506008546040516323b872dd60e01b81526001600160a01b03909116906323b872dd90610bd890309086908690600401612b12565b602060405180830381600087803b158015610bf257600080fd5b505af1158015610c06573d6000803e3d6000fd5b505050506040513d601f19601f82011682018060405250810190610c2a91906129a0565b505050565b6000600260015481548110610c5457634e487b7160e01b600052603260045260246000fd5b906000526020600020906008020160040154905090565b610c73611258565b6001600160a01b0316610c84610e0c565b6001600160a01b031614610caa5760405162461bcd60e51b815260040161034290612e45565b600080546040516001600160a01b03909116907f8be0079c531659141344cd1fd0a4f28419497f9722a3daafe3b4186f6b6457e0908390a3600080546001600160a01b0319169055565b610cfc611258565b6001600160a01b0316610d0d610e0c565b6001600160a01b031614610d335760405162461bcd60e51b815260040161034290612e45565b610d3b6106bb565b610d575760405162461bcd60e51b815260040161034290612c9f565b600260015481548110610d7a57634e487b7160e01b600052603260045260246000fd5b600091825260209091206007600890920201015460ff16151560011415610db35760405162461bcd60e51b815260040161034290612e14565b610dbd6000611384565b610dfa600260015481548110610de357634e487b7160e01b600052603260045260246000fd5b906000526020600020906008020160020154612199565b50565b6008546001600160a01b031681565b6000546001600160a01b031690565b6000610e48670de0b6b3a7640000610e42610e34610397565b610e3c610e4d565b906122db565b906122e7565b905090565b6008546040516370a0823160e01b81526000916001600160a01b0316906370a0823190610e7e903090600401612ae4565b60206040518083038186803b158015610e9657600080fd5b505afa158015610eaa573d6000803e3d6000fd5b505050506040513d601f19601f82011682018060405250810190610e4891906129d4565b610ed6610809565b15610ef35760405162461bcd60e51b815260040161034290612dea565b600260015481548110610f1657634e487b7160e01b600052603260045260246000fd5b600091825260209091206007600890920201015460ff161515600114610f4e5760405162461bcd60e51b815260040161034290612dbd565b8181610f5981610751565b1515600114610f7a5760405162461bcd60e51b815260040161034290612ff9565b600260015481548110610f9d57634e487b7160e01b600052603260045260246000fd5b9060005260206000209060080201600301548210158015610ff25750600260015481548110610fdc57634e487b7160e01b600052603260045260246000fd5b9060005260206000209060080201600401548211155b61100e5760405162461bcd60e51b815260040161034290612c07565b60026001548154811061103157634e487b7160e01b600052603260045260246000fd5b906000526020600020906008020160070160029054906101000a900460ff161515600115151415611086576110653361072f565b15156001146110865760405162461bcd60e51b815260040161034290613042565b6110918433856122f3565b6008546040516370a0823160e01b81526001600160a01b03909116906370a08231906110c1903090600401612ae4565b60206040518083038186803b1580156110d957600080fd5b505afa1580156110ed573d6000803e3d6000fd5b505050506040513d601f19601f8201168201806040525081019061111191906129d4565b61113d5760026001548154811061113857634e487b7160e01b600052603260045260246000fd5b506000525b50505050565b61114b611258565b6001600160a01b031661115c610e0c565b6001600160a01b0316146111825760405162461bcd60e51b815260040161034290612e45565b6111908686868686866126b7565b505050505050565b6111a0611258565b6001600160a01b03166111b1610e0c565b6001600160a01b0316146111d75760405162461bcd60e51b815260040161034290612e45565b6001600160a01b0381166111fd5760405162461bcd60e51b815260040161034290612ccb565b600080546040516001600160a01b03808516939216917f8be0079c531659141344cd1fd0a4f28419497f9722a3daafe3b4186f6b6457e091a3600080546001600160a01b0319166001600160a01b0392909216919091179055565b3390565b611264610809565b156112815760405162461bcd60e51b815260040161034290612dea565b6004805460ff191660011790557f62e78cea01bee320cd4e420270b5ea74000d11b0c9f74754ebdbfc544b05a2586112b7611258565b6040516112c49190612ae4565b60405180910390a1565b60006112da82846130df565b9392505050565b60026001548154811061130457634e487b7160e01b600052603260045260246000fd5b600091825260209091206007600890920201015460ff16151560011461133c5760405162461bcd60e51b815260040161034290612dbd565b60006002828154811061135f57634e487b7160e01b600052603260045260246000fd5b60009182526020909120600890910201600701805460ff191691151591909117905550565b600281815481106113a557634e487b7160e01b600052603260045260246000fd5b600091825260209091206007600890920201015460ff161515600114156113de5760405162461bcd60e51b815260040161034290612fce565b60016002828154811061140157634e487b7160e01b600052603260045260246000fd5b906000526020600020906008020160070160006101000a81548160ff0219169083151502179055506002818154811061144a57634e487b7160e01b600052603260045260246000fd5b600091825260209091206008909102015460015550565b6008546040516370a0823160e01b81526001600160a01b039091169063095ea7b390309083906370a082319061149b908490600401612ae4565b60206040518083038186803b1580156114b357600080fd5b505afa1580156114c7573d6000803e3d6000fd5b505050506040513d601f19601f820116820180604052508101906114eb91906129d4565b6040518363ffffffff1660e01b8152600401611508929190612b36565b602060405180830381600087803b15801561152257600080fd5b505af1158015611536573d6000803e3d6000fd5b505050506040513d601f19601f8201168201806040525081019061155a91906129a0565b506006546040516370a0823160e01b81526001600160a01b039091169063095ea7b390309083906370a0823190611595908490600401612ae4565b60206040518083038186803b1580156115ad57600080fd5b505afa1580156115c1573d6000803e3d6000fd5b505050506040513d601f19601f820116820180604052508101906115e591906129d4565b6040518363ffffffff1660e01b8152600401611602929190612b36565b602060405180830381600087803b15801561161c57600080fd5b505af1158015611630573d6000803e3d6000fd5b505050506040513d601f19601f8201168201806040525081019061165491906129a0565b50600480546040516370a0823160e01b81526101009091046001600160a01b03169163095ea7b391309184916370a082319161169291859101612ae4565b60206040518083038186803b1580156116aa57600080fd5b505afa1580156116be573d6000803e3d6000fd5b505050506040513d601f19601f820116820180604052508101906116e291906129d4565b6040518363ffffffff1660e01b81526004016116ff929190612b36565b602060405180830381600087803b15801561171957600080fd5b505af115801561172d573d6000803e3d6000fd5b505050506040513d601f19601f8201168201806040525081019061175191906129a0565b506005546040516370a0823160e01b81526001600160a01b039091169063095ea7b390309083906370a082319061178c908490600401612ae4565b60206040518083038186803b1580156117a457600080fd5b505afa1580156117b8573d6000803e3d6000fd5b505050506040513d601f19601f820116820180604052508101906117dc91906129d4565b6040518363ffffffff1660e01b81526004016117f9929190612b36565b602060405180830381600087803b15801561181357600080fd5b505af1158015611827573d6000803e3d6000fd5b505050506040513d601f19601f8201168201806040525081019061184b91906129a0565b506007546040516370a0823160e01b81526001600160a01b039091169063095ea7b390309083906370a0823190611886908490600401612ae4565b60206040518083038186803b15801561189e57600080fd5b505afa1580156118b2573d6000803e3d6000fd5b505050506040513d601f19601f820116820180604052508101906118d691906129d4565b6040518363ffffffff1660e01b81526004016118f3929190612b36565b602060405180830381600087803b15801561190d57600080fd5b505af1158015611921573d6000803e3d6000fd5b505050506040513d601f19601f8201168201806040525081019061194591906129a0565b506008546001600160a01b03166323b872dd30611960610e0c565b6008546040516370a0823160e01b81526001600160a01b03909116906370a0823190611990903090600401612ae4565b60206040518083038186803b1580156119a857600080fd5b505afa1580156119bc573d6000803e3d6000fd5b505050506040513d601f19601f820116820180604052508101906119e091906129d4565b6040518463ffffffff1660e01b81526004016119fe93929190612b12565b602060405180830381600087803b158015611a1857600080fd5b505af1158015611a2c573d6000803e3d6000fd5b505050506040513d601f19601f82011682018060405250810190611a5091906129a0565b506006546001600160a01b03166323b872dd30611a6b610e0c565b6006546040516370a0823160e01b81526001600160a01b03909116906370a0823190611a9b903090600401612ae4565b60206040518083038186803b158015611ab357600080fd5b505afa158015611ac7573d6000803e3d6000fd5b505050506040513d601f19601f82011682018060405250810190611aeb91906129d4565b6040518463ffffffff1660e01b8152600401611b0993929190612b12565b602060405180830381600087803b158015611b2357600080fd5b505af1158015611b37573d6000803e3d6000fd5b505050506040513d601f19601f82011682018060405250810190611b5b91906129a0565b5060045461010090046001600160a01b03166323b872dd30611b7b610e0c565b600480546040516370a0823160e01b81526101009091046001600160a01b0316916370a0823191611bae91309101612ae4565b60206040518083038186803b158015611bc657600080fd5b505afa158015611bda573d6000803e3d6000fd5b505050506040513d601f19601f82011682018060405250810190611bfe91906129d4565b6040518463ffffffff1660e01b8152600401611c1c93929190612b12565b602060405180830381600087803b158015611c3657600080fd5b505af1158015611c4a573d6000803e3d6000fd5b505050506040513d601f19601f82011682018060405250810190611c6e91906129a0565b506005546001600160a01b03166323b872dd30611c89610e0c565b6005546040516370a0823160e01b81526001600160a01b03909116906370a0823190611cb9903090600401612ae4565b60206040518083038186803b158015611cd157600080fd5b505afa158015611ce5573d6000803e3d6000fd5b505050506040513d601f19601f82011682018060405250810190611d0991906129d4565b6040518463ffffffff1660e01b8152600401611d2793929190612b12565b602060405180830381600087803b158015611d4157600080fd5b505af1158015611d55573d6000803e3d6000fd5b505050506040513d601f19601f82011682018060405250810190611d7991906129a0565b506007546001600160a01b03166323b872dd30611d94610e0c565b6007546040516370a0823160e01b81526001600160a01b03909116906370a0823190611dc4903090600401612ae4565b60206040518083038186803b158015611ddc57600080fd5b505afa158015611df0573d6000803e3d6000fd5b505050506040513d601f19601f82011682018060405250810190611e1491906129d4565b6040518463ffffffff1660e01b8152600401611e3293929190612b12565b602060405180830381600087803b158015611e4c57600080fd5b505af1158015611e60573d6000803e3d6000fd5b505050506040513d601f19601f82011682018060405250810190611e8491906129a0565b506008546040516370a0823160e01b81526001600160a01b03909116906370a0823190611eb5903090600401612ae4565b60206040518083038186803b158015611ecd57600080fd5b505afa158015611ee1573d6000803e3d6000fd5b505050506040513d601f19601f82011682018060405250810190611f0591906129d4565b15611f225760405162461bcd60e51b815260040161034290612d5e565b6006546040516370a0823160e01b81526001600160a01b03909116906370a0823190611f52903090600401612ae4565b60206040518083038186803b158015611f6a57600080fd5b505afa158015611f7e573d6000803e3d6000fd5b505050506040513d601f19601f82011682018060405250810190611fa291906129d4565b15611fbf5760405162461bcd60e51b815260040161034290612e7a565b600480546040516370a0823160e01b81526101009091046001600160a01b0316916370a0823191611ff291309101612ae4565b60206040518083038186803b15801561200a57600080fd5b505afa15801561201e573d6000803e3d6000fd5b505050506040513d601f19601f8201168201806040525081019061204291906129d4565b1561205f5760405162461bcd60e51b815260040161034290612eb4565b6005546040516370a0823160e01b81526001600160a01b03909116906370a082319061208f903090600401612ae4565b60206040518083038186803b1580156120a757600080fd5b505afa1580156120bb573d6000803e3d6000fd5b505050506040513d601f19601f820116820180604052508101906120df91906129d4565b156120fc5760405162461bcd60e51b815260040161034290612c64565b6007546040516370a0823160e01b81526001600160a01b03909116906370a082319061212c903090600401612ae4565b60206040518083038186803b15801561214457600080fd5b505afa158015612158573d6000803e3d6000fd5b505050506040513d601f19601f8201168201806040525081019061217c91906129d4565b1561072d5760405162461bcd60e51b815260040161034290612f4d565b6008546040516340c10f1960e01b81526000916001600160a01b0316906340c10f19906121cc9030908690600401612b36565b600060405180830381600087803b1580156121e657600080fd5b505af11580156121fa573d6000803e3d6000fd5b50506008546040516370a0823160e01b81526001600160a01b0390911692506370a08231915061222e903090600401612ae4565b60206040518083038186803b15801561224657600080fd5b505afa15801561225a573d6000803e3d6000fd5b505050506040513d601f19601f8201168201806040525081019061227e91906129d4565b92915050565b61228c610809565b6122a85760405162461bcd60e51b815260040161034290612c36565b6004805460ff191690557f5db9ee0a495bf2e6ff9c91a7834c1ba4fdd244a5e8aa4e537bd38aeae4b073aa6112b7611258565b60006112da8284613117565b60006112da82846130f7565b604051636eb1769f60e11b815283906001600160a01b0383169063dd62ed3e906123239086903090600401612af8565b60206040518083038186803b15801561233b57600080fd5b505afa15801561234f573d6000803e3d6000fd5b505050506040513d601f19601f8201168201806040525081019061237391906129d4565b10156123915760405162461bcd60e51b815260040161034290613079565b6040516323b872dd60e01b81526001600160a01b038216906323b872dd906123c190859030908890600401612b12565b602060405180830381600087803b1580156123db57600080fd5b505af11580156123ef573d6000803e3d6000fd5b505050506040513d601f19601f8201168201806040525081019061241391906129a0565b506000612469670de0b6b3a7640000610e428660026001548154811061244957634e487b7160e01b600052603260045260246000fd5b9060005260206000209060080201600501546122db90919063ffffffff16565b9050806124885760405162461bcd60e51b815260040161034290612d99565b6008546040516370a0823160e01b815282916001600160a01b0316906370a08231906124b8903090600401612ae4565b60206040518083038186803b1580156124d057600080fd5b505afa1580156124e4573d6000803e3d6000fd5b505050506040513d601f19601f8201168201806040525081019061250891906129d4565b10156125265760405162461bcd60e51b815260040161034290612f88565b60085460405163095ea7b360e01b81526001600160a01b039091169063095ea7b3906125589030908590600401612b36565b602060405180830381600087803b15801561257257600080fd5b505af1158015612586573d6000803e3d6000fd5b505050506040513d601f19601f820116820180604052508101906125aa91906129a0565b506008546040516323b872dd60e01b81526001600160a01b03909116906323b872dd906125df90309087908690600401612b12565b602060405180830381600087803b1580156125f957600080fd5b505af115801561260d573d6000803e3d6000fd5b505050506040513d601f19601f8201168201806040525081019061263191906129a0565b506126798160026001548154811061265957634e487b7160e01b600052603260045260246000fd5b9060005260206000209060080201600601546112ce90919063ffffffff16565b60026001548154811061269c57634e487b7160e01b600052603260045260246000fd5b90600052602060002090600802016006018190555050505050565b60408051610140810182526002805480835260208084018781529484018b9052606084018a90526080840189905260a08401889052600060c0850181905260e0850181905261010085018190528615156101208601526001830184559290925282517f405787fa12a823e0f2b7631cc41b3ba8828b3321ca811111fa75cd3aa3bb5ace60089092029182019081559351805193948594909361277d937f405787fa12a823e0f2b7631cc41b3ba8828b3321ca811111fa75cd3aa3bb5acf01920190612802565b5060408201516002820155606082015160038201556080820151600482015560a0820151600582015560c0820151600682015560e08201516007909101805461010080850151610120909501511515620100000262ff00001995151590910261ff001994151560ff199093169290921793909316179290921617905550505050505050565b82805461280e90613136565b90600052602060002090601f0160209004810192826128305760008555612876565b82601f1061284957805160ff1916838001178555612876565b82800160010185558215612876579182015b8281111561287657825182559160200191906001019061285b565b50612882929150612886565b5090565b5b808211156128825760008155600101612887565b803561074c816131cd565b6000602082840312156128b7578081fd5b81356112da816131b8565b600080604083850312156128d4578081fd5b82356128df816131b8565b946020939093013593505050565b600060208083850312156128ff578182fd5b823567ffffffffffffffff80821115612916578384fd5b818501915085601f830112612929578384fd5b81358181111561293b5761293b6131a2565b838102915061294b8483016130b5565b8181528481019084860184860187018a1015612965578788fd5b8795505b83861015612993578035945061297e856131b8565b84835260019590950194918601918601612969565b5098975050505050505050565b6000602082840312156129b1578081fd5b81516112da816131cd565b6000602082840312156129cd578081fd5b5035919050565b6000602082840312156129e5578081fd5b5051919050565b600080604083850312156129fe578182fd5b823591506020830135612a10816131b8565b809150509250929050565b60008060008060008060c08789031215612a33578182fd5b8635955060208088013595506040880135945060608801359350608088013567ffffffffffffffff80821115612a67578485fd5b818a0191508a601f830112612a7a578485fd5b813581811115612a8c57612a8c6131a2565b612a9e601f8201601f191685016130b5565b91508082528b84828501011115612ab3578586fd5b80848401858401378101909201939093529150612ad260a0880161289b565b90509295509295509295565b15159052565b6001600160a01b0391909116815260200190565b6001600160a01b0392831681529116602082015260400190565b6001600160a01b039384168152919092166020820152604081019190915260600190565b6001600160a01b03929092168252602082015260400190565b901515815260200190565b60006101208083528b5180828501528291505b80821015612b8f576020828e0101516101408386010152602082019150612b6d565b80821115612ba1578261014082860101525b610140601f19601f830116850101925050508960208301528860408301528760608301528660808301528560a0830152612bde60c0830186612ade565b612beb60e0830185612ade565b612bf9610100830184612ade565b9a9950505050505050505050565b6020808252601590820152744d7573742062652077697468696e206c696d69747360581b604082015260600190565b60208082526014908201527314185d5cd8589b194e881b9bdd081c185d5cd95960621b604082015260600190565b6020808252602d908201526000805160206131dc83398151915260408201526c6c205553445420746f6b656e7360981b606082015260800190565b602080825260129082015271139bc81cdd1859d95cc81d1bc81cdd185c9d60721b604082015260600190565b60208082526026908201527f4f776e61626c653a206e6577206f776e657220697320746865207a65726f206160408201526564647265737360d01b606082015260800190565b6020808252602d908201527f49434f20646964206e6f74206765742074686520636f727265637420616c6c6f60408201526c18d85d1a5bdb88185b5bdd5b9d609a1b606082015260800190565b6020808252602d908201526000805160206131dc83398151915260408201526c6c204f464c5920746f6b656e7360981b606082015260800190565b6020808252600a9082015269063616e742062757920360b41b604082015260600190565b6020808252601390820152725374616765206973206e6f742061637469766560681b604082015260600190565b60208082526010908201526f14185d5cd8589b194e881c185d5cd95960821b604082015260600190565b6020808252601790820152761250d3c81a185cc8185b1c9958591e481cdd185c9d1959604a1b604082015260600190565b6020808252818101527f4f776e61626c653a2063616c6c6572206973206e6f7420746865206f776e6572604082015260600190565b6020808252602c908201526000805160206131dc83398151915260408201526b6c2044414920746f6b656e7360a01b606082015260800190565b6020808252602d908201526000805160206131dc83398151915260408201526c6c205553444320746f6b656e7360981b606082015260800190565b602080825260409082018190527f5468697320697320746865206c61737420537461676520706c65617365206d61908201527f6b652061206e6577206f6e6520646f20746f20746869732066756e6374696f6e606082015260800190565b6020808252602d908201526000805160206131dc83398151915260408201526c6c204255534420746f6b656e7360981b606082015260800190565b60208082526026908201527f4e6f7420656e6f7567687420746f6b656e7320696e20746869732073616c6520604082015265746f2062757960d01b606082015260800190565b602080825260119082015270105b1c9958591e481858dd1a5d985d1959607a1b604082015260600190565b60208082526029908201527f4f6e6c7920444149202d2055534443202d2055534454202d2042555344206973604082015268081858d8d95c1d195960ba1b606082015260800190565b6020808252601e908201527f546869732073746167652069732077686974656c6973746564206f6e6c790000604082015260600190565b60208082526019908201527810d85b1b195c881b5d5cdd08185c1c1c9bdd9948199a5c9cdd603a1b604082015260600190565b90815260200190565b60405181810167ffffffffffffffff811182821017156130d7576130d76131a2565b604052919050565b600082198211156130f2576130f261318c565b500190565b60008261311257634e487b7160e01b81526012600452602481fd5b500490565b60008160001904831182151516156131315761313161318c565b500290565b60028104600182168061314a57607f821691505b6020821081141561316b57634e487b7160e01b600052602260045260246000fd5b50919050565b60006000198214156131855761318561318c565b5060010190565b634e487b7160e01b600052601160045260246000fd5b634e487b7160e01b600052604160045260246000fd5b6001600160a01b0381168114610dfa57600080fd5b8015158114610dfa57600080fdfe49434f20636f6e747261637420646964206e6f742073656e64206f757420616ca2646970667358221220ef67b41b1314149e18ea0d2de8fe9d4067a7d4d8f852ecb1e9d1efbf4f84fba464736f6c63430008000033",
  "immutableReferences": {},
  "source": "//SPDX-License-Identifier: MIT\npragma solidity ^0.8.0;\n\nimport \"@openzeppelin/contracts/utils/math/SafeMath.sol\";\nimport '@openzeppelin/contracts/security/Pausable.sol';\n\nimport \"@openzeppelin/contracts/token/ERC20/IERC20.sol\";\nimport \"../interfaces/IERC20Mintable.sol\";\nimport './Whitelist.sol';\n\n\ncontract ICO is Whitelist, Pausable {\n    using SafeMath for uint256;\n    \n    IERC20 internal USDC; \n    IERC20 internal USDT; \n    IERC20 internal DAI; \n    IERC20 internal BUSD; \n    IERC20Mintable public TOKEN;\n\n    /**\n     * @dev Constructor that sets up the first Stage of the ICO \n     *  \n     * @param _token OFLY token address.\n     * @param _dai Dai token address. \n     * @param _usdc USDC token address.\n     * @param _usdt USDT token address.\n     * @param _allocation Amount OFLY tokens allocated to the first stage.\n     * @param _limit The max dollar amount per address in gwei . \n     * @param _rate OFLY token rate in gwei.\n     * @param _name The name of the first Sale Stage. \n     * @param _whitelisted Require the stage to be whitelisted or not. \n     */\n    constructor(\n        IERC20Mintable _token,\n        IERC20 _dai, \n        IERC20 _usdc, \n        IERC20 _usdt,\n        IERC20 _busd,\n        uint256 _allocation,\n        uint256 _min,\n        uint256 _limit,\n        uint256 _rate,\n        string memory _name, \n        bool _whitelisted\n    )  {\n        TOKEN = _token;\n        DAI = _dai;\n        USDC = _usdc;\n        USDT = _usdt;\n        BUSD = _busd; \n        // add the first stage to the ICO.\n        addStage(_allocation, _min, _limit, _rate, _name, _whitelisted);\n    }\n    \n    function getRemainingTokens() public view returns(uint256) {\n        return TOKEN.balanceOf(address(this));\n    }\n\n    function getCurrentrate() public view returns(uint256) {\n        return Stages[currentStage].rate;\n    }\n\n    function getCurrentMinimum() public view returns(uint256) {\n        return Stages[currentStage].min;\n    }\n\n    function getCurrentLimit() public view returns(uint256) {\n        return Stages[currentStage].limit;\n    }\n\n    function getLeftOverInputAmount() public view returns(uint256) {\n        return getRemainingTokens().mul(getCurrentrate()).div(10**18);\n    }\n\n\n    function getTotalStages() public view returns (uint256) {\n        return Stages.length;\n    }\n\n    /**\n     * @dev Starts the ICO and kicks of the first Sale Stage.  \n     */\n    function startICO() public onlyOwner {\n        // make shure the first current stage hasnt been activated \n        require(getTotalStages() != 0, 'No stages to start');\n        require(Stages[currentStage].active != true, 'ICO has already started');\n        // activate the first stage \n        activateStage(0);\n        // mint the OFLY tokens \n        mintAllocation(Stages[currentStage].allocation);\n        // ICO is now open for the first sale stage. \n    }\n    \n    /**\n     * @dev Pauses the ICO so no one will be able to buy tokens.  \n     */\n    function pauseICO() public onlyOwner whenNotPaused {\n        _pause();\n    }\n\n     /**\n     * @dev unpauses the ICO so its open to investors again. \n     */\n    function unpauseICO() public onlyOwner whenPaused {\n        _unpause();\n    }\n\n    /**\n     * @dev Starts the NEXT Sale Stage of the ICO.  \n     */\n    function startNextStage() public onlyOwner {\n        // check if we arent in the last stage. In that cause we cant start a new one. \n        require(getTotalStages() > currentStage.add(1),'This is the last Stage please make a new one do to this function');\n        // internal function will make shure the goal has been met off the previous stage and the next stage isnt already active.\n        deactivateStage(currentStage); \n        activateStage(currentStage.add(1)); // sets the current stage to the new one\n\n        uint256 all = Stages[currentStage].allocation;\n        // send all the leftover tokens to the owner\n        sweep();\n        // mint the OFLY tokens \n        uint256 newAllocation = mintAllocation(all);\n        require(newAllocation == Stages[currentStage].allocation, 'ICO did not get the correct allocation amount');\n    }\n\n    /**\n     * @dev Lets the admin add a new stage to the ICO. \n     * \n     * @param _allocation The allocation (amount of OFLY tokens).\n     * @param _limit The max USD limit in gwei a user can buy.\n     * @param _rate Amount of OFLY tokens returned for 1 unit of DAI/USDC/USDT.\n     * @param _name The name of the sale Stage.\n     * @param _whitelisted If the stage is whitelisted or not. \n     */\n    function setNewStage(\n        uint256 _allocation, \n        uint256 _min,\n        uint256 _limit, \n        uint256 _rate, \n        string memory _name, \n        bool _whitelisted\n    ) public onlyOwner {\n\n        // init the stage \n        addStage(_allocation, _min, _limit, _rate, _name, _whitelisted);\n\n    }\n\n    /**\n     * @dev Lets investors buy ICO tokens with the accepted tokens\n     *  \n     * @param _inputamount Amount of stablecoins invested.\n     * @param _paytoken The token in wich the user wants to pay. \n     */\n    function buyTokens(\n        uint256 _inputamount, \n        IERC20 _paytoken\n    ) public \n        whenNotPaused\n        onlyActive\n        isWhitinLimitsAndAccepted(_inputamount, _paytoken)\n    {  \n        if(Stages[currentStage].whitelisted == true) {\n            require(isWhitelisted(msg.sender) == true, 'This stage is whitelisted only');\n        }\n        \n        handlePayment(_inputamount, msg.sender, _paytoken);\n        if(TOKEN.balanceOf(address(this)) == 0) {\n            Stages[currentStage].goalReached == true; \n        }\n\n    } \n\n    function mintRewardTokens(address farmAddress, uint256 amount) public onlyOwner {\n        mintAllocation(amount);\n        TOKEN.approve(address(this), amount );\n        TOKEN.transferFrom(address(this),farmAddress, amount);\n    }\n\n    \n    /**\n     * @dev Internal function that handles the payment and sends tokens to the caller. \n     *  \n     * @param _amount Amount of OFLY tokens to be minted.\n     */\n\n    function handlePayment(uint256 _amount, address _caller, IERC20 _paytoken) internal {\n        // set up local amount variable and handle the amount if the paytoken is usdc or usdc\n      \n        // we check if the user has approved the contract to spend the tokens\n        require(_paytoken.allowance(_caller, address(this)) >= _amount, 'Caller must approve first');\n        // grab the tokens from msg.sender.\n        _paytoken.transferFrom(_caller, address(this), _amount);\n       \n        // calculate the amount to send\n        uint tokensBought = Stages[currentStage].rate.mul(_amount).div(10**18);\n        require(tokensBought != 0, 'cant buy 0');\n        require(TOKEN.balanceOf(address(this)) >= tokensBought, 'Not enought tokens in this sale to buy');\n        // send the tokens to the investor;\n        TOKEN.approve(address(this), tokensBought);\n        TOKEN.transferFrom(address(this), _caller, tokensBought);\n\n        // update the buyer info \n        Stages[currentStage].amountSold = Stages[currentStage].amountSold.add(tokensBought);\n    }\n\n    /**\n     * @dev Internal function to mint the required OFLY tokens to the contract\n     *  \n     * @param amount Amount of OFLY tokens to be minted.\n     */\n    function mintAllocation(uint256 amount) internal returns(uint256){\n        // mint the allocation for this stage to the contract \n        TOKEN.mint(address(this), amount);\n\n        // make shure we have the tokens in the contract \n        return TOKEN.balanceOf(address(this));\n    }\n\n    /**\n     * @dev Internal function to sweep the contract clean to start a new stage.\n     *  \n     */\n    function sweep() internal {\n        // transfer remaining tokens to the owner. \n        TOKEN.approve(address(this), TOKEN.balanceOf(address(this)) );\n        DAI.approve(address(this),DAI.balanceOf(address(this)) );\n        USDC.approve(address(this),USDC.balanceOf(address(this)) );\n        USDT.approve(address(this), USDT.balanceOf(address(this)) );\n        BUSD.approve(address(this), BUSD.balanceOf(address(this)) );\n        TOKEN.transferFrom(address(this), owner(), TOKEN.balanceOf(address(this)));\n        DAI.transferFrom(address(this), owner(), DAI.balanceOf(address(this)));\n        USDC.transferFrom(address(this), owner(), USDC.balanceOf(address(this)));\n        USDT.transferFrom(address(this), owner(), USDT.balanceOf(address(this)));\n        BUSD.transferFrom(address(this), owner(), BUSD.balanceOf(address(this)));\n        require(TOKEN.balanceOf(address(this)) == 0, 'ICO contract did not send out all OFLY tokens');\n        require(DAI.balanceOf(address(this)) == 0, 'ICO contract did not send out all DAI tokens');\n        require(USDC.balanceOf(address(this)) == 0, 'ICO contract did not send out all USDC tokens');\n        require(USDT.balanceOf(address(this)) == 0, 'ICO contract did not send out all USDT tokens');\n        require(BUSD.balanceOf(address(this)) == 0, 'ICO contract did not send out all BUSD tokens');\n    }\n\n    function isAcceptedToken(IERC20 _token) public view returns(bool) {\n        if (_token == DAI || _token == USDC || _token == USDT || _token == BUSD) {\n            return true; \n        } else {\n            return false;\n        }\n    }\n    /**\n     * @dev Modifier to make shure we only accept the listed Stablecoins as payment. \n     *  \n     * @param _token the payment token. \n     */\n    modifier isWhitinLimitsAndAccepted(uint256 _amount, IERC20 _token) {\n        require(isAcceptedToken(_token) == true, 'Only DAI - USDC - USDT - BUSD is accepted');\n        require(_amount >= Stages[currentStage].min && _amount <= Stages[currentStage].limit, 'Must be within limits');\n        _;\n        \n    }\n    \n  \n    \n}",
  "sourcePath": "/Users/lexcalebout/Desktop/Dev-Projects/test-deploy/oflights.ico/packages/contracts/contracts/ico/ICO.sol",
  "compiler": {
    "name": "solc",
    "version": "0.8.0+commit.c7dfd78e.Emscripten.clang"
  },
  "schemaVersion": "3.3.4",
  "updatedAt": "2021-06-04T08:49:28.091Z",
  "networkType": "ethereum",
  "devdoc": {
    "kind": "dev",
    "methods": {
      "add(address)": {
        "details": "Adds a new address to the whitelist.",
        "params": {
          "_address": "The address to be whitelisted. "
        }
      },
      "addBatch(address[])": {
        "details": "Adds a new address to the whitelist.",
        "params": {
          "_addresses": "Array of addresses to be whitelisted. "
        }
      },
      "buyTokens(uint256,address)": {
        "details": "Lets investors buy ICO tokens with the accepted tokens  ",
        "params": {
          "_inputamount": "Amount of stablecoins invested.",
          "_paytoken": "The token in wich the user wants to pay. "
        }
      },
      "constructor": {
        "details": "Constructor that sets up the first Stage of the ICO   ",
        "params": {
          "_allocation": "Amount OFLY tokens allocated to the first stage.",
          "_dai": "Dai token address. ",
          "_limit": "The max dollar amount per address in gwei . ",
          "_name": "The name of the first Sale Stage. ",
          "_rate": "OFLY token rate in gwei.",
          "_token": "OFLY token address.",
          "_usdc": "USDC token address.",
          "_usdt": "USDT token address.",
          "_whitelisted": "Require the stage to be whitelisted or not. "
        }
      },
      "getStage(uint256)": {
        "params": {
          "_stage": "The ID of the stage.",
          "active": "Indicates if the stage is active.",
          "allocation": "The allocation (amount of OFLY tokens).",
          "goalReached": "If all of the tokens are sold. ",
          "limit": "The max USD limit in gwei a user can buy.",
          "name": "The name of the sale Stage.",
          "rate": "Amount of OFLY tokens returned for 1 unit of DAI/USDC/USDT.",
          "whitelisted": "If the stage is whitelisted or not. "
        }
      },
      "isWhitelisted(address)": {
        "details": "Getter to check if address is whitelisted.",
        "params": {
          "_address": "The address to check. "
        }
      },
      "owner()": {
        "details": "Returns the address of the current owner."
      },
      "pauseICO()": {
        "details": "Pauses the ICO so no one will be able to buy tokens.  "
      },
      "paused()": {
        "details": "Returns true if the contract is paused, and false otherwise."
      },
      "remove(address)": {
        "details": "Removes a address from the whitelist.",
        "params": {
          "_address": "The address to remove. "
        }
      },
      "removeBatch(address[])": {
        "details": "Removes a address from the whitelist.",
        "params": {
          "_addresses": "Array of addresses to be whitelisted. "
        }
      },
      "renounceOwnership()": {
        "details": "Leaves the contract without owner. It will not be possible to call `onlyOwner` functions anymore. Can only be called by the current owner. NOTE: Renouncing ownership will leave the contract without an owner, thereby removing any functionality that is only available to the owner."
      },
      "setNewStage(uint256,uint256,uint256,uint256,string,bool)": {
        "details": "Lets the admin add a new stage to the ICO.  ",
        "params": {
          "_allocation": "The allocation (amount of OFLY tokens).",
          "_limit": "The max USD limit in gwei a user can buy.",
          "_name": "The name of the sale Stage.",
          "_rate": "Amount of OFLY tokens returned for 1 unit of DAI/USDC/USDT.",
          "_whitelisted": "If the stage is whitelisted or not. "
        }
      },
      "startICO()": {
        "details": "Starts the ICO and kicks of the first Sale Stage.  "
      },
      "startNextStage()": {
        "details": "Starts the NEXT Sale Stage of the ICO.  "
      },
      "transferOwnership(address)": {
        "details": "Transfers ownership of the contract to a new account (`newOwner`). Can only be called by the current owner."
      },
      "unpauseICO()": {
        "details": "unpauses the ICO so its open to investors again. "
      }
    },
    "version": 1
  },
  "userdoc": {
    "kind": "user",
    "methods": {
      "getStage(uint256)": {
        "notice": "Returns all the relevant information about a specific stage."
      }
    },
    "version": 1
  }
}