{
  "contractName": "OFlightsToken",
  "abi": [
    {
      "inputs": [],
      "stateMutability": "nonpayable",
      "type": "constructor"
    },
    {
      "anonymous": false,
      "inputs": [
        {
          "indexed": true,
          "internalType": "address",
          "name": "owner",
          "type": "address"
        },
        {
          "indexed": true,
          "internalType": "address",
          "name": "spender",
          "type": "address"
        },
        {
          "indexed": false,
          "internalType": "uint256",
          "name": "value",
          "type": "uint256"
        }
      ],
      "name": "Approval",
      "type": "event"
    },
    {
      "anonymous": false,
      "inputs": [
        {
          "indexed": false,
          "internalType": "address",
          "name": "account",
          "type": "address"
        }
      ],
      "name": "Paused",
      "type": "event"
    },
    {
      "anonymous": false,
      "inputs": [
        {
          "indexed": true,
          "internalType": "bytes32",
          "name": "role",
          "type": "bytes32"
        },
        {
          "indexed": true,
          "internalType": "bytes32",
          "name": "previousAdminRole",
          "type": "bytes32"
        },
        {
          "indexed": true,
          "internalType": "bytes32",
          "name": "newAdminRole",
          "type": "bytes32"
        }
      ],
      "name": "RoleAdminChanged",
      "type": "event"
    },
    {
      "anonymous": false,
      "inputs": [
        {
          "indexed": true,
          "internalType": "bytes32",
          "name": "role",
          "type": "bytes32"
        },
        {
          "indexed": true,
          "internalType": "address",
          "name": "account",
          "type": "address"
        },
        {
          "indexed": true,
          "internalType": "address",
          "name": "sender",
          "type": "address"
        }
      ],
      "name": "RoleGranted",
      "type": "event"
    },
    {
      "anonymous": false,
      "inputs": [
        {
          "indexed": true,
          "internalType": "bytes32",
          "name": "role",
          "type": "bytes32"
        },
        {
          "indexed": true,
          "internalType": "address",
          "name": "account",
          "type": "address"
        },
        {
          "indexed": true,
          "internalType": "address",
          "name": "sender",
          "type": "address"
        }
      ],
      "name": "RoleRevoked",
      "type": "event"
    },
    {
      "anonymous": false,
      "inputs": [
        {
          "indexed": true,
          "internalType": "address",
          "name": "from",
          "type": "address"
        },
        {
          "indexed": true,
          "internalType": "address",
          "name": "to",
          "type": "address"
        },
        {
          "indexed": false,
          "internalType": "uint256",
          "name": "value",
          "type": "uint256"
        }
      ],
      "name": "Transfer",
      "type": "event"
    },
    {
      "anonymous": false,
      "inputs": [
        {
          "indexed": false,
          "internalType": "address",
          "name": "account",
          "type": "address"
        }
      ],
      "name": "Unpaused",
      "type": "event"
    },
    {
      "inputs": [],
      "name": "BURNER_ROLE",
      "outputs": [
        {
          "internalType": "bytes32",
          "name": "",
          "type": "bytes32"
        }
      ],
      "stateMutability": "view",
      "type": "function",
      "constant": true
    },
    {
      "inputs": [],
      "name": "DEFAULT_ADMIN_ROLE",
      "outputs": [
        {
          "internalType": "bytes32",
          "name": "",
          "type": "bytes32"
        }
      ],
      "stateMutability": "view",
      "type": "function",
      "constant": true
    },
    {
      "inputs": [],
      "name": "MINTER_ROLE",
      "outputs": [
        {
          "internalType": "bytes32",
          "name": "",
          "type": "bytes32"
        }
      ],
      "stateMutability": "view",
      "type": "function",
      "constant": true
    },
    {
      "inputs": [],
      "name": "PAUSER_ROLE",
      "outputs": [
        {
          "internalType": "bytes32",
          "name": "",
          "type": "bytes32"
        }
      ],
      "stateMutability": "view",
      "type": "function",
      "constant": true
    },
    {
      "inputs": [
        {
          "internalType": "address",
          "name": "owner",
          "type": "address"
        },
        {
          "internalType": "address",
          "name": "spender",
          "type": "address"
        }
      ],
      "name": "allowance",
      "outputs": [
        {
          "internalType": "uint256",
          "name": "",
          "type": "uint256"
        }
      ],
      "stateMutability": "view",
      "type": "function",
      "constant": true
    },
    {
      "inputs": [
        {
          "internalType": "address",
          "name": "spender",
          "type": "address"
        },
        {
          "internalType": "uint256",
          "name": "amount",
          "type": "uint256"
        }
      ],
      "name": "approve",
      "outputs": [
        {
          "internalType": "bool",
          "name": "",
          "type": "bool"
        }
      ],
      "stateMutability": "nonpayable",
      "type": "function"
    },
    {
      "inputs": [
        {
          "internalType": "address",
          "name": "account",
          "type": "address"
        }
      ],
      "name": "balanceOf",
      "outputs": [
        {
          "internalType": "uint256",
          "name": "",
          "type": "uint256"
        }
      ],
      "stateMutability": "view",
      "type": "function",
      "constant": true
    },
    {
      "inputs": [
        {
          "internalType": "address",
          "name": "account",
          "type": "address"
        },
        {
          "internalType": "uint256",
          "name": "amount",
          "type": "uint256"
        }
      ],
      "name": "burnFrom",
      "outputs": [],
      "stateMutability": "nonpayable",
      "type": "function"
    },
    {
      "inputs": [],
      "name": "decimals",
      "outputs": [
        {
          "internalType": "uint8",
          "name": "",
          "type": "uint8"
        }
      ],
      "stateMutability": "view",
      "type": "function",
      "constant": true
    },
    {
      "inputs": [
        {
          "internalType": "address",
          "name": "spender",
          "type": "address"
        },
        {
          "internalType": "uint256",
          "name": "subtractedValue",
          "type": "uint256"
        }
      ],
      "name": "decreaseAllowance",
      "outputs": [
        {
          "internalType": "bool",
          "name": "",
          "type": "bool"
        }
      ],
      "stateMutability": "nonpayable",
      "type": "function"
    },
    {
      "inputs": [
        {
          "internalType": "bytes32",
          "name": "role",
          "type": "bytes32"
        }
      ],
      "name": "getRoleAdmin",
      "outputs": [
        {
          "internalType": "bytes32",
          "name": "",
          "type": "bytes32"
        }
      ],
      "stateMutability": "view",
      "type": "function",
      "constant": true
    },
    {
      "inputs": [
        {
          "internalType": "bytes32",
          "name": "role",
          "type": "bytes32"
        },
        {
          "internalType": "address",
          "name": "account",
          "type": "address"
        }
      ],
      "name": "grantRole",
      "outputs": [],
      "stateMutability": "nonpayable",
      "type": "function"
    },
    {
      "inputs": [
        {
          "internalType": "bytes32",
          "name": "role",
          "type": "bytes32"
        },
        {
          "internalType": "address",
          "name": "account",
          "type": "address"
        }
      ],
      "name": "hasRole",
      "outputs": [
        {
          "internalType": "bool",
          "name": "",
          "type": "bool"
        }
      ],
      "stateMutability": "view",
      "type": "function",
      "constant": true
    },
    {
      "inputs": [
        {
          "internalType": "address",
          "name": "spender",
          "type": "address"
        },
        {
          "internalType": "uint256",
          "name": "addedValue",
          "type": "uint256"
        }
      ],
      "name": "increaseAllowance",
      "outputs": [
        {
          "internalType": "bool",
          "name": "",
          "type": "bool"
        }
      ],
      "stateMutability": "nonpayable",
      "type": "function"
    },
    {
      "inputs": [],
      "name": "name",
      "outputs": [
        {
          "internalType": "string",
          "name": "",
          "type": "string"
        }
      ],
      "stateMutability": "view",
      "type": "function",
      "constant": true
    },
    {
      "inputs": [],
      "name": "paused",
      "outputs": [
        {
          "internalType": "bool",
          "name": "",
          "type": "bool"
        }
      ],
      "stateMutability": "view",
      "type": "function",
      "constant": true
    },
    {
      "inputs": [
        {
          "internalType": "bytes32",
          "name": "role",
          "type": "bytes32"
        },
        {
          "internalType": "address",
          "name": "account",
          "type": "address"
        }
      ],
      "name": "renounceRole",
      "outputs": [],
      "stateMutability": "nonpayable",
      "type": "function"
    },
    {
      "inputs": [
        {
          "internalType": "bytes32",
          "name": "role",
          "type": "bytes32"
        },
        {
          "internalType": "address",
          "name": "account",
          "type": "address"
        }
      ],
      "name": "revokeRole",
      "outputs": [],
      "stateMutability": "nonpayable",
      "type": "function"
    },
    {
      "inputs": [
        {
          "internalType": "bytes4",
          "name": "interfaceId",
          "type": "bytes4"
        }
      ],
      "name": "supportsInterface",
      "outputs": [
        {
          "internalType": "bool",
          "name": "",
          "type": "bool"
        }
      ],
      "stateMutability": "view",
      "type": "function",
      "constant": true
    },
    {
      "inputs": [],
      "name": "symbol",
      "outputs": [
        {
          "internalType": "string",
          "name": "",
          "type": "string"
        }
      ],
      "stateMutability": "view",
      "type": "function",
      "constant": true
    },
    {
      "inputs": [],
      "name": "totalSupply",
      "outputs": [
        {
          "internalType": "uint256",
          "name": "",
          "type": "uint256"
        }
      ],
      "stateMutability": "view",
      "type": "function",
      "constant": true
    },
    {
      "inputs": [
        {
          "internalType": "address",
          "name": "recipient",
          "type": "address"
        },
        {
          "internalType": "uint256",
          "name": "amount",
          "type": "uint256"
        }
      ],
      "name": "transfer",
      "outputs": [
        {
          "internalType": "bool",
          "name": "",
          "type": "bool"
        }
      ],
      "stateMutability": "nonpayable",
      "type": "function"
    },
    {
      "inputs": [
        {
          "internalType": "address",
          "name": "sender",
          "type": "address"
        },
        {
          "internalType": "address",
          "name": "recipient",
          "type": "address"
        },
        {
          "internalType": "uint256",
          "name": "amount",
          "type": "uint256"
        }
      ],
      "name": "transferFrom",
      "outputs": [
        {
          "internalType": "bool",
          "name": "",
          "type": "bool"
        }
      ],
      "stateMutability": "nonpayable",
      "type": "function"
    },
    {
      "inputs": [],
      "name": "pause",
      "outputs": [],
      "stateMutability": "nonpayable",
      "type": "function"
    },
    {
      "inputs": [],
      "name": "unpause",
      "outputs": [],
      "stateMutability": "nonpayable",
      "type": "function"
    },
    {
      "inputs": [
        {
          "internalType": "address",
          "name": "to",
          "type": "address"
        },
        {
          "internalType": "uint256",
          "name": "amount",
          "type": "uint256"
        }
      ],
      "name": "mint",
      "outputs": [],
      "stateMutability": "nonpayable",
      "type": "function"
    },
    {
      "inputs": [
        {
          "internalType": "uint256",
          "name": "amount",
          "type": "uint256"
        }
      ],
      "name": "burn",
      "outputs": [],
      "stateMutability": "nonpayable",
      "type": "function"
    },
    {
      "inputs": [
        {
          "internalType": "address",
          "name": "from",
          "type": "address"
        },
        {
          "internalType": "uint256",
          "name": "amount",
          "type": "uint256"
        }
      ],
      "name": "burn",
      "outputs": [],
      "stateMutability": "nonpayable",
      "type": "function"
    },
    {
      "inputs": [
        {
          "internalType": "address",
          "name": "oldMinter",
          "type": "address"
        },
        {
          "internalType": "address",
          "name": "newMinter",
          "type": "address"
        }
      ],
      "name": "changeMinterRole",
      "outputs": [],
      "stateMutability": "nonpayable",
      "type": "function"
    },
    {
      "inputs": [
        {
          "internalType": "address",
          "name": "oldPauser",
          "type": "address"
        },
        {
          "internalType": "address",
          "name": "newPauser",
          "type": "address"
        }
      ],
      "name": "changePauserRole",
      "outputs": [],
      "stateMutability": "nonpayable",
      "type": "function"
    },
    {
      "inputs": [
        {
          "internalType": "address",
          "name": "oldAdmin",
          "type": "address"
        },
        {
          "internalType": "address",
          "name": "newAdmin",
          "type": "address"
        }
      ],
      "name": "changeAdminRole",
      "outputs": [],
      "stateMutability": "nonpayable",
      "type": "function"
    },
    {
      "inputs": [
        {
          "internalType": "address",
          "name": "ico",
          "type": "address"
        },
        {
          "internalType": "address",
          "name": "masterchef",
          "type": "address"
        }
      ],
      "name": "setTestingRoles",
      "outputs": [],
      "stateMutability": "nonpayable",
      "type": "function"
    }
  ],
  "bytecode": "0x60806040523480156200001157600080fd5b5060408051808201825260098152684f2e466c696768747360b81b6020808301918252835180850190945260048452634f464c5960e01b9084015281519192916200005f9160039162000160565b5080516200007590600490602084019062000160565b50506005805460ff19169055506200008f60003362000095565b62000243565b620000a18282620000a5565b5050565b620000b1828262000131565b620000a15760008281526006602090815260408083206001600160a01b03851684529091529020805460ff19166001179055620000ed6200015c565b6001600160a01b0316816001600160a01b0316837f2f8788117e7eff1d82e926ec794901d17c78024a50270940304540a733656f0d60405160405180910390a45050565b60009182526006602090815260408084206001600160a01b0393909316845291905290205460ff1690565b3390565b8280546200016e9062000206565b90600052602060002090601f016020900481019282620001925760008555620001dd565b82601f10620001ad57805160ff1916838001178555620001dd565b82800160010185558215620001dd579182015b82811115620001dd578251825591602001919060010190620001c0565b50620001eb929150620001ef565b5090565b5b80821115620001eb5760008155600101620001f0565b6002810460018216806200021b57607f821691505b602082108114156200023d57634e487b7160e01b600052602260045260246000fd5b50919050565b61180880620002536000396000f3fe608060405234801561001057600080fd5b50600436106101b05760003560e01c80635c975abb116100ef578063a457c2d711610092578063a457c2d714610359578063a9059cbb1461036c578063c404c62e1461037f578063ccf5f32c14610392578063d5391393146103a5578063d547741f146103ad578063dd62ed3e146103c0578063e63ab1e9146103d3576101b0565b80635c975abb146102ed57806370a08231146102f557806379cc6790146103085780638456cb591461031b57806391d148541461032357806395d89b41146103365780639dc29fac1461033e578063a217fddf14610351576101b0565b80632dee751a116101575780632dee751a1461025e5780632f2ff15d14610271578063313ce5671461028457806336568abe1461029957806339509351146102ac5780633f4ba83a146102bf57806340c10f19146102c757806342966c68146102da576101b0565b806301ffc9a7146101b557806306fdde03146101de578063095ea7b3146101f357806318160ddd1461020657806323b872dd1461021b578063248a9ca31461022e57806324d08a6014610241578063282c51f314610256575b600080fd5b6101c86101c3366004611149565b6103db565b6040516101d59190611185565b60405180910390f35b6101e6610408565b6040516101d59190611199565b6101c86102013660046110e6565b61049a565b61020e6104b7565b6040516101d59190611190565b6101c86102293660046110ab565b6104bd565b61020e61023c36600461110f565b61055d565b61025461024f366004611079565b610572565b005b61020e610601565b61025461026c366004611079565b610625565b61025461027f366004611127565b6106ac565b61028c6106e6565b6040516101d591906116e4565b6102546102a7366004611127565b6106eb565b6101c86102ba3660046110e6565b61072d565b61025461077c565b6102546102d53660046110e6565b6107a7565b6102546102e836600461110f565b6107e5565b6101c86107f9565b61020e610303366004611058565b610802565b6102546103163660046110e6565b61081d565b610254610872565b6101c8610331366004611127565b61089b565b6101e66108c6565b61025461034c3660046110e6565b6108d5565b61020e610925565b6101c86103673660046110e6565b61092a565b6101c861037a3660046110e6565b6109a5565b61025461038d366004611079565b6109b9565b6102546103a0366004611079565b6109f8565b61020e610a5c565b6102546103bb366004611127565b610a6e565b61020e6103ce366004611079565b610a96565b61020e610ac1565b60006001600160e01b03198216637965db0b60e01b1480610400575061040082610ad3565b90505b919050565b60606003805461041790611721565b80601f016020809104026020016040519081016040528092919081815260200182805461044390611721565b80156104905780601f1061046557610100808354040283529160200191610490565b820191906000526020600020905b81548152906001019060200180831161047357829003601f168201915b5050505050905090565b60006104ae6104a7610aec565b8484610af0565b50600192915050565b60025490565b60006104ca848484610ba4565b6001600160a01b0384166000908152600160205260408120816104eb610aec565b6001600160a01b03166001600160a01b03168152602001908152602001600020549050828110156105375760405162461bcd60e51b815260040161052e906114c3565b60405180910390fd5b61055285610543610aec565b61054d868561170a565b610af0565b506001949350505050565b60009081526006602052604090206001015490565b61057d60003361089b565b6105995760405162461bcd60e51b815260040161052e90611455565b6105b16000805160206117938339815191528361089b565b6105cd5760405162461bcd60e51b815260040161052e9061148c565b6105e560008051602061179383398151915283610a6e565b6105fd600080516020611793833981519152826106ac565b5050565b7f3c11d16cbaffd01df69ce1c404f6340ee057498f5f00246190ea54220576a84881565b61063060003361089b565b61064c5760405162461bcd60e51b815260040161052e90611455565b6106646000805160206117738339815191528361089b565b6106805760405162461bcd60e51b815260040161052e9061148c565b61069860008051602061177383398151915283610a6e565b6105fd600080516020611773833981519152825b6106c06106b88361055d565b610331610aec565b6106dc5760405162461bcd60e51b815260040161052e9061122f565b6105fd8282610cba565b601290565b6106f3610aec565b6001600160a01b0316816001600160a01b0316146107235760405162461bcd60e51b815260040161052e9061165e565b6105fd8282610d41565b60006104ae61073a610aec565b848460016000610748610aec565b6001600160a01b03908116825260208083019390935260409182016000908120918b168152925290205461054d91906116f2565b6107946000805160206117738339815191523361089b565b61079d57600080fd5b6107a5610dc6565b565b6107bf6000805160206117938339815191523361089b565b6107db5760405162461bcd60e51b815260040161052e906113f0565b6105fd8282610e34565b6107f66107f0610aec565b82610ee2565b50565b60055460ff1690565b6001600160a01b031660009081526020819052604090205490565b600061082b836103ce610aec565b90508181101561084d5760405162461bcd60e51b815260040161052e9061150b565b61086383610859610aec565b61054d858561170a565b61086d8383610ee2565b505050565b61088a6000805160206117738339815191523361089b565b61089357600080fd5b6107a5610fb6565b60009182526006602090815260408084206001600160a01b0393909316845291905290205460ff1690565b60606004805461041790611721565b6108ff7f3c11d16cbaffd01df69ce1c404f6340ee057498f5f00246190ea54220576a8483361089b565b61091b5760405162461bcd60e51b815260040161052e90611425565b6105fd8282610ee2565b600081565b60008060016000610939610aec565b6001600160a01b03908116825260208083019390935260409182016000908120918816815292529020549050828110156109855760405162461bcd60e51b815260040161052e90611619565b61099b610990610aec565b8561054d868561170a565b5060019392505050565b60006104ae6109b2610aec565b8484610ba4565b6109c460003361089b565b6109e05760405162461bcd60e51b815260040161052e90611455565b6105e5600080516020611793833981519152836106ac565b610a0360003361089b565b610a1f5760405162461bcd60e51b815260040161052e90611455565b610a2a60008361089b565b610a465760405162461bcd60e51b815260040161052e9061148c565b610a51600083610a6e565b6105fd6000826106ac565b60008051602061179383398151915281565b610a7a6106b88361055d565b6107235760405162461bcd60e51b815260040161052e90611376565b6001600160a01b03918216600090815260016020908152604080832093909416825291909152205490565b60008051602061177383398151915281565b6001600160e01b031981166301ffc9a760e01b14919050565b3390565b6001600160a01b038316610b165760405162461bcd60e51b815260040161052e906115d5565b6001600160a01b038216610b3c5760405162461bcd60e51b815260040161052e906112ee565b6001600160a01b0380841660008181526001602090815260408083209487168084529490915290819020849055517f8c5be1e5ebec7d5bd14f71427d1e84f3dd0314c0f7b2291e5b200ac8c7c3b92590610b97908590611190565b60405180910390a3505050565b6001600160a01b038316610bca5760405162461bcd60e51b815260040161052e90611590565b6001600160a01b038216610bf05760405162461bcd60e51b815260040161052e906111ec565b610bfb838383611011565b6001600160a01b03831660009081526020819052604090205481811015610c345760405162461bcd60e51b815260040161052e90611330565b610c3e828261170a565b6001600160a01b038086166000908152602081905260408082209390935590851681529081208054849290610c749084906116f2565b92505081905550826001600160a01b0316846001600160a01b03166000805160206117b383398151915284604051610cac9190611190565b60405180910390a350505050565b610cc4828261089b565b6105fd5760008281526006602090815260408083206001600160a01b03851684529091529020805460ff19166001179055610cfd610aec565b6001600160a01b0316816001600160a01b0316837f2f8788117e7eff1d82e926ec794901d17c78024a50270940304540a733656f0d60405160405180910390a45050565b610d4b828261089b565b156105fd5760008281526006602090815260408083206001600160a01b03851684529091529020805460ff19169055610d82610aec565b6001600160a01b0316816001600160a01b0316837ff6391f5c32d9c69d2a47ea670b442974b53935d1edc7fd64eb21e047a839171b60405160405180910390a45050565b610dce6107f9565b610dea5760405162461bcd60e51b815260040161052e9061127e565b6005805460ff191690557f5db9ee0a495bf2e6ff9c91a7834c1ba4fdd244a5e8aa4e537bd38aeae4b073aa610e1d610aec565b604051610e2a9190611171565b60405180910390a1565b6001600160a01b038216610e5a5760405162461bcd60e51b815260040161052e906116ad565b610e6660008383611011565b8060026000828254610e7891906116f2565b90915550506001600160a01b03821660009081526020819052604081208054839290610ea59084906116f2565b90915550506040516001600160a01b038316906000906000805160206117b383398151915290610ed6908590611190565b60405180910390a35050565b6001600160a01b038216610f085760405162461bcd60e51b815260040161052e9061154f565b610f1482600083611011565b6001600160a01b03821660009081526020819052604090205481811015610f4d5760405162461bcd60e51b815260040161052e906112ac565b610f57828261170a565b6001600160a01b03841660009081526020819052604081209190915560028054849290610f8590849061170a565b90915550506040516000906001600160a01b038516906000805160206117b383398151915290610b97908690611190565b610fbe6107f9565b15610fdb5760405162461bcd60e51b815260040161052e906113c6565b6005805460ff191660011790557f62e78cea01bee320cd4e420270b5ea74000d11b0c9f74754ebdbfc544b05a258610e1d610aec565b6110196107f9565b156110365760405162461bcd60e51b815260040161052e906113c6565b61086d83838361086d565b80356001600160a01b038116811461040357600080fd5b600060208284031215611069578081fd5b61107282611041565b9392505050565b6000806040838503121561108b578081fd5b61109483611041565b91506110a260208401611041565b90509250929050565b6000806000606084860312156110bf578081fd5b6110c884611041565b92506110d660208501611041565b9150604084013590509250925092565b600080604083850312156110f8578182fd5b61110183611041565b946020939093013593505050565b600060208284031215611120578081fd5b5035919050565b60008060408385031215611139578182fd5b823591506110a260208401611041565b60006020828403121561115a578081fd5b81356001600160e01b031981168114611072578182fd5b6001600160a01b0391909116815260200190565b901515815260200190565b90815260200190565b6000602080835283518082850152825b818110156111c5578581018301518582016040015282016111a9565b818111156111d65783604083870101525b50601f01601f1916929092016040019392505050565b60208082526023908201527f45524332303a207472616e7366657220746f20746865207a65726f206164647260408201526265737360e81b606082015260800190565b6020808252602f908201527f416363657373436f6e74726f6c3a2073656e646572206d75737420626520616e60408201526e0818591b5a5b881d1bc819dc985b9d608a1b606082015260800190565b60208082526014908201527314185d5cd8589b194e881b9bdd081c185d5cd95960621b604082015260600190565b60208082526022908201527f45524332303a206275726e20616d6f756e7420657863656564732062616c616e604082015261636560f01b606082015260800190565b60208082526022908201527f45524332303a20617070726f766520746f20746865207a65726f206164647265604082015261737360f01b606082015260800190565b60208082526026908201527f45524332303a207472616e7366657220616d6f756e7420657863656564732062604082015265616c616e636560d01b606082015260800190565b60208082526030908201527f416363657373436f6e74726f6c3a2073656e646572206d75737420626520616e60408201526f2061646d696e20746f207265766f6b6560801b606082015260800190565b60208082526010908201526f14185d5cd8589b194e881c185d5cd95960821b604082015260600190565b6020808252818101527f4f4e4c59204d494e54455220524f4c452043414e204d494e5420544f4b454e53604082015260600190565b60208082526016908201527521b0b63632b91034b9903737ba103090313ab93732b960511b604082015260600190565b6020808252601c908201527f4f4e4c592041444d494e20524f4c452043414e2053455420524f4c4500000000604082015260600190565b6020808252601a908201527f4f4c44204d494e544552204953204e4f542041204d494e544552000000000000604082015260600190565b60208082526028908201527f45524332303a207472616e7366657220616d6f756e74206578636565647320616040820152676c6c6f77616e636560c01b606082015260800190565b60208082526024908201527f45524332303a206275726e20616d6f756e74206578636565647320616c6c6f77604082015263616e636560e01b606082015260800190565b60208082526021908201527f45524332303a206275726e2066726f6d20746865207a65726f206164647265736040820152607360f81b606082015260800190565b60208082526025908201527f45524332303a207472616e736665722066726f6d20746865207a65726f206164604082015264647265737360d81b606082015260800190565b60208082526024908201527f45524332303a20617070726f76652066726f6d20746865207a65726f206164646040820152637265737360e01b606082015260800190565b60208082526025908201527f45524332303a2064656372656173656420616c6c6f77616e63652062656c6f77604082015264207a65726f60d81b606082015260800190565b6020808252602f908201527f416363657373436f6e74726f6c3a2063616e206f6e6c792072656e6f756e636560408201526e103937b632b9903337b91039b2b63360891b606082015260800190565b6020808252601f908201527f45524332303a206d696e7420746f20746865207a65726f206164647265737300604082015260600190565b60ff91909116815260200190565b600082198211156117055761170561175c565b500190565b60008282101561171c5761171c61175c565b500390565b60028104600182168061173557607f821691505b6020821081141561175657634e487b7160e01b600052602260045260246000fd5b50919050565b634e487b7160e01b600052601160045260246000fdfe65d7a28e3265b37a6474929f336521b332c1681b933f6cb9f3376673440d862a9f2df0fed2c77648de5860a4cc508cd0818c85b8b8a1ab4ceeef8d981c8956a6ddf252ad1be2c89b69c2b068fc378daa952ba7f163c4a11628f55a4df523b3efa2646970667358221220fbe835a20b0193b7fd9f1aa68eec652d4e8fd3e979c4fa52c122d3eda45a31b964736f6c63430008000033",
  "immutableReferences": {},
  "source": "// SPDX-License-Identifier: MIT\npragma solidity ^0.8.0;\n\nimport \"@openzeppelin/contracts/token/ERC20/ERC20.sol\";\nimport \"@openzeppelin/contracts/token/ERC20/extensions/ERC20Burnable.sol\";\nimport \"@openzeppelin/contracts/security/Pausable.sol\";\nimport \"@openzeppelin/contracts/access/AccessControl.sol\";\n\ncontract OFlightsToken is ERC20, ERC20Burnable, Pausable, AccessControl {\n    bytes32 public constant PAUSER_ROLE = keccak256(\"PAUSER_ROLE\");\n    bytes32 public constant MINTER_ROLE = keccak256(\"MINTER_ROLE\");\n    bytes32 public constant BURNER_ROLE = keccak256(\"BURNER_ROLE\");\n\n    constructor() ERC20(\"O.Flights\", \"OFLY\") {\n        _setupRole(DEFAULT_ADMIN_ROLE, msg.sender);\n      \n    }\n\n    function pause() public {\n        require(hasRole(PAUSER_ROLE, msg.sender));\n        _pause();\n    }\n\n    function unpause() public {\n        require(hasRole(PAUSER_ROLE, msg.sender));\n        _unpause();\n    }\n\n    function mint(address to, uint256 amount) public {\n        require(hasRole(MINTER_ROLE, msg.sender),'ONLY MINTER ROLE CAN MINT TOKENS');\n        _mint(to, amount);\n    }\n\n    function burn(address from, uint256 amount) public {\n        require(hasRole(BURNER_ROLE, msg.sender), \"Caller is not a burner\");\n        _burn(from, amount);\n    }\n\n    function changeMinterRole(address oldMinter, address newMinter) public {\n        require(hasRole(DEFAULT_ADMIN_ROLE, msg.sender), 'ONLY ADMIN ROLE CAN SET ROLE');\n        require(hasRole(MINTER_ROLE, oldMinter), 'OLD MINTER IS NOT A MINTER');\n        revokeRole(MINTER_ROLE, oldMinter);\n        grantRole(MINTER_ROLE, newMinter);\n    }\n\n    function changePauserRole(address oldPauser, address newPauser) public {\n        require(hasRole(DEFAULT_ADMIN_ROLE, msg.sender), 'ONLY ADMIN ROLE CAN SET ROLE');\n        require(hasRole(PAUSER_ROLE, oldPauser), 'OLD MINTER IS NOT A MINTER');\n        revokeRole(PAUSER_ROLE, oldPauser);\n        grantRole(PAUSER_ROLE, newPauser);\n    }\n\n    function changeAdminRole(address oldAdmin, address newAdmin) public {\n        require(hasRole(DEFAULT_ADMIN_ROLE, msg.sender), 'ONLY ADMIN ROLE CAN SET ROLE');\n        require(hasRole(DEFAULT_ADMIN_ROLE, oldAdmin), 'OLD MINTER IS NOT A MINTER');\n        revokeRole(DEFAULT_ADMIN_ROLE, oldAdmin);\n        grantRole(DEFAULT_ADMIN_ROLE, newAdmin);\n    }\n    \n    // ONLY FOR TESTING \n    function setTestingRoles(address ico, address masterchef) public {\n        require(hasRole(DEFAULT_ADMIN_ROLE, msg.sender), 'ONLY ADMIN ROLE CAN SET ROLE');\n        grantRole(MINTER_ROLE, ico);\n        grantRole(MINTER_ROLE, masterchef);\n    }\n\n    function _beforeTokenTransfer(address from, address to, uint256 amount)\n        internal\n        whenNotPaused\n        override\n    {\n        super._beforeTokenTransfer(from, to, amount);\n    }\n}",
  "sourcePath": "/Users/lexcalebout/Desktop/Dev-Projects/OFlights_ICO/packages/contracts/contracts/token/OFlightsToken.sol",
  "compiler": {
    "name": "solc",
    "version": "0.8.0+commit.c7dfd78e.Emscripten.clang"
  },
  "schemaVersion": "3.3.4",
  "updatedAt": "2021-04-16T17:51:20.707Z",
  "networkType": "ethereum",
  "devdoc": {
    "kind": "dev",
    "methods": {
      "allowance(address,address)": {
        "details": "See {IERC20-allowance}."
      },
      "approve(address,uint256)": {
        "details": "See {IERC20-approve}. Requirements: - `spender` cannot be the zero address."
      },
      "balanceOf(address)": {
        "details": "See {IERC20-balanceOf}."
      },
      "burn(uint256)": {
        "details": "Destroys `amount` tokens from the caller. See {ERC20-_burn}."
      },
      "burnFrom(address,uint256)": {
        "details": "Destroys `amount` tokens from `account`, deducting from the caller's allowance. See {ERC20-_burn} and {ERC20-allowance}. Requirements: - the caller must have allowance for ``accounts``'s tokens of at least `amount`."
      },
      "decimals()": {
        "details": "Returns the number of decimals used to get its user representation. For example, if `decimals` equals `2`, a balance of `505` tokens should be displayed to a user as `5,05` (`505 / 10 ** 2`). Tokens usually opt for a value of 18, imitating the relationship between Ether and Wei. This is the value {ERC20} uses, unless this function is overloaded; NOTE: This information is only used for _display_ purposes: it in no way affects any of the arithmetic of the contract, including {IERC20-balanceOf} and {IERC20-transfer}."
      },
      "decreaseAllowance(address,uint256)": {
        "details": "Atomically decreases the allowance granted to `spender` by the caller. This is an alternative to {approve} that can be used as a mitigation for problems described in {IERC20-approve}. Emits an {Approval} event indicating the updated allowance. Requirements: - `spender` cannot be the zero address. - `spender` must have allowance for the caller of at least `subtractedValue`."
      },
      "getRoleAdmin(bytes32)": {
        "details": "Returns the admin role that controls `role`. See {grantRole} and {revokeRole}. To change a role's admin, use {_setRoleAdmin}."
      },
      "grantRole(bytes32,address)": {
        "details": "Grants `role` to `account`. If `account` had not been already granted `role`, emits a {RoleGranted} event. Requirements: - the caller must have ``role``'s admin role."
      },
      "hasRole(bytes32,address)": {
        "details": "Returns `true` if `account` has been granted `role`."
      },
      "increaseAllowance(address,uint256)": {
        "details": "Atomically increases the allowance granted to `spender` by the caller. This is an alternative to {approve} that can be used as a mitigation for problems described in {IERC20-approve}. Emits an {Approval} event indicating the updated allowance. Requirements: - `spender` cannot be the zero address."
      },
      "name()": {
        "details": "Returns the name of the token."
      },
      "paused()": {
        "details": "Returns true if the contract is paused, and false otherwise."
      },
      "renounceRole(bytes32,address)": {
        "details": "Revokes `role` from the calling account. Roles are often managed via {grantRole} and {revokeRole}: this function's purpose is to provide a mechanism for accounts to lose their privileges if they are compromised (such as when a trusted device is misplaced). If the calling account had been granted `role`, emits a {RoleRevoked} event. Requirements: - the caller must be `account`."
      },
      "revokeRole(bytes32,address)": {
        "details": "Revokes `role` from `account`. If `account` had been granted `role`, emits a {RoleRevoked} event. Requirements: - the caller must have ``role``'s admin role."
      },
      "supportsInterface(bytes4)": {
        "details": "See {IERC165-supportsInterface}."
      },
      "symbol()": {
        "details": "Returns the symbol of the token, usually a shorter version of the name."
      },
      "totalSupply()": {
        "details": "See {IERC20-totalSupply}."
      },
      "transfer(address,uint256)": {
        "details": "See {IERC20-transfer}. Requirements: - `recipient` cannot be the zero address. - the caller must have a balance of at least `amount`."
      },
      "transferFrom(address,address,uint256)": {
        "details": "See {IERC20-transferFrom}. Emits an {Approval} event indicating the updated allowance. This is not required by the EIP. See the note at the beginning of {ERC20}. Requirements: - `sender` and `recipient` cannot be the zero address. - `sender` must have a balance of at least `amount`. - the caller must have allowance for ``sender``'s tokens of at least `amount`."
      }
    },
    "version": 1
  },
  "userdoc": {
    "kind": "user",
    "methods": {},
    "version": 1
  }
}