{
  "contractName": "OFlightsToken",
  "abi": [
    {
      "inputs": [],
      "stateMutability": "nonpayable",
      "type": "constructor"
    },
    {
      "anonymous": false,
      "inputs": [
        {
          "indexed": true,
          "internalType": "address",
          "name": "owner",
          "type": "address"
        },
        {
          "indexed": true,
          "internalType": "address",
          "name": "spender",
          "type": "address"
        },
        {
          "indexed": false,
          "internalType": "uint256",
          "name": "value",
          "type": "uint256"
        }
      ],
      "name": "Approval",
      "type": "event"
    },
    {
      "anonymous": false,
      "inputs": [
        {
          "indexed": false,
          "internalType": "address",
          "name": "account",
          "type": "address"
        }
      ],
      "name": "Paused",
      "type": "event"
    },
    {
      "anonymous": false,
      "inputs": [
        {
          "indexed": true,
          "internalType": "bytes32",
          "name": "role",
          "type": "bytes32"
        },
        {
          "indexed": true,
          "internalType": "bytes32",
          "name": "previousAdminRole",
          "type": "bytes32"
        },
        {
          "indexed": true,
          "internalType": "bytes32",
          "name": "newAdminRole",
          "type": "bytes32"
        }
      ],
      "name": "RoleAdminChanged",
      "type": "event"
    },
    {
      "anonymous": false,
      "inputs": [
        {
          "indexed": true,
          "internalType": "bytes32",
          "name": "role",
          "type": "bytes32"
        },
        {
          "indexed": true,
          "internalType": "address",
          "name": "account",
          "type": "address"
        },
        {
          "indexed": true,
          "internalType": "address",
          "name": "sender",
          "type": "address"
        }
      ],
      "name": "RoleGranted",
      "type": "event"
    },
    {
      "anonymous": false,
      "inputs": [
        {
          "indexed": true,
          "internalType": "bytes32",
          "name": "role",
          "type": "bytes32"
        },
        {
          "indexed": true,
          "internalType": "address",
          "name": "account",
          "type": "address"
        },
        {
          "indexed": true,
          "internalType": "address",
          "name": "sender",
          "type": "address"
        }
      ],
      "name": "RoleRevoked",
      "type": "event"
    },
    {
      "anonymous": false,
      "inputs": [
        {
          "indexed": true,
          "internalType": "address",
          "name": "from",
          "type": "address"
        },
        {
          "indexed": true,
          "internalType": "address",
          "name": "to",
          "type": "address"
        },
        {
          "indexed": false,
          "internalType": "uint256",
          "name": "value",
          "type": "uint256"
        }
      ],
      "name": "Transfer",
      "type": "event"
    },
    {
      "anonymous": false,
      "inputs": [
        {
          "indexed": false,
          "internalType": "address",
          "name": "account",
          "type": "address"
        }
      ],
      "name": "Unpaused",
      "type": "event"
    },
    {
      "inputs": [],
      "name": "BURNER_ROLE",
      "outputs": [
        {
          "internalType": "bytes32",
          "name": "",
          "type": "bytes32"
        }
      ],
      "stateMutability": "view",
      "type": "function",
      "constant": true
    },
    {
      "inputs": [],
      "name": "DEFAULT_ADMIN_ROLE",
      "outputs": [
        {
          "internalType": "bytes32",
          "name": "",
          "type": "bytes32"
        }
      ],
      "stateMutability": "view",
      "type": "function",
      "constant": true
    },
    {
      "inputs": [],
      "name": "MINTER_ROLE",
      "outputs": [
        {
          "internalType": "bytes32",
          "name": "",
          "type": "bytes32"
        }
      ],
      "stateMutability": "view",
      "type": "function",
      "constant": true
    },
    {
      "inputs": [],
      "name": "PAUSER_ROLE",
      "outputs": [
        {
          "internalType": "bytes32",
          "name": "",
          "type": "bytes32"
        }
      ],
      "stateMutability": "view",
      "type": "function",
      "constant": true
    },
    {
      "inputs": [
        {
          "internalType": "address",
          "name": "owner",
          "type": "address"
        },
        {
          "internalType": "address",
          "name": "spender",
          "type": "address"
        }
      ],
      "name": "allowance",
      "outputs": [
        {
          "internalType": "uint256",
          "name": "",
          "type": "uint256"
        }
      ],
      "stateMutability": "view",
      "type": "function",
      "constant": true
    },
    {
      "inputs": [
        {
          "internalType": "address",
          "name": "spender",
          "type": "address"
        },
        {
          "internalType": "uint256",
          "name": "amount",
          "type": "uint256"
        }
      ],
      "name": "approve",
      "outputs": [
        {
          "internalType": "bool",
          "name": "",
          "type": "bool"
        }
      ],
      "stateMutability": "nonpayable",
      "type": "function"
    },
    {
      "inputs": [
        {
          "internalType": "address",
          "name": "account",
          "type": "address"
        }
      ],
      "name": "balanceOf",
      "outputs": [
        {
          "internalType": "uint256",
          "name": "",
          "type": "uint256"
        }
      ],
      "stateMutability": "view",
      "type": "function",
      "constant": true
    },
    {
      "inputs": [
        {
          "internalType": "address",
          "name": "account",
          "type": "address"
        },
        {
          "internalType": "uint256",
          "name": "amount",
          "type": "uint256"
        }
      ],
      "name": "burnFrom",
      "outputs": [],
      "stateMutability": "nonpayable",
      "type": "function"
    },
    {
      "inputs": [],
      "name": "decimals",
      "outputs": [
        {
          "internalType": "uint8",
          "name": "",
          "type": "uint8"
        }
      ],
      "stateMutability": "view",
      "type": "function",
      "constant": true
    },
    {
      "inputs": [
        {
          "internalType": "address",
          "name": "spender",
          "type": "address"
        },
        {
          "internalType": "uint256",
          "name": "subtractedValue",
          "type": "uint256"
        }
      ],
      "name": "decreaseAllowance",
      "outputs": [
        {
          "internalType": "bool",
          "name": "",
          "type": "bool"
        }
      ],
      "stateMutability": "nonpayable",
      "type": "function"
    },
    {
      "inputs": [
        {
          "internalType": "bytes32",
          "name": "role",
          "type": "bytes32"
        }
      ],
      "name": "getRoleAdmin",
      "outputs": [
        {
          "internalType": "bytes32",
          "name": "",
          "type": "bytes32"
        }
      ],
      "stateMutability": "view",
      "type": "function",
      "constant": true
    },
    {
      "inputs": [
        {
          "internalType": "bytes32",
          "name": "role",
          "type": "bytes32"
        },
        {
          "internalType": "address",
          "name": "account",
          "type": "address"
        }
      ],
      "name": "grantRole",
      "outputs": [],
      "stateMutability": "nonpayable",
      "type": "function"
    },
    {
      "inputs": [
        {
          "internalType": "bytes32",
          "name": "role",
          "type": "bytes32"
        },
        {
          "internalType": "address",
          "name": "account",
          "type": "address"
        }
      ],
      "name": "hasRole",
      "outputs": [
        {
          "internalType": "bool",
          "name": "",
          "type": "bool"
        }
      ],
      "stateMutability": "view",
      "type": "function",
      "constant": true
    },
    {
      "inputs": [
        {
          "internalType": "address",
          "name": "spender",
          "type": "address"
        },
        {
          "internalType": "uint256",
          "name": "addedValue",
          "type": "uint256"
        }
      ],
      "name": "increaseAllowance",
      "outputs": [
        {
          "internalType": "bool",
          "name": "",
          "type": "bool"
        }
      ],
      "stateMutability": "nonpayable",
      "type": "function"
    },
    {
      "inputs": [],
      "name": "name",
      "outputs": [
        {
          "internalType": "string",
          "name": "",
          "type": "string"
        }
      ],
      "stateMutability": "view",
      "type": "function",
      "constant": true
    },
    {
      "inputs": [],
      "name": "paused",
      "outputs": [
        {
          "internalType": "bool",
          "name": "",
          "type": "bool"
        }
      ],
      "stateMutability": "view",
      "type": "function",
      "constant": true
    },
    {
      "inputs": [
        {
          "internalType": "bytes32",
          "name": "role",
          "type": "bytes32"
        },
        {
          "internalType": "address",
          "name": "account",
          "type": "address"
        }
      ],
      "name": "renounceRole",
      "outputs": [],
      "stateMutability": "nonpayable",
      "type": "function"
    },
    {
      "inputs": [
        {
          "internalType": "bytes32",
          "name": "role",
          "type": "bytes32"
        },
        {
          "internalType": "address",
          "name": "account",
          "type": "address"
        }
      ],
      "name": "revokeRole",
      "outputs": [],
      "stateMutability": "nonpayable",
      "type": "function"
    },
    {
      "inputs": [
        {
          "internalType": "bytes4",
          "name": "interfaceId",
          "type": "bytes4"
        }
      ],
      "name": "supportsInterface",
      "outputs": [
        {
          "internalType": "bool",
          "name": "",
          "type": "bool"
        }
      ],
      "stateMutability": "view",
      "type": "function",
      "constant": true
    },
    {
      "inputs": [],
      "name": "symbol",
      "outputs": [
        {
          "internalType": "string",
          "name": "",
          "type": "string"
        }
      ],
      "stateMutability": "view",
      "type": "function",
      "constant": true
    },
    {
      "inputs": [],
      "name": "totalSupply",
      "outputs": [
        {
          "internalType": "uint256",
          "name": "",
          "type": "uint256"
        }
      ],
      "stateMutability": "view",
      "type": "function",
      "constant": true
    },
    {
      "inputs": [
        {
          "internalType": "address",
          "name": "recipient",
          "type": "address"
        },
        {
          "internalType": "uint256",
          "name": "amount",
          "type": "uint256"
        }
      ],
      "name": "transfer",
      "outputs": [
        {
          "internalType": "bool",
          "name": "",
          "type": "bool"
        }
      ],
      "stateMutability": "nonpayable",
      "type": "function"
    },
    {
      "inputs": [
        {
          "internalType": "address",
          "name": "sender",
          "type": "address"
        },
        {
          "internalType": "address",
          "name": "recipient",
          "type": "address"
        },
        {
          "internalType": "uint256",
          "name": "amount",
          "type": "uint256"
        }
      ],
      "name": "transferFrom",
      "outputs": [
        {
          "internalType": "bool",
          "name": "",
          "type": "bool"
        }
      ],
      "stateMutability": "nonpayable",
      "type": "function"
    },
    {
      "inputs": [],
      "name": "pause",
      "outputs": [],
      "stateMutability": "nonpayable",
      "type": "function"
    },
    {
      "inputs": [],
      "name": "unpause",
      "outputs": [],
      "stateMutability": "nonpayable",
      "type": "function"
    },
    {
      "inputs": [
        {
          "internalType": "address",
          "name": "to",
          "type": "address"
        },
        {
          "internalType": "uint256",
          "name": "amount",
          "type": "uint256"
        }
      ],
      "name": "mint",
      "outputs": [],
      "stateMutability": "nonpayable",
      "type": "function"
    },
    {
      "inputs": [
        {
          "internalType": "uint256",
          "name": "amount",
          "type": "uint256"
        }
      ],
      "name": "burn",
      "outputs": [],
      "stateMutability": "nonpayable",
      "type": "function"
    },
    {
      "inputs": [
        {
          "internalType": "address",
          "name": "from",
          "type": "address"
        },
        {
          "internalType": "uint256",
          "name": "amount",
          "type": "uint256"
        }
      ],
      "name": "burn",
      "outputs": [],
      "stateMutability": "nonpayable",
      "type": "function"
    },
    {
      "inputs": [
        {
          "internalType": "address",
          "name": "oldMinter",
          "type": "address"
        },
        {
          "internalType": "address",
          "name": "newMinter",
          "type": "address"
        }
      ],
      "name": "changeMinterRole",
      "outputs": [],
      "stateMutability": "nonpayable",
      "type": "function"
    },
    {
      "inputs": [
        {
          "internalType": "address",
          "name": "oldPauser",
          "type": "address"
        },
        {
          "internalType": "address",
          "name": "newPauser",
          "type": "address"
        }
      ],
      "name": "changePauserRole",
      "outputs": [],
      "stateMutability": "nonpayable",
      "type": "function"
    },
    {
      "inputs": [
        {
          "internalType": "address",
          "name": "newAdmin",
          "type": "address"
        }
      ],
      "name": "changeAdminRole",
      "outputs": [],
      "stateMutability": "nonpayable",
      "type": "function"
    },
    {
      "inputs": [
        {
          "internalType": "address",
          "name": "ico",
          "type": "address"
        }
      ],
      "name": "initICO",
      "outputs": [],
      "stateMutability": "nonpayable",
      "type": "function"
    }
  ],
  "bytecode": "0x60806040523480156200001157600080fd5b5060408051808201825260098152684f2e466c696768747360b81b6020808301918252835180850190945260048452634f464c5960e01b9084015281519192916200005f9160039162000160565b5080516200007590600490602084019062000160565b50506005805460ff19169055506200008f60003362000095565b62000243565b620000a18282620000a5565b5050565b620000b1828262000131565b620000a15760008281526006602090815260408083206001600160a01b03851684529091529020805460ff19166001179055620000ed6200015c565b6001600160a01b0316816001600160a01b0316837f2f8788117e7eff1d82e926ec794901d17c78024a50270940304540a733656f0d60405160405180910390a45050565b60009182526006602090815260408084206001600160a01b0393909316845291905290205460ff1690565b3390565b8280546200016e9062000206565b90600052602060002090601f016020900481019282620001925760008555620001dd565b82601f10620001ad57805160ff1916838001178555620001dd565b82800160010185558215620001dd579182015b82811115620001dd578251825591602001919060010190620001c0565b50620001eb929150620001ef565b5090565b5b80821115620001eb5760008155600101620001f0565b6002810460018216806200021b57607f821691505b602082108114156200023d57634e487b7160e01b600052602260045260246000fd5b50919050565b6117e180620002536000396000f3fe608060405234801561001057600080fd5b50600436106101b05760003560e01c806342966c68116100ef578063a217fddf11610092578063a217fddf14610364578063a457c2d71461036c578063a75f8fd81461037f578063a9059cbb14610392578063d5391393146103a5578063d547741f146103ad578063dd62ed3e146103c0578063e63ab1e9146103d3576101b0565b806342966c68146102ed5780635c975abb1461030057806370a082311461030857806379cc67901461031b5780638456cb591461032e57806391d148541461033657806395d89b41146103495780639dc29fac14610351576101b0565b8063282c51f311610157578063282c51f3146102695780632dee751a146102715780632f2ff15d14610284578063313ce5671461029757806336568abe146102ac57806339509351146102bf5780633f4ba83a146102d257806340c10f19146102da576101b0565b806301ffc9a7146101b557806304b8c471146101de57806306fdde03146101f3578063095ea7b31461020857806318160ddd1461021b57806323b872dd14610230578063248a9ca31461024357806324d08a6014610256575b600080fd5b6101c86101c3366004611122565b6103db565b6040516101d5919061115e565b60405180910390f35b6101f16101ec366004611031565b610408565b005b6101fb610451565b6040516101d59190611172565b6101c86102163660046110bf565b6104e3565b610223610500565b6040516101d59190611169565b6101c861023e366004611084565b610506565b6102236102513660046110e8565b61059d565b6101f1610264366004611052565b6105b2565b610223610641565b6101f161027f366004611052565b610665565b6101f1610292366004611100565b6106ec565b61029f610726565b6040516101d591906116bd565b6101f16102ba366004611100565b61072b565b6101c86102cd3660046110bf565b61076d565b6101f16107bc565b6101f16102e83660046110bf565b6107e7565b6101f16102fb3660046110e8565b610825565b6101c8610836565b610223610316366004611031565b61083f565b6101f16103293660046110bf565b61085a565b6101f16108af565b6101c8610344366004611100565b6108d8565b6101fb610903565b6101f161035f3660046110bf565b610912565b610223610962565b6101c861037a3660046110bf565b610967565b6101f161038d366004611031565b6109e2565b6101c86103a03660046110bf565b610a21565b610223610a35565b6101f16103bb366004611100565b610a47565b6102236103ce366004611052565b610a6f565b610223610a9a565b60006001600160e01b03198216637965db0b60e01b1480610400575061040082610aac565b90505b919050565b6104136000336108d8565b6104385760405162461bcd60e51b815260040161042f9061142e565b60405180910390fd5b6104436000826106ec565b61044e600033610a47565b50565b606060038054610460906116fa565b80601f016020809104026020016040519081016040528092919081815260200182805461048c906116fa565b80156104d95780601f106104ae576101008083540402835291602001916104d9565b820191906000526020600020905b8154815290600101906020018083116104bc57829003601f168201915b5050505050905090565b60006104f76104f0610ac5565b8484610ac9565b50600192915050565b60025490565b6000610513848484610b7d565b6001600160a01b038416600090815260016020526040812081610534610ac5565b6001600160a01b03166001600160a01b03168152602001908152602001600020549050828110156105775760405162461bcd60e51b815260040161042f9061149c565b61059285610583610ac5565b61058d86856116e3565b610ac9565b506001949350505050565b60009081526006602052604090206001015490565b6105bd6000336108d8565b6105d95760405162461bcd60e51b815260040161042f9061142e565b6105f160008051602061176c833981519152836108d8565b61060d5760405162461bcd60e51b815260040161042f90611465565b61062560008051602061176c83398151915283610a47565b61063d60008051602061176c833981519152826106ec565b5050565b7f3c11d16cbaffd01df69ce1c404f6340ee057498f5f00246190ea54220576a84881565b6106706000336108d8565b61068c5760405162461bcd60e51b815260040161042f9061142e565b6106a460008051602061174c833981519152836108d8565b6106c05760405162461bcd60e51b815260040161042f90611465565b6106d860008051602061174c83398151915283610a47565b61063d60008051602061174c833981519152825b6107006106f88361059d565b610344610ac5565b61071c5760405162461bcd60e51b815260040161042f90611208565b61063d8282610c93565b601290565b610733610ac5565b6001600160a01b0316816001600160a01b0316146107635760405162461bcd60e51b815260040161042f90611637565b61063d8282610d1a565b60006104f761077a610ac5565b848460016000610788610ac5565b6001600160a01b03908116825260208083019390935260409182016000908120918b168152925290205461058d91906116cb565b6107d460008051602061174c833981519152336108d8565b6107dd57600080fd5b6107e5610d9f565b565b6107ff60008051602061176c833981519152336108d8565b61081b5760405162461bcd60e51b815260040161042f906113c9565b61063d8282610e0d565b61044e610830610ac5565b82610ebb565b60055460ff1690565b6001600160a01b031660009081526020819052604090205490565b6000610868836103ce610ac5565b90508181101561088a5760405162461bcd60e51b815260040161042f906114e4565b6108a083610896610ac5565b61058d85856116e3565b6108aa8383610ebb565b505050565b6108c760008051602061174c833981519152336108d8565b6108d057600080fd5b6107e5610f8f565b60009182526006602090815260408084206001600160a01b0393909316845291905290205460ff1690565b606060048054610460906116fa565b61093c7f3c11d16cbaffd01df69ce1c404f6340ee057498f5f00246190ea54220576a848336108d8565b6109585760405162461bcd60e51b815260040161042f906113fe565b61063d8282610ebb565b600081565b60008060016000610976610ac5565b6001600160a01b03908116825260208083019390935260409182016000908120918816815292529020549050828110156109c25760405162461bcd60e51b815260040161042f906115f2565b6109d86109cd610ac5565b8561058d86856116e3565b5060019392505050565b6109ed6000336108d8565b610a095760405162461bcd60e51b815260040161042f9061142e565b61044e60008051602061176c833981519152826106ec565b60006104f7610a2e610ac5565b8484610b7d565b60008051602061176c83398151915281565b610a536106f88361059d565b6107635760405162461bcd60e51b815260040161042f9061134f565b6001600160a01b03918216600090815260016020908152604080832093909416825291909152205490565b60008051602061174c83398151915281565b6001600160e01b031981166301ffc9a760e01b14919050565b3390565b6001600160a01b038316610aef5760405162461bcd60e51b815260040161042f906115ae565b6001600160a01b038216610b155760405162461bcd60e51b815260040161042f906112c7565b6001600160a01b0380841660008181526001602090815260408083209487168084529490915290819020849055517f8c5be1e5ebec7d5bd14f71427d1e84f3dd0314c0f7b2291e5b200ac8c7c3b92590610b70908590611169565b60405180910390a3505050565b6001600160a01b038316610ba35760405162461bcd60e51b815260040161042f90611569565b6001600160a01b038216610bc95760405162461bcd60e51b815260040161042f906111c5565b610bd4838383610fea565b6001600160a01b03831660009081526020819052604090205481811015610c0d5760405162461bcd60e51b815260040161042f90611309565b610c1782826116e3565b6001600160a01b038086166000908152602081905260408082209390935590851681529081208054849290610c4d9084906116cb565b92505081905550826001600160a01b0316846001600160a01b031660008051602061178c83398151915284604051610c859190611169565b60405180910390a350505050565b610c9d82826108d8565b61063d5760008281526006602090815260408083206001600160a01b03851684529091529020805460ff19166001179055610cd6610ac5565b6001600160a01b0316816001600160a01b0316837f2f8788117e7eff1d82e926ec794901d17c78024a50270940304540a733656f0d60405160405180910390a45050565b610d2482826108d8565b1561063d5760008281526006602090815260408083206001600160a01b03851684529091529020805460ff19169055610d5b610ac5565b6001600160a01b0316816001600160a01b0316837ff6391f5c32d9c69d2a47ea670b442974b53935d1edc7fd64eb21e047a839171b60405160405180910390a45050565b610da7610836565b610dc35760405162461bcd60e51b815260040161042f90611257565b6005805460ff191690557f5db9ee0a495bf2e6ff9c91a7834c1ba4fdd244a5e8aa4e537bd38aeae4b073aa610df6610ac5565b604051610e03919061114a565b60405180910390a1565b6001600160a01b038216610e335760405162461bcd60e51b815260040161042f90611686565b610e3f60008383610fea565b8060026000828254610e5191906116cb565b90915550506001600160a01b03821660009081526020819052604081208054839290610e7e9084906116cb565b90915550506040516001600160a01b0383169060009060008051602061178c83398151915290610eaf908590611169565b60405180910390a35050565b6001600160a01b038216610ee15760405162461bcd60e51b815260040161042f90611528565b610eed82600083610fea565b6001600160a01b03821660009081526020819052604090205481811015610f265760405162461bcd60e51b815260040161042f90611285565b610f3082826116e3565b6001600160a01b03841660009081526020819052604081209190915560028054849290610f5e9084906116e3565b90915550506040516000906001600160a01b0385169060008051602061178c83398151915290610b70908690611169565b610f97610836565b15610fb45760405162461bcd60e51b815260040161042f9061139f565b6005805460ff191660011790557f62e78cea01bee320cd4e420270b5ea74000d11b0c9f74754ebdbfc544b05a258610df6610ac5565b610ff2610836565b1561100f5760405162461bcd60e51b815260040161042f9061139f565b6108aa8383836108aa565b80356001600160a01b038116811461040357600080fd5b600060208284031215611042578081fd5b61104b8261101a565b9392505050565b60008060408385031215611064578081fd5b61106d8361101a565b915061107b6020840161101a565b90509250929050565b600080600060608486031215611098578081fd5b6110a18461101a565b92506110af6020850161101a565b9150604084013590509250925092565b600080604083850312156110d1578182fd5b6110da8361101a565b946020939093013593505050565b6000602082840312156110f9578081fd5b5035919050565b60008060408385031215611112578182fd5b8235915061107b6020840161101a565b600060208284031215611133578081fd5b81356001600160e01b03198116811461104b578182fd5b6001600160a01b0391909116815260200190565b901515815260200190565b90815260200190565b6000602080835283518082850152825b8181101561119e57858101830151858201604001528201611182565b818111156111af5783604083870101525b50601f01601f1916929092016040019392505050565b60208082526023908201527f45524332303a207472616e7366657220746f20746865207a65726f206164647260408201526265737360e81b606082015260800190565b6020808252602f908201527f416363657373436f6e74726f6c3a2073656e646572206d75737420626520616e60408201526e0818591b5a5b881d1bc819dc985b9d608a1b606082015260800190565b60208082526014908201527314185d5cd8589b194e881b9bdd081c185d5cd95960621b604082015260600190565b60208082526022908201527f45524332303a206275726e20616d6f756e7420657863656564732062616c616e604082015261636560f01b606082015260800190565b60208082526022908201527f45524332303a20617070726f766520746f20746865207a65726f206164647265604082015261737360f01b606082015260800190565b60208082526026908201527f45524332303a207472616e7366657220616d6f756e7420657863656564732062604082015265616c616e636560d01b606082015260800190565b60208082526030908201527f416363657373436f6e74726f6c3a2073656e646572206d75737420626520616e60408201526f2061646d696e20746f207265766f6b6560801b606082015260800190565b60208082526010908201526f14185d5cd8589b194e881c185d5cd95960821b604082015260600190565b6020808252818101527f4f4e4c59204d494e54455220524f4c452043414e204d494e5420544f4b454e53604082015260600190565b60208082526016908201527521b0b63632b91034b9903737ba103090313ab93732b960511b604082015260600190565b6020808252601c908201527f4f4e4c592041444d494e20524f4c452043414e2053455420524f4c4500000000604082015260600190565b6020808252601a908201527f4f4c44204d494e544552204953204e4f542041204d494e544552000000000000604082015260600190565b60208082526028908201527f45524332303a207472616e7366657220616d6f756e74206578636565647320616040820152676c6c6f77616e636560c01b606082015260800190565b60208082526024908201527f45524332303a206275726e20616d6f756e74206578636565647320616c6c6f77604082015263616e636560e01b606082015260800190565b60208082526021908201527f45524332303a206275726e2066726f6d20746865207a65726f206164647265736040820152607360f81b606082015260800190565b60208082526025908201527f45524332303a207472616e736665722066726f6d20746865207a65726f206164604082015264647265737360d81b606082015260800190565b60208082526024908201527f45524332303a20617070726f76652066726f6d20746865207a65726f206164646040820152637265737360e01b606082015260800190565b60208082526025908201527f45524332303a2064656372656173656420616c6c6f77616e63652062656c6f77604082015264207a65726f60d81b606082015260800190565b6020808252602f908201527f416363657373436f6e74726f6c3a2063616e206f6e6c792072656e6f756e636560408201526e103937b632b9903337b91039b2b63360891b606082015260800190565b6020808252601f908201527f45524332303a206d696e7420746f20746865207a65726f206164647265737300604082015260600190565b60ff91909116815260200190565b600082198211156116de576116de611735565b500190565b6000828210156116f5576116f5611735565b500390565b60028104600182168061170e57607f821691505b6020821081141561172f57634e487b7160e01b600052602260045260246000fd5b50919050565b634e487b7160e01b600052601160045260246000fdfe65d7a28e3265b37a6474929f336521b332c1681b933f6cb9f3376673440d862a9f2df0fed2c77648de5860a4cc508cd0818c85b8b8a1ab4ceeef8d981c8956a6ddf252ad1be2c89b69c2b068fc378daa952ba7f163c4a11628f55a4df523b3efa26469706673582212201ebd69d1a5933ddaf68d05449bd2b2a9406940412c5141871b37deabdf0c0c8364736f6c63430008000033",
  "immutableReferences": {},
  "source": "// SPDX-License-Identifier: MIT\npragma solidity ^0.8.0;\n\nimport \"@openzeppelin/contracts/token/ERC20/ERC20.sol\";\nimport \"@openzeppelin/contracts/token/ERC20/extensions/ERC20Burnable.sol\";\nimport \"@openzeppelin/contracts/security/Pausable.sol\";\nimport \"@openzeppelin/contracts/access/AccessControl.sol\";\n\ncontract OFlightsToken is ERC20, ERC20Burnable, Pausable, AccessControl {\n    bytes32 public constant PAUSER_ROLE = keccak256(\"PAUSER_ROLE\");\n    bytes32 public constant MINTER_ROLE = keccak256(\"MINTER_ROLE\");\n    bytes32 public constant BURNER_ROLE = keccak256(\"BURNER_ROLE\");\n    \n\n    constructor() ERC20(\"O.Flights\", \"OFLY\") {\n        _setupRole(DEFAULT_ADMIN_ROLE, msg.sender);\n      \n    }\n\n    function pause() public {\n        require(hasRole(PAUSER_ROLE, msg.sender));\n        _pause();\n    }\n\n    function unpause() public {\n        require(hasRole(PAUSER_ROLE, msg.sender));\n        _unpause();\n    }\n\n    function mint(address to, uint256 amount) public {\n        require(hasRole(MINTER_ROLE, msg.sender),'ONLY MINTER ROLE CAN MINT TOKENS');\n        _mint(to, amount);\n    }\n\n    function burn(address from, uint256 amount) public {\n        require(hasRole(BURNER_ROLE, msg.sender), \"Caller is not a burner\");\n        _burn(from, amount);\n    }\n\n    function changeMinterRole(address oldMinter, address newMinter) public {\n        require(hasRole(DEFAULT_ADMIN_ROLE, msg.sender), 'ONLY ADMIN ROLE CAN SET ROLE');\n        require(hasRole(MINTER_ROLE, oldMinter), 'OLD MINTER IS NOT A MINTER');\n        revokeRole(MINTER_ROLE, oldMinter);\n        grantRole(MINTER_ROLE, newMinter);\n    }\n\n    function changePauserRole(address oldPauser, address newPauser) public {\n        require(hasRole(DEFAULT_ADMIN_ROLE, msg.sender), 'ONLY ADMIN ROLE CAN SET ROLE');\n        require(hasRole(PAUSER_ROLE, oldPauser), 'OLD MINTER IS NOT A MINTER');\n        revokeRole(PAUSER_ROLE, oldPauser);\n        grantRole(PAUSER_ROLE, newPauser);\n    }\n\n    function changeAdminRole( address newAdmin) public {\n        require(hasRole(DEFAULT_ADMIN_ROLE, msg.sender), 'ONLY ADMIN ROLE CAN SET ROLE');\n        grantRole(DEFAULT_ADMIN_ROLE, newAdmin);\n        revokeRole(DEFAULT_ADMIN_ROLE, msg.sender);\n    }\n\n    function initICO(address ico) public {\n        require(hasRole(DEFAULT_ADMIN_ROLE, msg.sender), 'ONLY ADMIN ROLE CAN SET ROLE');\n        grantRole(MINTER_ROLE, ico);\n    }\n\n    function _beforeTokenTransfer(address from, address to, uint256 amount)\n        internal\n        whenNotPaused\n        override\n    {\n        super._beforeTokenTransfer(from, to, amount);\n    }\n}",
  "sourcePath": "/Users/lexcalebout/Desktop/Dev-Projects/test-deploy/oflights.ico/packages/contracts/contracts/token/OFlightsToken.sol",
  "compiler": {
    "name": "solc",
    "version": "0.8.0+commit.c7dfd78e.Emscripten.clang"
  },
  "schemaVersion": "3.3.4",
  "updatedAt": "2021-06-05T14:37:54.036Z",
  "networkType": "ethereum",
  "devdoc": {
    "kind": "dev",
    "methods": {
      "allowance(address,address)": {
        "details": "See {IERC20-allowance}."
      },
      "approve(address,uint256)": {
        "details": "See {IERC20-approve}. Requirements: - `spender` cannot be the zero address."
      },
      "balanceOf(address)": {
        "details": "See {IERC20-balanceOf}."
      },
      "burn(uint256)": {
        "details": "Destroys `amount` tokens from the caller. See {ERC20-_burn}."
      },
      "burnFrom(address,uint256)": {
        "details": "Destroys `amount` tokens from `account`, deducting from the caller's allowance. See {ERC20-_burn} and {ERC20-allowance}. Requirements: - the caller must have allowance for ``accounts``'s tokens of at least `amount`."
      },
      "decimals()": {
        "details": "Returns the number of decimals used to get its user representation. For example, if `decimals` equals `2`, a balance of `505` tokens should be displayed to a user as `5,05` (`505 / 10 ** 2`). Tokens usually opt for a value of 18, imitating the relationship between Ether and Wei. This is the value {ERC20} uses, unless this function is overloaded; NOTE: This information is only used for _display_ purposes: it in no way affects any of the arithmetic of the contract, including {IERC20-balanceOf} and {IERC20-transfer}."
      },
      "decreaseAllowance(address,uint256)": {
        "details": "Atomically decreases the allowance granted to `spender` by the caller. This is an alternative to {approve} that can be used as a mitigation for problems described in {IERC20-approve}. Emits an {Approval} event indicating the updated allowance. Requirements: - `spender` cannot be the zero address. - `spender` must have allowance for the caller of at least `subtractedValue`."
      },
      "getRoleAdmin(bytes32)": {
        "details": "Returns the admin role that controls `role`. See {grantRole} and {revokeRole}. To change a role's admin, use {_setRoleAdmin}."
      },
      "grantRole(bytes32,address)": {
        "details": "Grants `role` to `account`. If `account` had not been already granted `role`, emits a {RoleGranted} event. Requirements: - the caller must have ``role``'s admin role."
      },
      "hasRole(bytes32,address)": {
        "details": "Returns `true` if `account` has been granted `role`."
      },
      "increaseAllowance(address,uint256)": {
        "details": "Atomically increases the allowance granted to `spender` by the caller. This is an alternative to {approve} that can be used as a mitigation for problems described in {IERC20-approve}. Emits an {Approval} event indicating the updated allowance. Requirements: - `spender` cannot be the zero address."
      },
      "name()": {
        "details": "Returns the name of the token."
      },
      "paused()": {
        "details": "Returns true if the contract is paused, and false otherwise."
      },
      "renounceRole(bytes32,address)": {
        "details": "Revokes `role` from the calling account. Roles are often managed via {grantRole} and {revokeRole}: this function's purpose is to provide a mechanism for accounts to lose their privileges if they are compromised (such as when a trusted device is misplaced). If the calling account had been granted `role`, emits a {RoleRevoked} event. Requirements: - the caller must be `account`."
      },
      "revokeRole(bytes32,address)": {
        "details": "Revokes `role` from `account`. If `account` had been granted `role`, emits a {RoleRevoked} event. Requirements: - the caller must have ``role``'s admin role."
      },
      "supportsInterface(bytes4)": {
        "details": "See {IERC165-supportsInterface}."
      },
      "symbol()": {
        "details": "Returns the symbol of the token, usually a shorter version of the name."
      },
      "totalSupply()": {
        "details": "See {IERC20-totalSupply}."
      },
      "transfer(address,uint256)": {
        "details": "See {IERC20-transfer}. Requirements: - `recipient` cannot be the zero address. - the caller must have a balance of at least `amount`."
      },
      "transferFrom(address,address,uint256)": {
        "details": "See {IERC20-transferFrom}. Emits an {Approval} event indicating the updated allowance. This is not required by the EIP. See the note at the beginning of {ERC20}. Requirements: - `sender` and `recipient` cannot be the zero address. - `sender` must have a balance of at least `amount`. - the caller must have allowance for ``sender``'s tokens of at least `amount`."
      }
    },
    "version": 1
  },
  "userdoc": {
    "kind": "user",
    "methods": {},
    "version": 1
  }
}