{
  "contractName": "OflightsFarm",
  "abi": [
    {
      "inputs": [
        {
          "internalType": "contract IERC20",
          "name": "_ofly",
          "type": "address"
        },
        {
          "internalType": "uint256",
          "name": "_oflyPerSecond",
          "type": "uint256"
        },
        {
          "internalType": "uint32",
          "name": "_startTime",
          "type": "uint32"
        }
      ],
      "stateMutability": "nonpayable",
      "type": "constructor"
    },
    {
      "anonymous": false,
      "inputs": [
        {
          "indexed": true,
          "internalType": "address",
          "name": "user",
          "type": "address"
        },
        {
          "indexed": true,
          "internalType": "uint256",
          "name": "pid",
          "type": "uint256"
        },
        {
          "indexed": false,
          "internalType": "uint256",
          "name": "amount",
          "type": "uint256"
        }
      ],
      "name": "Deposit",
      "type": "event"
    },
    {
      "anonymous": false,
      "inputs": [
        {
          "indexed": true,
          "internalType": "address",
          "name": "user",
          "type": "address"
        },
        {
          "indexed": true,
          "internalType": "uint256",
          "name": "pid",
          "type": "uint256"
        },
        {
          "indexed": false,
          "internalType": "uint256",
          "name": "amount",
          "type": "uint256"
        }
      ],
      "name": "EmergencyWithdraw",
      "type": "event"
    },
    {
      "anonymous": false,
      "inputs": [
        {
          "indexed": true,
          "internalType": "address",
          "name": "previousOwner",
          "type": "address"
        },
        {
          "indexed": true,
          "internalType": "address",
          "name": "newOwner",
          "type": "address"
        }
      ],
      "name": "OwnershipTransferred",
      "type": "event"
    },
    {
      "anonymous": false,
      "inputs": [
        {
          "indexed": true,
          "internalType": "address",
          "name": "user",
          "type": "address"
        },
        {
          "indexed": true,
          "internalType": "uint256",
          "name": "pid",
          "type": "uint256"
        },
        {
          "indexed": false,
          "internalType": "uint256",
          "name": "amount",
          "type": "uint256"
        }
      ],
      "name": "Withdraw",
      "type": "event"
    },
    {
      "inputs": [],
      "name": "ofly",
      "outputs": [
        {
          "internalType": "contract IERC20",
          "name": "",
          "type": "address"
        }
      ],
      "stateMutability": "view",
      "type": "function",
      "constant": true
    },
    {
      "inputs": [],
      "name": "oflyPerSecond",
      "outputs": [
        {
          "internalType": "uint256",
          "name": "",
          "type": "uint256"
        }
      ],
      "stateMutability": "view",
      "type": "function",
      "constant": true
    },
    {
      "inputs": [],
      "name": "owner",
      "outputs": [
        {
          "internalType": "address",
          "name": "",
          "type": "address"
        }
      ],
      "stateMutability": "view",
      "type": "function",
      "constant": true
    },
    {
      "inputs": [
        {
          "internalType": "uint256",
          "name": "",
          "type": "uint256"
        }
      ],
      "name": "poolInfo",
      "outputs": [
        {
          "internalType": "contract IERC20",
          "name": "stakingToken",
          "type": "address"
        },
        {
          "internalType": "uint256",
          "name": "stakingTokenTotalAmount",
          "type": "uint256"
        },
        {
          "internalType": "uint256",
          "name": "accOflyPerShare",
          "type": "uint256"
        },
        {
          "internalType": "uint32",
          "name": "lastRewardTime",
          "type": "uint32"
        },
        {
          "internalType": "uint16",
          "name": "allocPoint",
          "type": "uint16"
        }
      ],
      "stateMutability": "view",
      "type": "function",
      "constant": true
    },
    {
      "inputs": [],
      "name": "renounceOwnership",
      "outputs": [],
      "stateMutability": "nonpayable",
      "type": "function"
    },
    {
      "inputs": [],
      "name": "startTime",
      "outputs": [
        {
          "internalType": "uint32",
          "name": "",
          "type": "uint32"
        }
      ],
      "stateMutability": "view",
      "type": "function",
      "constant": true
    },
    {
      "inputs": [],
      "name": "totalAllocPoint",
      "outputs": [
        {
          "internalType": "uint256",
          "name": "",
          "type": "uint256"
        }
      ],
      "stateMutability": "view",
      "type": "function",
      "constant": true
    },
    {
      "inputs": [
        {
          "internalType": "address",
          "name": "newOwner",
          "type": "address"
        }
      ],
      "name": "transferOwnership",
      "outputs": [],
      "stateMutability": "nonpayable",
      "type": "function"
    },
    {
      "inputs": [
        {
          "internalType": "uint256",
          "name": "",
          "type": "uint256"
        },
        {
          "internalType": "address",
          "name": "",
          "type": "address"
        }
      ],
      "name": "userInfo",
      "outputs": [
        {
          "internalType": "uint256",
          "name": "amount",
          "type": "uint256"
        },
        {
          "internalType": "uint256",
          "name": "rewardDebt",
          "type": "uint256"
        },
        {
          "internalType": "uint256",
          "name": "remainingOflyTokenReward",
          "type": "uint256"
        }
      ],
      "stateMutability": "view",
      "type": "function",
      "constant": true
    },
    {
      "inputs": [
        {
          "internalType": "uint256",
          "name": "_oflyPerSecond",
          "type": "uint256"
        },
        {
          "internalType": "bool",
          "name": "_withUpdate",
          "type": "bool"
        }
      ],
      "name": "setOflyPerSecond",
      "outputs": [],
      "stateMutability": "nonpayable",
      "type": "function"
    },
    {
      "inputs": [],
      "name": "poolLength",
      "outputs": [
        {
          "internalType": "uint256",
          "name": "",
          "type": "uint256"
        }
      ],
      "stateMutability": "view",
      "type": "function",
      "constant": true
    },
    {
      "inputs": [
        {
          "internalType": "uint16",
          "name": "_allocPoint",
          "type": "uint16"
        },
        {
          "internalType": "contract IERC20",
          "name": "_stakingToken",
          "type": "address"
        },
        {
          "internalType": "bool",
          "name": "_withUpdate",
          "type": "bool"
        }
      ],
      "name": "add",
      "outputs": [],
      "stateMutability": "nonpayable",
      "type": "function"
    },
    {
      "inputs": [
        {
          "internalType": "uint256",
          "name": "_pid",
          "type": "uint256"
        },
        {
          "internalType": "uint16",
          "name": "_allocPoint",
          "type": "uint16"
        },
        {
          "internalType": "bool",
          "name": "_withUpdate",
          "type": "bool"
        }
      ],
      "name": "set",
      "outputs": [],
      "stateMutability": "nonpayable",
      "type": "function"
    },
    {
      "inputs": [
        {
          "internalType": "uint256",
          "name": "_pid",
          "type": "uint256"
        },
        {
          "internalType": "address",
          "name": "_user",
          "type": "address"
        }
      ],
      "name": "pendingOfly",
      "outputs": [
        {
          "internalType": "uint256",
          "name": "",
          "type": "uint256"
        }
      ],
      "stateMutability": "view",
      "type": "function",
      "constant": true
    },
    {
      "inputs": [],
      "name": "massUpdatePools",
      "outputs": [],
      "stateMutability": "nonpayable",
      "type": "function"
    },
    {
      "inputs": [
        {
          "internalType": "uint256",
          "name": "_pid",
          "type": "uint256"
        }
      ],
      "name": "updatePool",
      "outputs": [],
      "stateMutability": "nonpayable",
      "type": "function"
    },
    {
      "inputs": [
        {
          "internalType": "uint256",
          "name": "_pid",
          "type": "uint256"
        },
        {
          "internalType": "uint256",
          "name": "_amount",
          "type": "uint256"
        }
      ],
      "name": "deposit",
      "outputs": [],
      "stateMutability": "nonpayable",
      "type": "function"
    },
    {
      "inputs": [
        {
          "internalType": "uint256",
          "name": "_pid",
          "type": "uint256"
        },
        {
          "internalType": "uint256",
          "name": "_amount",
          "type": "uint256"
        }
      ],
      "name": "withdraw",
      "outputs": [],
      "stateMutability": "nonpayable",
      "type": "function"
    },
    {
      "inputs": [
        {
          "internalType": "uint256",
          "name": "_pid",
          "type": "uint256"
        }
      ],
      "name": "emergencyWithdraw",
      "outputs": [],
      "stateMutability": "nonpayable",
      "type": "function"
    }
  ],
  "bytecode": "0x60c0604052600060045534801561001557600080fd5b506040516117ce3803806117ce833981016040819052610034916100b7565b600061003e6100b3565b600080546001600160a01b0319166001600160a01b0383169081178255604051929350917f8be0079c531659141344cd1fd0a4f28419497f9722a3daafe3b4186f6b6457e0908290a35060609290921b6001600160601b03191660805260015560e01b6001600160e01b03191660a05261010c565b3390565b6000806000606084860312156100cb578283fd5b83516001600160a01b03811681146100e1578384fd5b60208501516040860151919450925063ffffffff81168114610101578182fd5b809150509250925092565b60805160601c60a05160e01c61167461015a60003960008181610703015281816107b101526107de01526000818161062b01528181610df701528181610eb60152610efc01526116746000f3fe608060405234801561001057600080fd5b50600436106101115760003560e01c8063715018a6116100ad578063a353383511610071578063a35338351461021a578063d1c1b4a81461022d578063e2bbb15814610240578063f2fde38b14610253578063fc7fd9781461026657610111565b8063715018a6146101c057806378e97925146101c85780638da5cb5b146101dd57806393f1a40b146101e557806398ec8da61461020757610111565b8063081e3eda146101165780631526fe271461013457806317caf6f114610158578063195b4c0214610160578063441a3e701461016857806351eb05a61461017d5780635312ea8e146101905780635356c03b146101a3578063630b5ba1146101b8575b600080fd5b61011e610279565b60405161012b9190611520565b60405180910390f35b6101476101423660046111f0565b61027f565b60405161012b959493929190611325565b61011e6102d7565b61011e6102dd565b61017b610176366004611297565b6102e3565b005b61017b61018b3660046111f0565b61046f565b61017b61019e3660046111f0565b610567565b6101ab610629565b60405161012b91906112d4565b61017b61064d565b61017b610678565b6101d0610701565b60405161012b919061153f565b6101ab610725565b6101f86101f3366004611220565b610734565b60405161012b93929190611529565b61017b6102153660046111a8565b610760565b61011e610228366004611220565b610958565b61017b61023b366004611273565b610a82565b61017b61024e366004611297565b610b88565b61017b610261366004611170565b610cdf565b61017b61027436600461124f565b610d9f565b60025490565b6002818154811061028f57600080fd5b600091825260209091206004909102018054600182015460028301546003909301546001600160a01b039092169350919063ffffffff811690640100000000900461ffff1685565b60045481565b60015481565b60006002838154811061030657634e487b7160e01b600052603260045260246000fd5b6000918252602080832086845260038252604080852033865290925292208054600490920290920192508311156103585760405162461bcd60e51b815260040161034f906113d6565b60405180910390fd5b6103618461046f565b60008160020154826001015464e8d4a51000856002015485600001546103879190611588565b6103919190611568565b61039b91906115a7565b6103a59190611550565b90506103b13382610df2565b60028301558154849083906000906103ca9084906115a7565b92505081905550838360010160008282546103e591906115a7565b90915550506002830154825464e8d4a510009161040191611588565b61040b9190611568565b60018301558254610426906001600160a01b03163386610f2d565b84336001600160a01b03167ff279e6a1f5e320cca91135676d9cb6e44ca8a08c0b88342bcdb1144f6511b568866040516104609190611520565b60405180910390a35050505050565b60006002828154811061049257634e487b7160e01b600052603260045260246000fd5b60009182526020909120600490910201600381015490915063ffffffff1642116104bc5750610564565b60018101546104e057600301805463ffffffff19164263ffffffff16179055610564565b60006004548260030160049054906101000a900461ffff1661ffff166001546105099190611588565b6105139190611568565b600183015490915061052a8264e8d4a51000611588565b6105349190611568565b8260020160008282546105479190611550565b909155505050600301805463ffffffff19164263ffffffff161790555b50565b60006002828154811061058a57634e487b7160e01b600052603260045260246000fd5b600091825260208083208584526003825260408085203380875293528420805485825560018201869055600282019590955560049093020180549094509192916105e1916001600160a01b03919091169083610f2d565b83336001600160a01b03167fbb757047c2b5f3974fe26b7c10f732e7bce710b0952a71082702781e62ae05958360405161061b9190611520565b60405180910390a350505050565b7f000000000000000000000000000000000000000000000000000000000000000081565b60025460005b81811015610674576106648161046f565b61066d816115ea565b9050610653565b5050565b610680610f88565b6001600160a01b0316610691610725565b6001600160a01b0316146106b75760405162461bcd60e51b815260040161034f9061146a565b600080546040516001600160a01b03909116907f8be0079c531659141344cd1fd0a4f28419497f9722a3daafe3b4186f6b6457e0908390a3600080546001600160a01b0319169055565b7f000000000000000000000000000000000000000000000000000000000000000081565b6000546001600160a01b031690565b600360209081526000928352604080842090915290825290208054600182015460029092015490919083565b610768610f88565b6001600160a01b0316610779610725565b6001600160a01b03161461079f5760405162461bcd60e51b815260040161034f9061146a565b80156107ad576107ad61064d565b60007f000000000000000000000000000000000000000000000000000000000000000063ffffffff164211610808577f000000000000000000000000000000000000000000000000000000000000000063ffffffff1661080a565b425b90508361ffff16600460008282546108229190611550565b90915550506040805160a0810182526001600160a01b03948516815260006020820181815292820181815263ffffffff9485166060840190815261ffff9889166080850190815260028054600181018255945293517f405787fa12a823e0f2b7631cc41b3ba8828b3321ca811111fa75cd3aa3bb5ace600490940293840180546001600160a01b031916919099161790975592517f405787fa12a823e0f2b7631cc41b3ba8828b3321ca811111fa75cd3aa3bb5acf82015591517f405787fa12a823e0f2b7631cc41b3ba8828b3321ca811111fa75cd3aa3bb5ad083015593517f405787fa12a823e0f2b7631cc41b3ba8828b3321ca811111fa75cd3aa3bb5ad19091018054945163ffffffff19909516919092161765ffff000000001916640100000000939094169290920292909217905550565b6000806002848154811061097c57634e487b7160e01b600052603260045260246000fd5b60009182526020808320878452600380835260408086206001600160a01b038a168752909352919093206002600490930290930191820154908201549193509063ffffffff16421180156109d35750600183015415155b15610a3a5760006004548460030160049054906101000a900461ffff1661ffff16600154610a019190611588565b610a0b9190611568565b6001850154909150610a228264e8d4a51000611588565b610a2c9190611568565b610a369083611550565b9150505b60028201546001830154835464e8d4a5100090610a58908590611588565b610a629190611568565b610a6c91906115a7565b610a769190611550565b93505050505b92915050565b610a8a610f88565b6001600160a01b0316610a9b610725565b6001600160a01b031614610ac15760405162461bcd60e51b815260040161034f9061146a565b8015610acf57610acf61064d565b8161ffff1660028481548110610af557634e487b7160e01b600052603260045260246000fd5b906000526020600020906004020160030160049054906101000a900461ffff1661ffff16600454610b2691906115a7565b610b309190611550565b6004819055508160028481548110610b5857634e487b7160e01b600052603260045260246000fd5b906000526020600020906004020160030160046101000a81548161ffff021916908361ffff160217905550505050565b600060028381548110610bab57634e487b7160e01b600052603260045260246000fd5b60009182526020808320868452600382526040808520338652909252922060049091029091019150610bdc8461046f565b805415610c3a5760008160020154826001015464e8d4a5100085600201548560000154610c099190611588565b610c139190611568565b610c1d91906115a7565b610c279190611550565b9050610c333382610df2565b6002830155505b8154610c51906001600160a01b0316333086610f8c565b82816000016000828254610c659190611550565b9250508190555082826001016000828254610c809190611550565b90915550506002820154815464e8d4a5100091610c9c91611588565b610ca69190611568565b6001820155604051849033907f90890809c654f11d6e72a28fa60149770a0d11ec6c92319d6ceb2bb0a4ea1a159061061b908790611520565b610ce7610f88565b6001600160a01b0316610cf8610725565b6001600160a01b031614610d1e5760405162461bcd60e51b815260040161034f9061146a565b6001600160a01b038116610d445760405162461bcd60e51b815260040161034f90611390565b600080546040516001600160a01b03808516939216917f8be0079c531659141344cd1fd0a4f28419497f9722a3daafe3b4186f6b6457e091a3600080546001600160a01b0319166001600160a01b0392909216919091179055565b610da7610f88565b6001600160a01b0316610db8610725565b6001600160a01b031614610dde5760405162461bcd60e51b815260040161034f9061146a565b8015610dec57610dec61064d565b50600155565b6000807f00000000000000000000000000000000000000000000000000000000000000006001600160a01b03166370a08231306040518263ffffffff1660e01b8152600401610e4191906112d4565b60206040518083038186803b158015610e5957600080fd5b505afa158015610e6d573d6000803e3d6000fd5b505050506040513d601f19601f82011682018060405250810190610e919190611208565b905080610ea15782915050610a7c565b80831115610eef57610edd6001600160a01b037f0000000000000000000000000000000000000000000000000000000000000000168583610f2d565b610ee781846115a7565b915050610a7c565b610f236001600160a01b037f0000000000000000000000000000000000000000000000000000000000000000168585610f2d565b5060009392505050565b610f838363a9059cbb60e01b8484604051602401610f4c92919061130c565b60408051601f198184030181529190526020810180516001600160e01b03166001600160e01b031990931692909217909152610fb3565b505050565b3390565b610fad846323b872dd60e01b858585604051602401610f4c939291906112e8565b50505050565b6000611008826040518060400160405280602081526020017f5361666545524332303a206c6f772d6c6576656c2063616c6c206661696c6564815250856001600160a01b03166110429092919063ffffffff16565b805190915015610f835780806020019051810190611026919061118c565b610f835760405162461bcd60e51b815260040161034f906114d6565b6060611051848460008561105b565b90505b9392505050565b60608247101561107d5760405162461bcd60e51b815260040161034f90611424565b6110868561111b565b6110a25760405162461bcd60e51b815260040161034f9061149f565b600080866001600160a01b031685876040516110be91906112b8565b60006040518083038185875af1925050503d80600081146110fb576040519150601f19603f3d011682016040523d82523d6000602084013e611100565b606091505b5091509150611110828286611125565b979650505050505050565b803b15155b919050565b60608315611134575081611054565b8251156111445782518084602001fd5b8160405162461bcd60e51b815260040161034f919061135d565b803561ffff8116811461112057600080fd5b600060208284031215611181578081fd5b81356110548161161b565b60006020828403121561119d578081fd5b815161105481611630565b6000806000606084860312156111bc578182fd5b6111c58461115e565b925060208401356111d58161161b565b915060408401356111e581611630565b809150509250925092565b600060208284031215611201578081fd5b5035919050565b600060208284031215611219578081fd5b5051919050565b60008060408385031215611232578182fd5b8235915060208301356112448161161b565b809150509250929050565b60008060408385031215611261578182fd5b82359150602083013561124481611630565b600080600060608486031215611287578283fd5b833592506111d56020850161115e565b600080604083850312156112a9578182fd5b50508035926020909101359150565b600082516112ca8184602087016115be565b9190910192915050565b6001600160a01b0391909116815260200190565b6001600160a01b039384168152919092166020820152604081019190915260600190565b6001600160a01b03929092168252602082015260400190565b6001600160a01b039590951685526020850193909352604084019190915263ffffffff16606083015261ffff16608082015260a00190565b600060208252825180602084015261137c8160408501602087016115be565b601f01601f19169190910160400192915050565b60208082526026908201527f4f776e61626c653a206e6577206f776e657220697320746865207a65726f206160408201526564647265737360d01b606082015260800190565b6020808252602e908201527f4f666c69676874734661726d3a20796f752063616e742065617420746861742060408201526d6d75636820706f707369636c657360901b606082015260800190565b60208082526026908201527f416464726573733a20696e73756666696369656e742062616c616e636520666f6040820152651c8818d85b1b60d21b606082015260800190565b6020808252818101527f4f776e61626c653a2063616c6c6572206973206e6f7420746865206f776e6572604082015260600190565b6020808252601d908201527f416464726573733a2063616c6c20746f206e6f6e2d636f6e7472616374000000604082015260600190565b6020808252602a908201527f5361666545524332303a204552433230206f7065726174696f6e20646964206e6040820152691bdd081cdd58d8d9595960b21b606082015260800190565b90815260200190565b9283526020830191909152604082015260600190565b63ffffffff91909116815260200190565b6000821982111561156357611563611605565b500190565b60008261158357634e487b7160e01b81526012600452602481fd5b500490565b60008160001904831182151516156115a2576115a2611605565b500290565b6000828210156115b9576115b9611605565b500390565b60005b838110156115d95781810151838201526020016115c1565b83811115610fad5750506000910152565b60006000198214156115fe576115fe611605565b5060010190565b634e487b7160e01b600052601160045260246000fd5b6001600160a01b038116811461056457600080fd5b801515811461056457600080fdfea2646970667358221220ebb44fe9c50542a62ccd0f5f326f33ec2ecf54c25f0cb86cc3a5cbeefc234a0f64736f6c63430008000033",
  "immutableReferences": {
    "747": [
      {
        "length": 32,
        "start": 1579
      },
      {
        "length": 32,
        "start": 3575
      },
      {
        "length": 32,
        "start": 3766
      },
      {
        "length": 32,
        "start": 3836
      }
    ],
    "765": [
      {
        "length": 32,
        "start": 1795
      },
      {
        "length": 32,
        "start": 1969
      },
      {
        "length": 32,
        "start": 2014
      }
    ]
  },
  "source": "// SPDX-Loflynse-Identifier: MIT\n\npragma solidity ^0.8.0;\n\n/*\n * @dev Provides information about the current execution context, including the\n * sender of the transaction and its data. While these are generally available\n * via msg.sender and msg.data, they should not be accessed in such a direct\n * manner, since when dealing with meta-transactions the account sending and\n * paying for execution may not be the actual sender (as far as an application\n * is concerned).\n *\n * This contract is only required for intermediate, library-like contracts.\n */\nabstract contract Context {\n    function _msgSender() internal view virtual returns (address) {\n        return msg.sender;\n    }\n\n    function _msgData() internal view virtual returns (bytes calldata) {\n        this; // silence state mutability warning without generating bytecode - see https://github.com/ethereum/solidity/issues/2691\n        return msg.data;\n    }\n}\n\n/**\n * @dev Collection of functions related to the address type\n */\nlibrary Address {\n    /**\n     * @dev Returns true if `account` is a contract.\n     *\n     * [IMPORTANT]\n     * ====\n     * It is unsafe to assume that an address for which this function returns\n     * false is an externally-owned account (EOA) and not a contract.\n     *\n     * Among others, `isContract` will return false for the following\n     * types of addresses:\n     *\n     *  - an externally-owned account\n     *  - a contract in construction\n     *  - an address where a contract will be created\n     *  - an address where a contract lived, but was destroyed\n     * ====\n     */\n    function isContract(address account) internal view returns (bool) {\n        // This method relies on extcodesize, which returns 0 for contracts in\n        // construction, since the code is only stored at the end of the\n        // constructor execution.\n\n        uint256 size;\n        // solhint-disable-next-line no-inline-assembly\n        assembly { size := extcodesize(account) }\n        return size > 0;\n    }\n\n    /**\n     * @dev Replacement for Solidity's `transfer`: sends `amount` wei to\n     * `recipient`, forwarding all available gas and reverting on errors.\n     *\n     * https://eips.ethereum.org/EIPS/eip-1884[EIP1884] increases the gas cost\n     * of certain opcodes, possibly making contracts go over the 2300 gas limit\n     * imposed by `transfer`, making them unable to receive funds via\n     * `transfer`. {sendValue} removes this limitation.\n     *\n     * https://diligence.consensys.net/posts/2019/09/stop-using-soliditys-transfer-now/[Learn more].\n     *\n     * IMPORTANT: because control is transferred to `recipient`, care must be\n     * taken to not create reentrancy vulnerabilities. Consider using\n     * {ReentrancyGuard} or the\n     * https://solidity.readthedocs.io/en/v0.5.11/security-considerations.html#use-the-checks-effects-interactions-pattern[checks-effects-interactions pattern].\n     */\n    function sendValue(address payable recipient, uint256 amount) internal {\n        require(address(this).balance >= amount, \"Address: insufficient balance\");\n\n        // solhint-disable-next-line avoid-low-level-calls, avoid-call-value\n        (bool success, ) = recipient.call{ value: amount }(\"\");\n        require(success, \"Address: unable to send value, recipient may have reverted\");\n    }\n\n    /**\n     * @dev Performs a Solidity function call using a low level `call`. A\n     * plain`call` is an unsafe replacement for a function call: use this\n     * function instead.\n     *\n     * If `target` reverts with a revert reason, it is bubbled up by this\n     * function (like regular Solidity function calls).\n     *\n     * Returns the raw returned data. To convert to the expected return value,\n     * use https://solidity.readthedocs.io/en/latest/units-and-global-variables.html?highlight=abi.decode#abi-encoding-and-decoding-functions[`abi.decode`].\n     *\n     * Requirements:\n     *\n     * - `target` must be a contract.\n     * - calling `target` with `data` must not revert.\n     *\n     * _Available since v3.1._\n     */\n    function functionCall(address target, bytes memory data) internal returns (bytes memory) {\n      return functionCall(target, data, \"Address: low-level call failed\");\n    }\n\n    /**\n     * @dev Same as {xref-Address-functionCall-address-bytes-}[`functionCall`], but with\n     * `errorMessage` as a fallback revert reason when `target` reverts.\n     *\n     * _Available since v3.1._\n     */\n    function functionCall(address target, bytes memory data, string memory errorMessage) internal returns (bytes memory) {\n        return functionCallWithValue(target, data, 0, errorMessage);\n    }\n\n    /**\n     * @dev Same as {xref-Address-functionCall-address-bytes-}[`functionCall`],\n     * but also transferring `value` wei to `target`.\n     *\n     * Requirements:\n     *\n     * - the calling contract must have an ETH balance of at least `value`.\n     * - the called Solidity function must be `payable`.\n     *\n     * _Available since v3.1._\n     */\n    function functionCallWithValue(address target, bytes memory data, uint256 value) internal returns (bytes memory) {\n        return functionCallWithValue(target, data, value, \"Address: low-level call with value failed\");\n    }\n\n    /**\n     * @dev Same as {xref-Address-functionCallWithValue-address-bytes-uint256-}[`functionCallWithValue`], but\n     * with `errorMessage` as a fallback revert reason when `target` reverts.\n     *\n     * _Available since v3.1._\n     */\n    function functionCallWithValue(address target, bytes memory data, uint256 value, string memory errorMessage) internal returns (bytes memory) {\n        require(address(this).balance >= value, \"Address: insufficient balance for call\");\n        require(isContract(target), \"Address: call to non-contract\");\n\n        // solhint-disable-next-line avoid-low-level-calls\n        (bool success, bytes memory returndata) = target.call{ value: value }(data);\n        return _verifyCallResult(success, returndata, errorMessage);\n    }\n\n    /**\n     * @dev Same as {xref-Address-functionCall-address-bytes-}[`functionCall`],\n     * but performing a static call.\n     *\n     * _Available since v3.3._\n     */\n    function functionStaticCall(address target, bytes memory data) internal view returns (bytes memory) {\n        return functionStaticCall(target, data, \"Address: low-level static call failed\");\n    }\n\n    /**\n     * @dev Same as {xref-Address-functionCall-address-bytes-string-}[`functionCall`],\n     * but performing a static call.\n     *\n     * _Available since v3.3._\n     */\n    function functionStaticCall(address target, bytes memory data, string memory errorMessage) internal view returns (bytes memory) {\n        require(isContract(target), \"Address: static call to non-contract\");\n\n        // solhint-disable-next-line avoid-low-level-calls\n        (bool success, bytes memory returndata) = target.staticcall(data);\n        return _verifyCallResult(success, returndata, errorMessage);\n    }\n\n    /**\n     * @dev Same as {xref-Address-functionCall-address-bytes-}[`functionCall`],\n     * but performing a delegate call.\n     *\n     * _Available since v3.4._\n     */\n    function functionDelegateCall(address target, bytes memory data) internal returns (bytes memory) {\n        return functionDelegateCall(target, data, \"Address: low-level delegate call failed\");\n    }\n\n    /**\n     * @dev Same as {xref-Address-functionCall-address-bytes-string-}[`functionCall`],\n     * but performing a delegate call.\n     *\n     * _Available since v3.4._\n     */\n    function functionDelegateCall(address target, bytes memory data, string memory errorMessage) internal returns (bytes memory) {\n        require(isContract(target), \"Address: delegate call to non-contract\");\n\n        // solhint-disable-next-line avoid-low-level-calls\n        (bool success, bytes memory returndata) = target.delegatecall(data);\n        return _verifyCallResult(success, returndata, errorMessage);\n    }\n\n    function _verifyCallResult(bool success, bytes memory returndata, string memory errorMessage) private pure returns(bytes memory) {\n        if (success) {\n            return returndata;\n        } else {\n            // Look for revert reason and bubble it up if present\n            if (returndata.length > 0) {\n                // The easiest way to bubble the revert reason is using memory via assembly\n\n                // solhint-disable-next-line no-inline-assembly\n                assembly {\n                    let returndata_size := mload(returndata)\n                    revert(add(32, returndata), returndata_size)\n                }\n            } else {\n                revert(errorMessage);\n            }\n        }\n    }\n}\n\n/**\n * @dev Interface of the ERC20 standard as defined in the EIP.\n */\ninterface IERC20 {\n    /**\n     * @dev Returns the amount of tokens in existence.\n     */\n    function totalSupply() external view returns (uint256);\n\n    /**\n     * @dev Returns the amount of tokens owned by `account`.\n     */\n    function balanceOf(address account) external view returns (uint256);\n\n    /**\n     * @dev Moves `amount` tokens from the caller's account to `recipient`.\n     *\n     * Returns a boolean value indicating whether the operation succeeded.\n     *\n     * Emits a {Transfer} event.\n     */\n    function transfer(address recipient, uint256 amount) external returns (bool);\n\n    /**\n     * @dev Returns the remaining number of tokens that `spender` will be\n     * allowed to spend on behalf of `owner` through {transferFrom}. This is\n     * zero by default.\n     *\n     * This value changes when {approve} or {transferFrom} are called.\n     */\n    function allowance(address owner, address spender) external view returns (uint256);\n\n    /**\n     * @dev Sets `amount` as the allowance of `spender` over the caller's tokens.\n     *\n     * Returns a boolean value indicating whether the operation succeeded.\n     *\n     * IMPORTANT: Beware that changing an allowance with this method brings the risk\n     * that someone may use both the old and the new allowance by unfortunate\n     * transaction ordering. One possible solution to mitigate this race\n     * condition is to first reduce the spender's allowance to 0 and set the\n     * desired value afterwards:\n     * https://github.com/ethereum/EIPs/issues/20#issuecomment-263524729\n     *\n     * Emits an {Approval} event.\n     */\n    function approve(address spender, uint256 amount) external returns (bool);\n\n    /**\n     * @dev Moves `amount` tokens from `sender` to `recipient` using the\n     * allowance mechanism. `amount` is then deducted from the caller's\n     * allowance.\n     *\n     * Returns a boolean value indicating whether the operation succeeded.\n     *\n     * Emits a {Transfer} event.\n     */\n    function transferFrom(address sender, address recipient, uint256 amount) external returns (bool);\n\n    /**\n     * @dev Emitted when `value` tokens are moved from one account (`from`) to\n     * another (`to`).\n     *\n     * Note that `value` may be zero.\n     */\n    event Transfer(address indexed from, address indexed to, uint256 value);\n\n    /**\n     * @dev Emitted when the allowance of a `spender` for an `owner` is set by\n     * a call to {approve}. `value` is the new allowance.\n     */\n    event Approval(address indexed owner, address indexed spender, uint256 value);\n}\n\n/**\n * @dev Contract module which provides a basic access control mechanism, where\n * there is an account (an owner) that can be granted exclusive access to\n * specific functions.\n *\n * By default, the owner account will be the one that deploys the contract. This\n * can later be changed with {transferOwnership}.\n *\n * This module is used through inheritance. It will make available the modifier\n * `onlyOwner`, which can be applied to your functions to restrict their use to\n * the owner.\n */\nabstract contract Ownable is Context {\n    address private _owner;\n\n    event OwnershipTransferred(address indexed previousOwner, address indexed newOwner);\n\n    /**\n     * @dev Initializes the contract setting the deployer as the initial owner.\n     */\n    constructor () {\n        address msgSender = _msgSender();\n        _owner = msgSender;\n        emit OwnershipTransferred(address(0), msgSender);\n    }\n\n    /**\n     * @dev Returns the address of the current owner.\n     */\n    function owner() public view virtual returns (address) {\n        return _owner;\n    }\n\n    /**\n     * @dev Throws if called by any account other than the owner.\n     */\n    modifier onlyOwner() {\n        require(owner() == _msgSender(), \"Ownable: caller is not the owner\");\n        _;\n    }\n\n    /**\n     * @dev Leaves the contract without owner. It will not be possible to call\n     * `onlyOwner` functions anymore. Can only be called by the current owner.\n     *\n     * NOTE: Renouncing ownership will leave the contract without an owner,\n     * thereby removing any functionality that is only available to the owner.\n     */\n    function renounceOwnership() public virtual onlyOwner {\n        emit OwnershipTransferred(_owner, address(0));\n        _owner = address(0);\n    }\n\n    /**\n     * @dev Transfers ownership of the contract to a new account (`newOwner`).\n     * Can only be called by the current owner.\n     */\n    function transferOwnership(address newOwner) public virtual onlyOwner {\n        require(newOwner != address(0), \"Ownable: new owner is the zero address\");\n        emit OwnershipTransferred(_owner, newOwner);\n        _owner = newOwner;\n    }\n}\n\n/**\n * @title SafeERC20\n * @dev Wrappers around ERC20 operations that throw on failure (when the token\n * contract returns false). Tokens that return no value (and instead revert or\n * throw on failure) are also supported, non-reverting calls are assumed to be\n * successful.\n * To use this library you can add a `using SafeERC20 for IERC20;` statement to your contract,\n * which allows you to call the safe operations as `token.safeTransfer(...)`, etc.\n */\nlibrary SafeERC20 {\n    using Address for address;\n\n    function safeTransfer(IERC20 token, address to, uint256 value) internal {\n        _callOptionalReturn(token, abi.encodeWithSelector(token.transfer.selector, to, value));\n    }\n\n    function safeTransferFrom(IERC20 token, address from, address to, uint256 value) internal {\n        _callOptionalReturn(token, abi.encodeWithSelector(token.transferFrom.selector, from, to, value));\n    }\n\n    /**\n     * @dev Deprecated. This function has issues similar to the ones found in\n     * {IERC20-approve}, and its usage is discouraged.\n     *\n     * Whenever possible, use {safeIncreaseAllowance} and\n     * {safeDecreaseAllowance} instead.\n     */\n    function safeApprove(IERC20 token, address spender, uint256 value) internal {\n        // safeApprove should only be called when setting an initial allowance,\n        // or when resetting it to zero. To increase and decrease it, use\n        // 'safeIncreaseAllowance' and 'safeDecreaseAllowance'\n        // solhint-disable-next-line max-line-length\n        require((value == 0) || (token.allowance(address(this), spender) == 0),\n            \"SafeERC20: approve from non-zero to non-zero allowance\"\n        );\n        _callOptionalReturn(token, abi.encodeWithSelector(token.approve.selector, spender, value));\n    }\n\n    function safeIncreaseAllowance(IERC20 token, address spender, uint256 value) internal {\n        uint256 newAllowance = token.allowance(address(this), spender) + value;\n        _callOptionalReturn(token, abi.encodeWithSelector(token.approve.selector, spender, newAllowance));\n    }\n\n    function safeDecreaseAllowance(IERC20 token, address spender, uint256 value) internal {\n        unchecked {\n            uint256 oldAllowance = token.allowance(address(this), spender);\n            require(oldAllowance >= value, \"SafeERC20: decreased allowance below zero\");\n            uint256 newAllowance = oldAllowance - value;\n            _callOptionalReturn(token, abi.encodeWithSelector(token.approve.selector, spender, newAllowance));\n        }\n    }\n\n    /**\n     * @dev Imitates a Solidity high-level call (i.e. a regular function call to a contract), relaxing the requirement\n     * on the return value: the return value is optional (but if data is returned, it must not be false).\n     * @param token The token targeted by the call.\n     * @param data The call data (encoded using abi.encode or one of its variants).\n     */\n    function _callOptionalReturn(IERC20 token, bytes memory data) private {\n        // We need to perform a low level call here, to bypass Solidity's return data size checking mechanism, since\n        // we're implementing it ourselves. We use {Address.functionCall} to perform this call, which verifies that\n        // the target address contains contract code and also asserts for success in the low-level call.\n\n        bytes memory returndata = address(token).functionCall(data, \"SafeERC20: low-level call failed\");\n        if (returndata.length > 0) { // Return data is optional\n            // solhint-disable-next-line max-line-length\n            require(abi.decode(returndata, (bool)), \"SafeERC20: ERC20 operation did not succeed\");\n        }\n    }\n}\n\ncontract OflightsFarm is Ownable {\n    using SafeERC20 for IERC20;\n    // Info of each user.\n    struct UserInfo {\n        uint256 amount; // How many LP tokens the user has provided.\n        uint256 rewardDebt; // Reward debt. See explanation below.\n        uint256 remainingOflyTokenReward;  // OFLY Tokens that weren't distributed for user per pool.\n        //\n        // We do some fancy math here. Basically, any point in time, the amount of OFLY\n        // entitled to a user but is pending to be distributed is:\n        //\n        //   pending reward = (user.amount * pool.accOFLYPerShare) - user.rewardDebt\n        //\n        // Whenever a user deposits or withdraws Staked tokens to a pool. Here's what happens:\n        //   1. The pool's `accOFLYPerShare` (and `lastRewardTime`) gets updated.\n        //   2. User receives the pending reward sent to his/her address.\n        //   3. User's `amount` gets updated.\n        //   4. User's `rewardDebt` gets updated.\n    }\n    // Info of each pool.\n    struct PoolInfo {\n        IERC20 stakingToken; // Contract address of staked token\n        uint256 stakingTokenTotalAmount; //Total amount of deposited tokens\n        uint256 accOflyPerShare; // Accumulated OFLY per share, times 1e12. See below.\n        uint32 lastRewardTime; // Last timestamp number that OFLY distribution occurs.\n        uint16 allocPoint; // How many allocation points assigned to this pool. OFLY to distribute per second.\n        \n        \n    }\n    \n    IERC20 immutable public ofly; // The OFLY TOKEN!!\n    \n    uint256 public oflyPerSecond; // Ofly tokens vested per second.\n    \n    PoolInfo[] public poolInfo; // Info of each pool.\n    \n    mapping(uint256 => mapping(address => UserInfo)) public userInfo; // Info of each user that stakes tokens.\n    \n    uint256 public totalAllocPoint = 0; // Total allocation poitns. Must be the sum of all allocation points in all pools.\n    \n    uint32 immutable public startTime; // The timestamp when OFLY farming starts.\n    \n\n\n    event Deposit(address indexed user, uint256 indexed pid, uint256 amount);\n    event Withdraw(address indexed user, uint256 indexed pid, uint256 amount);\n    event EmergencyWithdraw(address indexed user, uint256 indexed pid, uint256 amount);\n\n    constructor(\n        IERC20 _ofly,\n        uint256 _oflyPerSecond,\n        uint32 _startTime\n    ) {\n        ofly = _ofly;\n        \n        oflyPerSecond = _oflyPerSecond;\n        startTime = _startTime;\n     \n    }\n    \n   \n    \n    // Changes Ofly token reward per second. Use this function to moderate the `lockup amount`. Essentially this function changes the amount of the reward\n    // which is entitled to the user for his token staking by the time the `endTime` is passed.\n    //Good practofly to update pools without messing up the contract\n    function setOflyPerSecond(uint256 _oflyPerSecond,  bool _withUpdate) external onlyOwner {\n        if (_withUpdate) {\n            massUpdatePools();\n        }\n        oflyPerSecond= _oflyPerSecond;\n    }\n// How many pools are in the contract\n    function poolLength() external view returns (uint256) {\n        return poolInfo.length;\n    }\n\n    // Add a new staking token to the pool. Can only be called by the owner.\n    // VERY IMPORTANT NOTOFLY \n    // ----------- DO NOT add the same staking token more than once. Rewards will be messed up if you do. -------------\n    // Good practofly to update pools without messing up the contract\n    function add(\n        uint16 _allocPoint,\n        IERC20 _stakingToken,\n        bool _withUpdate\n    ) external onlyOwner {\n        if (_withUpdate) {\n            massUpdatePools();\n        }\n        uint256 lastRewardTime =\n            block.timestamp > startTime ? block.timestamp : startTime;\n        totalAllocPoint +=_allocPoint;\n        poolInfo.push(\n            PoolInfo({\n                stakingToken: _stakingToken,\n                stakingTokenTotalAmount: 0,\n                allocPoint: _allocPoint,\n                lastRewardTime: uint32(lastRewardTime),\n                accOflyPerShare: 0\n            })\n        );\n    }\n\n    // Update the given pool's OFLY allocation point. Can only be called by the owner.\n    // Good practofly to update pools without messing up the contract\n    function set(\n        uint256 _pid,\n        uint16 _allocPoint,\n        bool _withUpdate\n    ) external onlyOwner {\n        if (_withUpdate) {\n            massUpdatePools();\n        }\n        totalAllocPoint = totalAllocPoint - poolInfo[_pid].allocPoint + _allocPoint;\n        poolInfo[_pid].allocPoint = _allocPoint;\n    }\n\n   \n    // View function to see pending OFLY on frontend.\n    function pendingOfly(uint256 _pid, address _user)\n        external\n        view\n        returns (uint256)\n    {\n        PoolInfo storage pool = poolInfo[_pid];\n        UserInfo storage user = userInfo[_pid][_user];\n        uint256 accOflyPerShare = pool.accOflyPerShare;\n       \n        if (block.timestamp > pool.lastRewardTime && pool.stakingTokenTotalAmount != 0) {\n            uint256 oflyReward =\n                oflyPerSecond * pool.allocPoint / totalAllocPoint;\n            accOflyPerShare += oflyReward * 1e12 / pool.stakingTokenTotalAmount;\n        }\n        return user.amount * accOflyPerShare / 1e12 - user.rewardDebt + user.remainingOflyTokenReward;\n    }\n\n    // Update reward vairables for all pools. Be careful of gas spending!\n    function massUpdatePools() public {\n        uint256 length = poolInfo.length;\n        for (uint256 pid = 0; pid < length; ++pid) {\n            updatePool(pid);\n        }\n    }\n\n    // Update reward variables of the given pool to be up-to-date.\n    function updatePool(uint256 _pid) public {\n        PoolInfo storage pool = poolInfo[_pid];\n        if (block.timestamp <= pool.lastRewardTime) {\n            return;\n        }\n\n        if (pool.stakingTokenTotalAmount == 0) {\n            pool.lastRewardTime = uint32(block.timestamp);\n            return;\n        }\n        uint256 oflyReward =\n            oflyPerSecond * pool.allocPoint / totalAllocPoint;\n        pool.accOflyPerShare += oflyReward * 1e12 / pool.stakingTokenTotalAmount;\n        pool.lastRewardTime = uint32(block.timestamp);\n    }\n\n    // Deposit staking tokens to OflightsFarm for OFLY allocation.\n    function deposit(uint256 _pid, uint256 _amount) public {\n        PoolInfo storage pool = poolInfo[_pid];\n        UserInfo storage user = userInfo[_pid][msg.sender];\n        updatePool(_pid);\n        if (user.amount > 0) {\n            uint256 pending =\n                user.amount * pool.accOflyPerShare / 1e12 - user.rewardDebt + user.remainingOflyTokenReward;\n            user.remainingOflyTokenReward = safeRewardTransfer(msg.sender, pending);\n        }\n        pool.stakingToken.safeTransferFrom(\n            address(msg.sender),\n            address(this),\n            _amount\n        );\n        user.amount += _amount;\n        pool.stakingTokenTotalAmount += _amount;\n        user.rewardDebt = user.amount * pool.accOflyPerShare / 1e12;\n        emit Deposit(msg.sender, _pid, _amount);\n    }\n\n    // Withdraw staked tokens from OflightsFarm.\n    function withdraw(uint256 _pid, uint256 _amount) public {\n        PoolInfo storage pool = poolInfo[_pid];\n        UserInfo storage user = userInfo[_pid][msg.sender];\n        require(user.amount >= _amount, \"OflightsFarm: you cant eat that much popsicles\");\n        updatePool(_pid);\n        uint256 pending =\n            user.amount * pool.accOflyPerShare / 1e12 - user.rewardDebt + user.remainingOflyTokenReward;\n        user.remainingOflyTokenReward = safeRewardTransfer(msg.sender, pending);\n        user.amount -= _amount;\n        pool.stakingTokenTotalAmount -= _amount;\n        user.rewardDebt = user.amount * pool.accOflyPerShare / 1e12;\n        pool.stakingToken.safeTransfer(address(msg.sender), _amount);\n        emit Withdraw(msg.sender, _pid, _amount);\n    }\n    \n    // Withdraw without caring about rewards. EMERGENCY ONLY.\n    function emergencyWithdraw(uint256 _pid) public {\n        PoolInfo storage pool = poolInfo[_pid];\n        UserInfo storage user = userInfo[_pid][msg.sender];\n        uint256 userAmount = user.amount;\n        user.amount = 0;\n        user.rewardDebt = 0;\n        user.remainingOflyTokenReward = 0;\n        pool.stakingToken.safeTransfer(address(msg.sender), userAmount);\n        emit EmergencyWithdraw(msg.sender, _pid, userAmount);\n    }\n\n    // Safe ofly transfer function. Just in case if the pool does not have enough OFLY token,\n    // The function returns the amount which is owed to the user\n    function safeRewardTransfer(address _to, uint256 _amount) internal returns(uint256) {\n        uint256 oflyTokenBalance = ofly.balanceOf(address(this));\n        if (oflyTokenBalance == 0) { //save some gas fee\n            return _amount;\n        }\n        if (_amount > oflyTokenBalance) { //save some gas fee\n            ofly.safeTransfer(_to, oflyTokenBalance);\n            return _amount - oflyTokenBalance;\n        }\n        ofly.safeTransfer(_to, _amount);\n        return 0;\n    }\n}",
  "sourcePath": "/Users/lexcalebout/Desktop/Dev-Projects/OFlights_ICO/packages/contracts/contracts/farming/OFlightsFarm.sol",
  "compiler": {
    "name": "solc",
    "version": "0.8.0+commit.c7dfd78e.Emscripten.clang"
  },
  "schemaVersion": "3.3.4",
  "updatedAt": "2021-05-21T11:23:53.212Z",
  "networkType": "ethereum",
  "devdoc": {
    "kind": "dev",
    "methods": {
      "owner()": {
        "details": "Returns the address of the current owner."
      },
      "renounceOwnership()": {
        "details": "Leaves the contract without owner. It will not be possible to call `onlyOwner` functions anymore. Can only be called by the current owner. NOTE: Renouncing ownership will leave the contract without an owner, thereby removing any functionality that is only available to the owner."
      },
      "transferOwnership(address)": {
        "details": "Transfers ownership of the contract to a new account (`newOwner`). Can only be called by the current owner."
      }
    },
    "version": 1
  },
  "userdoc": {
    "kind": "user",
    "methods": {},
    "version": 1
  }
}