{
  "contractName": "OFlightsFarm",
  "abi": [
    {
      "inputs": [
        {
          "internalType": "contract IERC20Mintable",
          "name": "_ofly",
          "type": "address"
        },
        {
          "internalType": "uint256",
          "name": "_oflyPerBlock",
          "type": "uint256"
        },
        {
          "internalType": "uint256",
          "name": "_startBlock",
          "type": "uint256"
        },
        {
          "internalType": "uint256",
          "name": "_bonusEndBlock",
          "type": "uint256"
        }
      ],
      "stateMutability": "nonpayable",
      "type": "constructor"
    },
    {
      "anonymous": false,
      "inputs": [
        {
          "indexed": true,
          "internalType": "address",
          "name": "user",
          "type": "address"
        },
        {
          "indexed": true,
          "internalType": "uint256",
          "name": "pid",
          "type": "uint256"
        },
        {
          "indexed": false,
          "internalType": "uint256",
          "name": "amount",
          "type": "uint256"
        }
      ],
      "name": "Deposit",
      "type": "event"
    },
    {
      "anonymous": false,
      "inputs": [
        {
          "indexed": true,
          "internalType": "address",
          "name": "user",
          "type": "address"
        },
        {
          "indexed": true,
          "internalType": "uint256",
          "name": "pid",
          "type": "uint256"
        },
        {
          "indexed": false,
          "internalType": "uint256",
          "name": "amount",
          "type": "uint256"
        }
      ],
      "name": "EmergencyWithdraw",
      "type": "event"
    },
    {
      "anonymous": false,
      "inputs": [
        {
          "indexed": true,
          "internalType": "address",
          "name": "previousOwner",
          "type": "address"
        },
        {
          "indexed": true,
          "internalType": "address",
          "name": "newOwner",
          "type": "address"
        }
      ],
      "name": "OwnershipTransferred",
      "type": "event"
    },
    {
      "anonymous": false,
      "inputs": [
        {
          "indexed": true,
          "internalType": "address",
          "name": "user",
          "type": "address"
        },
        {
          "indexed": true,
          "internalType": "uint256",
          "name": "pid",
          "type": "uint256"
        },
        {
          "indexed": false,
          "internalType": "uint256",
          "name": "amount",
          "type": "uint256"
        }
      ],
      "name": "Withdraw",
      "type": "event"
    },
    {
      "inputs": [],
      "name": "BONUS_MULTIPLIER",
      "outputs": [
        {
          "internalType": "uint256",
          "name": "",
          "type": "uint256"
        }
      ],
      "stateMutability": "view",
      "type": "function",
      "constant": true
    },
    {
      "inputs": [],
      "name": "bonusEndBlock",
      "outputs": [
        {
          "internalType": "uint256",
          "name": "",
          "type": "uint256"
        }
      ],
      "stateMutability": "view",
      "type": "function",
      "constant": true
    },
    {
      "inputs": [],
      "name": "ofly",
      "outputs": [
        {
          "internalType": "contract IERC20Mintable",
          "name": "",
          "type": "address"
        }
      ],
      "stateMutability": "view",
      "type": "function",
      "constant": true
    },
    {
      "inputs": [],
      "name": "oflyPerBlock",
      "outputs": [
        {
          "internalType": "uint256",
          "name": "",
          "type": "uint256"
        }
      ],
      "stateMutability": "view",
      "type": "function",
      "constant": true
    },
    {
      "inputs": [],
      "name": "owner",
      "outputs": [
        {
          "internalType": "address",
          "name": "",
          "type": "address"
        }
      ],
      "stateMutability": "view",
      "type": "function",
      "constant": true
    },
    {
      "inputs": [
        {
          "internalType": "uint256",
          "name": "",
          "type": "uint256"
        }
      ],
      "name": "poolInfo",
      "outputs": [
        {
          "internalType": "contract IERC20",
          "name": "lpToken",
          "type": "address"
        },
        {
          "internalType": "uint256",
          "name": "allocPoint",
          "type": "uint256"
        },
        {
          "internalType": "uint256",
          "name": "lastRewardBlock",
          "type": "uint256"
        },
        {
          "internalType": "uint256",
          "name": "accOflyPerShare",
          "type": "uint256"
        }
      ],
      "stateMutability": "view",
      "type": "function",
      "constant": true
    },
    {
      "inputs": [],
      "name": "renounceOwnership",
      "outputs": [],
      "stateMutability": "nonpayable",
      "type": "function"
    },
    {
      "inputs": [],
      "name": "startBlock",
      "outputs": [
        {
          "internalType": "uint256",
          "name": "",
          "type": "uint256"
        }
      ],
      "stateMutability": "view",
      "type": "function",
      "constant": true
    },
    {
      "inputs": [],
      "name": "totalAllocPoint",
      "outputs": [
        {
          "internalType": "uint256",
          "name": "",
          "type": "uint256"
        }
      ],
      "stateMutability": "view",
      "type": "function",
      "constant": true
    },
    {
      "inputs": [
        {
          "internalType": "address",
          "name": "newOwner",
          "type": "address"
        }
      ],
      "name": "transferOwnership",
      "outputs": [],
      "stateMutability": "nonpayable",
      "type": "function"
    },
    {
      "inputs": [
        {
          "internalType": "uint256",
          "name": "",
          "type": "uint256"
        },
        {
          "internalType": "address",
          "name": "",
          "type": "address"
        }
      ],
      "name": "userInfo",
      "outputs": [
        {
          "internalType": "uint256",
          "name": "amount",
          "type": "uint256"
        },
        {
          "internalType": "uint256",
          "name": "rewardDebt",
          "type": "uint256"
        }
      ],
      "stateMutability": "view",
      "type": "function",
      "constant": true
    },
    {
      "inputs": [],
      "name": "poolLength",
      "outputs": [
        {
          "internalType": "uint256",
          "name": "",
          "type": "uint256"
        }
      ],
      "stateMutability": "view",
      "type": "function",
      "constant": true
    },
    {
      "inputs": [
        {
          "internalType": "uint256",
          "name": "_allocPoint",
          "type": "uint256"
        },
        {
          "internalType": "contract IERC20",
          "name": "_lpToken",
          "type": "address"
        },
        {
          "internalType": "bool",
          "name": "_withUpdate",
          "type": "bool"
        }
      ],
      "name": "add",
      "outputs": [],
      "stateMutability": "nonpayable",
      "type": "function"
    },
    {
      "inputs": [
        {
          "internalType": "uint256",
          "name": "_pid",
          "type": "uint256"
        },
        {
          "internalType": "uint256",
          "name": "_allocPoint",
          "type": "uint256"
        },
        {
          "internalType": "bool",
          "name": "_withUpdate",
          "type": "bool"
        }
      ],
      "name": "set",
      "outputs": [],
      "stateMutability": "nonpayable",
      "type": "function"
    },
    {
      "inputs": [
        {
          "internalType": "uint256",
          "name": "_from",
          "type": "uint256"
        },
        {
          "internalType": "uint256",
          "name": "_to",
          "type": "uint256"
        }
      ],
      "name": "getMultiplier",
      "outputs": [
        {
          "internalType": "uint256",
          "name": "",
          "type": "uint256"
        }
      ],
      "stateMutability": "view",
      "type": "function",
      "constant": true
    },
    {
      "inputs": [
        {
          "internalType": "uint256",
          "name": "_pid",
          "type": "uint256"
        },
        {
          "internalType": "address",
          "name": "_user",
          "type": "address"
        }
      ],
      "name": "pendingOfly",
      "outputs": [
        {
          "internalType": "uint256",
          "name": "",
          "type": "uint256"
        }
      ],
      "stateMutability": "view",
      "type": "function",
      "constant": true
    },
    {
      "inputs": [],
      "name": "massUpdatePools",
      "outputs": [],
      "stateMutability": "nonpayable",
      "type": "function"
    },
    {
      "inputs": [
        {
          "internalType": "uint256",
          "name": "_pid",
          "type": "uint256"
        }
      ],
      "name": "updatePool",
      "outputs": [],
      "stateMutability": "nonpayable",
      "type": "function"
    },
    {
      "inputs": [
        {
          "internalType": "uint256",
          "name": "_pid",
          "type": "uint256"
        },
        {
          "internalType": "uint256",
          "name": "_amount",
          "type": "uint256"
        }
      ],
      "name": "deposit",
      "outputs": [],
      "stateMutability": "nonpayable",
      "type": "function"
    },
    {
      "inputs": [
        {
          "internalType": "uint256",
          "name": "_pid",
          "type": "uint256"
        },
        {
          "internalType": "uint256",
          "name": "_amount",
          "type": "uint256"
        }
      ],
      "name": "withdraw",
      "outputs": [],
      "stateMutability": "nonpayable",
      "type": "function"
    },
    {
      "inputs": [
        {
          "internalType": "uint256",
          "name": "_pid",
          "type": "uint256"
        }
      ],
      "name": "emergencyWithdraw",
      "outputs": [],
      "stateMutability": "nonpayable",
      "type": "function"
    }
  ],
  "bytecode": "0x6080604052600060065534801561001557600080fd5b50604051611763380380611763833981016040819052610034916100c1565b600061003e6100bd565b600080546001600160a01b0319166001600160a01b0383169081178255604051929350917f8be0079c531659141344cd1fd0a4f28419497f9722a3daafe3b4186f6b6457e0908290a350600180546001600160a01b0319166001600160a01b03959095169490941790935560039190915560029190915560075561010a565b3390565b600080600080608085870312156100d6578384fd5b84516001600160a01b03811681146100ec578485fd5b60208601516040870151606090970151919890975090945092505050565b61164a806101196000396000f3fe608060405234801561001057600080fd5b50600436106101375760003560e01c8063630b5ba1116100b85780638da5cb5b1161007c5780638da5cb5b1461022b5780638dbb1e3a1461023357806393f1a40b14610246578063a353383514610267578063e2bbb1581461027a578063f2fde38b1461028d57610137565b8063630b5ba1146101f857806364482f7914610200578063715018a6146102135780637a3e5fca1461021b5780638aa285501461022357610137565b8063441a3e70116100ff578063441a3e70146101a257806348cd4cb1146101b557806351eb05a6146101bd5780635312ea8e146101d05780635356c03b146101e357610137565b8063081e3eda1461013c5780631526fe271461015a57806317caf6f11461017d5780631aed6553146101855780631eaaa0451461018d575b600080fd5b6101446102a0565b604051610151919061150f565b60405180910390f35b61016d6101683660046111ed565b6102a6565b6040516101519493929190611348565b6101446102ea565b6101446102f0565b6101a061019b36600461124c565b6102f6565b005b6101a06101b036600461128d565b610465565b6101446105ad565b6101a06101cb3660046111ed565b6105b3565b6101a06101de3660046111ed565b61076d565b6101eb610820565b60405161015191906112f7565b6101a061082f565b6101a061020e3660046112ae565b61085a565b6101a061093a565b6101446109c3565b6101446109c9565b6101eb6109ce565b61014461024136600461128d565b6109dd565b61025961025436600461121d565b610a49565b604051610151929190611518565b61014461027536600461121d565b610a6d565b6101a061028836600461128d565b610beb565b6101a061029b3660046111b5565b610d09565b60045490565b600481815481106102b657600080fd5b600091825260209091206004909102018054600182015460028301546003909301546001600160a01b039092169350919084565b60065481565b60025481565b6102fe610dc9565b6001600160a01b031661030f6109ce565b6001600160a01b03161461033e5760405162461bcd60e51b81526004016103359061142d565b60405180910390fd5b801561034c5761034c61082f565b6000600754431161035f57600754610361565b435b6006549091506103719085610dcd565b600655604080516080810182526001600160a01b03948516815260208101958652908101918252600060608201818152600480546001810182559281905292517f8a35acfbc15ff81a39ae7d344fd709f28e8600b4aa8c65c6b64bfe7fe36bd19b9290930291820180546001600160a01b031916939096169290921790945593517f8a35acfbc15ff81a39ae7d344fd709f28e8600b4aa8c65c6b64bfe7fe36bd19c840155517f8a35acfbc15ff81a39ae7d344fd709f28e8600b4aa8c65c6b64bfe7fe36bd19d8301555090517f8a35acfbc15ff81a39ae7d344fd709f28e8600b4aa8c65c6b64bfe7fe36bd19e90910155565b60006004838154811061048857634e487b7160e01b600052603260045260246000fd5b6000918252602080832086845260058252604080852033865290925292208054600490920290920192508311156104d15760405162461bcd60e51b815260040161033590611499565b6104da846105b3565b6000610514826001015461050e64e8d4a5100061050887600301548760000154610de090919063ffffffff16565b90610dec565b90610df8565b90506105203382610e04565b815461052c9085610df8565b80835560038401546105499164e8d4a51000916105089190610de0565b60018301558254610564906001600160a01b03163386610fa4565b84336001600160a01b03167ff279e6a1f5e320cca91135676d9cb6e44ca8a08c0b88342bcdb1144f6511b5688660405161059e919061150f565b60405180910390a35050505050565b60075481565b6000600482815481106105d657634e487b7160e01b600052603260045260246000fd5b90600052602060002090600402019050806002015443116105f7575061076a565b80546040516370a0823160e01b81526000916001600160a01b0316906370a08231906106279030906004016112f7565b60206040518083038186803b15801561063f57600080fd5b505afa158015610653573d6000803e3d6000fd5b505050506040513d601f19601f820116820180604052508101906106779190611205565b90508061068b57504360029091015561076a565b600061069b8360020154436109dd565b905060006106c860065461050886600101546106c260035487610de090919063ffffffff16565b90610de0565b6001546040516340c10f1960e01b81529192506001600160a01b0316906340c10f19906106fb903090859060040161132f565b600060405180830381600087803b15801561071557600080fd5b505af1158015610729573d6000803e3d6000fd5b5050505061075761074c8461050864e8d4a5100085610de090919063ffffffff16565b600386015490610dcd565b6003850155505043600290920191909155505b50565b60006004828154811061079057634e487b7160e01b600052603260045260246000fd5b600091825260208083208584526005825260408085203380875293529093208054600490930290930180549094506107d5926001600160a01b03919091169190610fa4565b8054604051849133917fbb757047c2b5f3974fe26b7c10f732e7bce710b0952a71082702781e62ae0595916108099161150f565b60405180910390a360008082556001909101555050565b6001546001600160a01b031681565b60045460005b8181101561085657610846816105b3565b61084f816115c0565b9050610835565b5050565b610862610dc9565b6001600160a01b03166108736109ce565b6001600160a01b0316146108995760405162461bcd60e51b81526004016103359061142d565b80156108a7576108a761082f565b6108f8826108f2600486815481106108cf57634e487b7160e01b600052603260045260246000fd5b906000526020600020906004020160010154600654610df890919063ffffffff16565b90610dcd565b600681905550816004848154811061092057634e487b7160e01b600052603260045260246000fd5b906000526020600020906004020160010181905550505050565b610942610dc9565b6001600160a01b03166109536109ce565b6001600160a01b0316146109795760405162461bcd60e51b81526004016103359061142d565b600080546040516001600160a01b03909116907f8be0079c531659141344cd1fd0a4f28419497f9722a3daafe3b4186f6b6457e0908390a3600080546001600160a01b0319169055565b60035481565b600a81565b6000546001600160a01b031690565b600060025482116109fe576109f7600a6106c28486610df8565b9050610a43565b6002548310610a11576109f78284610df8565b6109f7610a2960025484610df890919063ffffffff16565b6108f2600a6106c287600254610df890919063ffffffff16565b92915050565b60056020908152600092835260408084209091529082529020805460019091015482565b60008060048481548110610a9157634e487b7160e01b600052603260045260246000fd5b600091825260208083208784526005825260408085206001600160a01b038981168752935280852060049485029092016003810154815492516370a0823160e01b815291975092959294929391909116916370a0823191610af4913091016112f7565b60206040518083038186803b158015610b0c57600080fd5b505afa158015610b20573d6000803e3d6000fd5b505050506040513d601f19601f82011682018060405250810190610b449190611205565b9050836002015443118015610b5857508015155b15610bb8576000610b6d8560020154436109dd565b90506000610b9460065461050888600101546106c260035487610de090919063ffffffff16565b9050610bb3610bac846105088464e8d4a51000610de0565b8590610dcd565b935050505b610be0836001015461050e64e8d4a51000610508868860000154610de090919063ffffffff16565b979650505050505050565b600060048381548110610c0e57634e487b7160e01b600052603260045260246000fd5b60009182526020808320868452600582526040808520338652909252922060049091029091019150610c3f846105b3565b805415610c82576000610c74826001015461050e64e8d4a5100061050887600301548760000154610de090919063ffffffff16565b9050610c803382610e04565b505b8154610c99906001600160a01b0316333086610ffa565b8054610ca59084610dcd565b8082556003830154610cc29164e8d4a51000916105089190610de0565b6001820155604051849033907f90890809c654f11d6e72a28fa60149770a0d11ec6c92319d6ceb2bb0a4ea1a1590610cfb90879061150f565b60405180910390a350505050565b610d11610dc9565b6001600160a01b0316610d226109ce565b6001600160a01b031614610d485760405162461bcd60e51b81526004016103359061142d565b6001600160a01b038116610d6e5760405162461bcd60e51b8152600401610335906113a1565b600080546040516001600160a01b03808516939216917f8be0079c531659141344cd1fd0a4f28419497f9722a3daafe3b4186f6b6457e091a3600080546001600160a01b0319166001600160a01b0392909216919091179055565b3390565b6000610dd98284611526565b9392505050565b6000610dd9828461155e565b6000610dd9828461153e565b6000610dd9828461157d565b6001546040516370a0823160e01b81526000916001600160a01b0316906370a0823190610e359030906004016112f7565b60206040518083038186803b158015610e4d57600080fd5b505afa158015610e61573d6000803e3d6000fd5b505050506040513d601f19601f82011682018060405250810190610e859190611205565b905080821115610f195760015460405163a9059cbb60e01b81526001600160a01b039091169063a9059cbb90610ec1908690859060040161132f565b602060405180830381600087803b158015610edb57600080fd5b505af1158015610eef573d6000803e3d6000fd5b505050506040513d601f19601f82011682018060405250810190610f1391906111d1565b50610f9f565b60015460405163a9059cbb60e01b81526001600160a01b039091169063a9059cbb90610f4b908690869060040161132f565b602060405180830381600087803b158015610f6557600080fd5b505af1158015610f79573d6000803e3d6000fd5b505050506040513d601f19601f82011682018060405250810190610f9d91906111d1565b505b505050565b610f9f8363a9059cbb60e01b8484604051602401610fc392919061132f565b60408051601f198184030181529190526020810180516001600160e01b03166001600160e01b03199093169290921790915261101b565b610f9d846323b872dd60e01b858585604051602401610fc39392919061130b565b6000611070826040518060400160405280602081526020017f5361666545524332303a206c6f772d6c6576656c2063616c6c206661696c6564815250856001600160a01b03166110aa9092919063ffffffff16565b805190915015610f9f578080602001905181019061108e91906111d1565b610f9f5760405162461bcd60e51b8152600401610335906114c5565b60606110b984846000856110c1565b949350505050565b6060824710156110e35760405162461bcd60e51b8152600401610335906113e7565b6110ec85611176565b6111085760405162461bcd60e51b815260040161033590611462565b600080866001600160a01b0316858760405161112491906112db565b60006040518083038185875af1925050503d8060008114611161576040519150601f19603f3d011682016040523d82523d6000602084013e611166565b606091505b5091509150610be082828661117c565b3b151590565b6060831561118b575081610dd9565b82511561119b5782518084602001fd5b8160405162461bcd60e51b8152600401610335919061136e565b6000602082840312156111c6578081fd5b8135610dd9816115f1565b6000602082840312156111e2578081fd5b8151610dd981611606565b6000602082840312156111fe578081fd5b5035919050565b600060208284031215611216578081fd5b5051919050565b6000806040838503121561122f578081fd5b823591506020830135611241816115f1565b809150509250929050565b600080600060608486031215611260578081fd5b833592506020840135611272816115f1565b9150604084013561128281611606565b809150509250925092565b6000806040838503121561129f578182fd5b50508035926020909101359150565b6000806000606084860312156112c2578283fd5b8335925060208401359150604084013561128281611606565b600082516112ed818460208701611594565b9190910192915050565b6001600160a01b0391909116815260200190565b6001600160a01b039384168152919092166020820152604081019190915260600190565b6001600160a01b03929092168252602082015260400190565b6001600160a01b0394909416845260208401929092526040830152606082015260800190565b600060208252825180602084015261138d816040850160208701611594565b601f01601f19169190910160400192915050565b60208082526026908201527f4f776e61626c653a206e6577206f776e657220697320746865207a65726f206160408201526564647265737360d01b606082015260800190565b60208082526026908201527f416464726573733a20696e73756666696369656e742062616c616e636520666f6040820152651c8818d85b1b60d21b606082015260800190565b6020808252818101527f4f776e61626c653a2063616c6c6572206973206e6f7420746865206f776e6572604082015260600190565b6020808252601d908201527f416464726573733a2063616c6c20746f206e6f6e2d636f6e7472616374000000604082015260600190565b6020808252601290820152711dda5d1a191c985dce881b9bdd0819dbdbd960721b604082015260600190565b6020808252602a908201527f5361666545524332303a204552433230206f7065726174696f6e20646964206e6040820152691bdd081cdd58d8d9595960b21b606082015260800190565b90815260200190565b918252602082015260400190565b60008219821115611539576115396115db565b500190565b60008261155957634e487b7160e01b81526012600452602481fd5b500490565b6000816000190483118215151615611578576115786115db565b500290565b60008282101561158f5761158f6115db565b500390565b60005b838110156115af578181015183820152602001611597565b83811115610f9d5750506000910152565b60006000198214156115d4576115d46115db565b5060010190565b634e487b7160e01b600052601160045260246000fd5b6001600160a01b038116811461076a57600080fd5b801515811461076a57600080fdfea26469706673582212205d4480cfab0cd179bf2a465c5aa990b64b747621a59c515607e4034ec7a8833064736f6c63430008000033",
  "immutableReferences": {},
  "source": "// SPDX-License-Identifier: MIT\n\npragma solidity ^0.8.0;\n\nimport \"@openzeppelin/contracts/token/ERC20/IERC20.sol\";\nimport \"@openzeppelin/contracts/token/ERC20/utils/SafeERC20.sol\";\nimport \"@openzeppelin/contracts/utils/structs/EnumerableSet.sol\";\nimport \"@openzeppelin/contracts/utils/math/SafeMath.sol\";\nimport \"@openzeppelin/contracts/access/Ownable.sol\";\nimport \"../interfaces/IERC20Mintable.sol\";\n\n// OFlightsFarm is the master of OFly. He can make OFly and he is a fair guy.\n//\n// Note that it's ownable and the owner wields tremendous power. The ownership\n// will be transferred to a governance smart contract once OFLY is sufficiently\n// distributed and the community can show to govern itself.\n//\n// Have fun reading it. Hopefully it's bug-free. God bless.\ncontract OFlightsFarm is Ownable {\n    using SafeMath for uint256;\n    using SafeERC20 for IERC20;\n    // Info of each user.\n    struct UserInfo {\n        uint256 amount; // How many LP tokens the user has provided.\n        uint256 rewardDebt; // Reward debt. See explanation below.\n        //\n        // We do some fancy math here. Basically, any point in time, the amount of SUSHIs\n        // entitled to a user but is pending to be distributed is:\n        //\n        //   pending reward = (user.amount * pool.accOflyPerShare) - user.rewardDebt\n        //\n        // Whenever a user deposits or withdraws LP tokens to a pool. Here's what happens:\n        //   1. The pool's `accOflyPerShare` (and `lastRewardBlock`) gets updated.\n        //   2. User receives the pending reward sent to his/her address.\n        //   3. User's `amount` gets updated.\n        //   4. User's `rewardDebt` gets updated.\n    }\n    // Info of each pool.\n    struct PoolInfo {\n        IERC20 lpToken; // Address of LP token contract.\n        uint256 allocPoint; // How many allocation points assigned to this pool. SUSHIs to distribute per block.\n        uint256 lastRewardBlock; // Last block number that SUSHIs distribution occurs.\n        uint256 accOflyPerShare; // Accumulated SUSHIs per share, times 1e12. See below.\n    }\n    // The OFLY TOKEN!\n    IERC20Mintable public ofly;\n\n    // Block number when bonus OFLY period ends.\n    uint256 public bonusEndBlock;\n    // OFLY tokens created per block.\n    uint256 public oflyPerBlock;\n    // Bonus muliplier for early ofly makers.\n    uint256 public constant BONUS_MULTIPLIER = 10;\n    // Info of each pool.\n    PoolInfo[] public poolInfo;\n    // Info of each user that stakes LP tokens.\n    mapping(uint256 => mapping(address => UserInfo)) public userInfo;\n    // Total allocation poitns. Must be the sum of all allocation points in all pools.\n    uint256 public totalAllocPoint = 0;\n    // The block number when OFLY mining starts.\n    uint256 public startBlock;\n    event Deposit(address indexed user, uint256 indexed pid, uint256 amount);\n    event Withdraw(address indexed user, uint256 indexed pid, uint256 amount);\n    event EmergencyWithdraw(\n        address indexed user,\n        uint256 indexed pid,\n        uint256 amount\n    );\n\n    constructor(\n        IERC20Mintable _ofly,\n        uint256 _oflyPerBlock,\n        uint256 _startBlock,\n        uint256 _bonusEndBlock\n    )  {\n        ofly = _ofly;\n        oflyPerBlock = _oflyPerBlock;\n        bonusEndBlock = _bonusEndBlock;\n        startBlock = _startBlock;\n    }\n\n    function poolLength() external view returns (uint256) {\n        return poolInfo.length;\n    }\n\n    // Add a new lp to the pool. Can only be called by the owner.\n    // XXX DO NOT add the same LP token more than once. Rewards will be messed up if you do.\n    function add(\n        uint256 _allocPoint,\n        IERC20 _lpToken,\n        bool _withUpdate\n    ) public onlyOwner {\n        if (_withUpdate) {\n            massUpdatePools();\n        }\n        uint256 lastRewardBlock =\n            block.number > startBlock ? block.number : startBlock;\n        totalAllocPoint = totalAllocPoint.add(_allocPoint);\n        poolInfo.push(\n            PoolInfo({\n                lpToken: _lpToken,\n                allocPoint: _allocPoint,\n                lastRewardBlock: lastRewardBlock,\n                accOflyPerShare: 0\n            })\n        );\n    }\n\n    // Update the given pool's OFLY allocation point. Can only be called by the owner.\n    function set(\n        uint256 _pid,\n        uint256 _allocPoint,\n        bool _withUpdate\n    ) public onlyOwner {\n        if (_withUpdate) {\n            massUpdatePools();\n        }\n        totalAllocPoint = totalAllocPoint.sub(poolInfo[_pid].allocPoint).add(\n            _allocPoint\n        );\n        poolInfo[_pid].allocPoint = _allocPoint;\n    }\n\n  \n\n    // Return reward multiplier over the given _from to _to block.\n    function getMultiplier(uint256 _from, uint256 _to)\n        public\n        view\n        returns (uint256)\n    {\n        if (_to <= bonusEndBlock) {\n            return _to.sub(_from).mul(BONUS_MULTIPLIER);\n        } else if (_from >= bonusEndBlock) {\n            return _to.sub(_from);\n        } else {\n            return\n                bonusEndBlock.sub(_from).mul(BONUS_MULTIPLIER).add(\n                    _to.sub(bonusEndBlock)\n                );\n        }\n    }\n\n    // View function to see pending SUSHIs on frontend.\n    function pendingOfly(uint256 _pid, address _user)\n        external\n        view\n        returns (uint256)\n    {\n        PoolInfo storage pool = poolInfo[_pid];\n        UserInfo storage user = userInfo[_pid][_user];\n        uint256 accOflyPerShare = pool.accOflyPerShare;\n        uint256 lpSupply = pool.lpToken.balanceOf(address(this));\n        if (block.number > pool.lastRewardBlock && lpSupply != 0) {\n            uint256 multiplier =\n                getMultiplier(pool.lastRewardBlock, block.number);\n            uint256 sushiReward =\n                multiplier.mul(oflyPerBlock).mul(pool.allocPoint).div(\n                    totalAllocPoint\n                );\n            accOflyPerShare = accOflyPerShare.add(\n                sushiReward.mul(1e12).div(lpSupply)\n            );\n        }\n        return user.amount.mul(accOflyPerShare).div(1e12).sub(user.rewardDebt);\n    }\n\n    // Update reward vairables for all pools. Be careful of gas spending!\n    function massUpdatePools() public {\n        uint256 length = poolInfo.length;\n        for (uint256 pid = 0; pid < length; ++pid) {\n            updatePool(pid);\n        }\n    }\n\n    // Update reward variables of the given pool to be up-to-date.\n    function updatePool(uint256 _pid) public {\n        PoolInfo storage pool = poolInfo[_pid];\n        if (block.number <= pool.lastRewardBlock) {\n            return;\n        }\n        uint256 lpSupply = pool.lpToken.balanceOf(address(this));\n        if (lpSupply == 0) {\n            pool.lastRewardBlock = block.number;\n            return;\n        }\n        uint256 multiplier = getMultiplier(pool.lastRewardBlock, block.number);\n        uint256 sushiReward =\n            multiplier.mul(oflyPerBlock).mul(pool.allocPoint).div(\n                totalAllocPoint\n            );\n        ofly.mint(address(this), sushiReward);\n        pool.accOflyPerShare = pool.accOflyPerShare.add(\n            sushiReward.mul(1e12).div(lpSupply)\n        );\n        pool.lastRewardBlock = block.number;\n    }\n\n    // Deposit LP tokens to MasterChef for OFLY allocation.\n    function deposit(uint256 _pid, uint256 _amount) public {\n        PoolInfo storage pool = poolInfo[_pid];\n        UserInfo storage user = userInfo[_pid][msg.sender];\n        updatePool(_pid);\n        if (user.amount > 0) {\n            uint256 pending =\n                user.amount.mul(pool.accOflyPerShare).div(1e12).sub(\n                    user.rewardDebt\n                );\n            safeOflyTransfer(msg.sender, pending);\n        }\n        pool.lpToken.safeTransferFrom(\n            address(msg.sender),\n            address(this),\n            _amount\n        );\n        user.amount = user.amount.add(_amount);\n        user.rewardDebt = user.amount.mul(pool.accOflyPerShare).div(1e12);\n        emit Deposit(msg.sender, _pid, _amount);\n    }\n\n    // Withdraw LP tokens from MasterChef.\n    function withdraw(uint256 _pid, uint256 _amount) public {\n        PoolInfo storage pool = poolInfo[_pid];\n        UserInfo storage user = userInfo[_pid][msg.sender];\n        require(user.amount >= _amount, \"withdraw: not good\");\n        updatePool(_pid);\n        uint256 pending =\n            user.amount.mul(pool.accOflyPerShare).div(1e12).sub(\n                user.rewardDebt\n            );\n        safeOflyTransfer(msg.sender, pending);\n        user.amount = user.amount.sub(_amount);\n        user.rewardDebt = user.amount.mul(pool.accOflyPerShare).div(1e12);\n        pool.lpToken.safeTransfer(address(msg.sender), _amount);\n        emit Withdraw(msg.sender, _pid, _amount);\n    }\n\n    // Withdraw without caring about rewards. EMERGENCY ONLY.\n    function emergencyWithdraw(uint256 _pid) public {\n        PoolInfo storage pool = poolInfo[_pid];\n        UserInfo storage user = userInfo[_pid][msg.sender];\n        pool.lpToken.safeTransfer(address(msg.sender), user.amount);\n        emit EmergencyWithdraw(msg.sender, _pid, user.amount);\n        user.amount = 0;\n        user.rewardDebt = 0;\n    }\n\n    // Safe ofly transfer function, just in case if rounding error causes pool to not have enough SUSHIs.\n    function safeOflyTransfer(address _to, uint256 _amount) internal {\n        uint256 oflyBal = ofly.balanceOf(address(this));\n        if (_amount > oflyBal) {\n            ofly.transfer(_to, oflyBal);\n        } else {\n            ofly.transfer(_to, _amount);\n        }\n    }\n\n}",
  "sourcePath": "/Users/lexcalebout/Desktop/Dev-Projects/OFlights_ICO/packages/contracts/contracts/farming/OFlightsFarm.sol",
  "compiler": {
    "name": "solc",
    "version": "0.8.0+commit.c7dfd78e.Emscripten.clang"
  },
  "schemaVersion": "3.3.4",
  "updatedAt": "2021-04-18T18:41:54.614Z",
  "networkType": "ethereum",
  "devdoc": {
    "kind": "dev",
    "methods": {
      "owner()": {
        "details": "Returns the address of the current owner."
      },
      "renounceOwnership()": {
        "details": "Leaves the contract without owner. It will not be possible to call `onlyOwner` functions anymore. Can only be called by the current owner. NOTE: Renouncing ownership will leave the contract without an owner, thereby removing any functionality that is only available to the owner."
      },
      "transferOwnership(address)": {
        "details": "Transfers ownership of the contract to a new account (`newOwner`). Can only be called by the current owner."
      }
    },
    "version": 1
  },
  "userdoc": {
    "kind": "user",
    "methods": {},
    "version": 1
  }
}