{
  "contractName": "SaleStages",
  "abi": [
    {
      "anonymous": false,
      "inputs": [
        {
          "indexed": true,
          "internalType": "uint256",
          "name": "allocation",
          "type": "uint256"
        }
      ],
      "name": "AddedNewStage",
      "type": "event"
    },
    {
      "anonymous": false,
      "inputs": [
        {
          "indexed": true,
          "internalType": "address",
          "name": "previousOwner",
          "type": "address"
        },
        {
          "indexed": true,
          "internalType": "address",
          "name": "newOwner",
          "type": "address"
        }
      ],
      "name": "OwnershipTransferred",
      "type": "event"
    },
    {
      "inputs": [],
      "name": "currentStage",
      "outputs": [
        {
          "internalType": "uint256",
          "name": "",
          "type": "uint256"
        }
      ],
      "stateMutability": "view",
      "type": "function"
    },
    {
      "inputs": [],
      "name": "owner",
      "outputs": [
        {
          "internalType": "address",
          "name": "",
          "type": "address"
        }
      ],
      "stateMutability": "view",
      "type": "function"
    },
    {
      "inputs": [],
      "name": "renounceOwnership",
      "outputs": [],
      "stateMutability": "nonpayable",
      "type": "function"
    },
    {
      "inputs": [
        {
          "internalType": "address",
          "name": "newOwner",
          "type": "address"
        }
      ],
      "name": "transferOwnership",
      "outputs": [],
      "stateMutability": "nonpayable",
      "type": "function"
    },
    {
      "inputs": [
        {
          "internalType": "uint256",
          "name": "_stage",
          "type": "uint256"
        }
      ],
      "name": "getStage",
      "outputs": [
        {
          "internalType": "string",
          "name": "name",
          "type": "string"
        },
        {
          "internalType": "uint256",
          "name": "allocation",
          "type": "uint256"
        },
        {
          "internalType": "uint256",
          "name": "min",
          "type": "uint256"
        },
        {
          "internalType": "uint256",
          "name": "limit",
          "type": "uint256"
        },
        {
          "internalType": "uint256",
          "name": "rate",
          "type": "uint256"
        },
        {
          "internalType": "uint256",
          "name": "sold",
          "type": "uint256"
        },
        {
          "internalType": "bool",
          "name": "active",
          "type": "bool"
        },
        {
          "internalType": "bool",
          "name": "goalReached",
          "type": "bool"
        },
        {
          "internalType": "bool",
          "name": "whitelisted",
          "type": "bool"
        }
      ],
      "stateMutability": "view",
      "type": "function"
    }
  ],
  "bytecode": "0x608060405234801561001057600080fd5b50600061001b61006a565b600080546001600160a01b0319166001600160a01b0383169081178255604051929350917f8be0079c531659141344cd1fd0a4f28419497f9722a3daafe3b4186f6b6457e0908290a35061006e565b3390565b61057e8061007d6000396000f3fe608060405234801561001057600080fd5b50600436106100575760003560e01c80632e3250201461005c5780635bf5d54c1461008d578063715018a6146100a25780638da5cb5b146100ac578063f2fde38b146100c1575b600080fd5b61006f61006a3660046103aa565b6100d4565b604051610084999897969594939291906103dc565b60405180910390f35b610095610211565b6040516100849190610504565b6100aa610217565b005b6100b46102a9565b60405161008491906103c8565b6100aa6100cf36600461037c565b6102b8565b6060600080600080600080600080600060028b8154811061010557634e487b7160e01b600052603260045260246000fd5b906000526020600020906008020190508060010180546101249061050d565b80601f01602080910402602001604051908101604052809291908181526020018280546101509061050d565b801561019d5780601f106101725761010080835404028352916020019161019d565b820191906000526020600020905b81548152906001019060200180831161018057829003601f168201915b5050505050995080600201549850806003015497508060040154965080600501549550806006015494508060070160009054906101000a900460ff1693508060070160019054906101000a900460ff1692508060070160029054906101000a900460ff169150509193959799909294969850565b60015481565b61021f610378565b6001600160a01b03166102306102a9565b6001600160a01b03161461025f5760405162461bcd60e51b8152600401610256906104cf565b60405180910390fd5b600080546040516001600160a01b03909116907f8be0079c531659141344cd1fd0a4f28419497f9722a3daafe3b4186f6b6457e0908390a3600080546001600160a01b0319169055565b6000546001600160a01b031690565b6102c0610378565b6001600160a01b03166102d16102a9565b6001600160a01b0316146102f75760405162461bcd60e51b8152600401610256906104cf565b6001600160a01b03811661031d5760405162461bcd60e51b815260040161025690610489565b600080546040516001600160a01b03808516939216917f8be0079c531659141344cd1fd0a4f28419497f9722a3daafe3b4186f6b6457e091a3600080546001600160a01b0319166001600160a01b0392909216919091179055565b3390565b60006020828403121561038d578081fd5b81356001600160a01b03811681146103a3578182fd5b9392505050565b6000602082840312156103bb578081fd5b5035919050565b15159052565b6001600160a01b0391909116815260200190565b60006101208083528b5180828501528291505b80821015610411576020828e01015161014083860101526020820191506103ef565b80821115610423578261014082860101525b610140601f19601f830116850101925050508960208301528860408301528760608301528660808301528560a083015261046060c08301866103c2565b61046d60e08301856103c2565b61047b6101008301846103c2565b9a9950505050505050505050565b60208082526026908201527f4f776e61626c653a206e6577206f776e657220697320746865207a65726f206160408201526564647265737360d01b606082015260800190565b6020808252818101527f4f776e61626c653a2063616c6c6572206973206e6f7420746865206f776e6572604082015260600190565b90815260200190565b60028104600182168061052157607f821691505b6020821081141561054257634e487b7160e01b600052602260045260246000fd5b5091905056fea2646970667358221220caa503723d4258524622ea4c99d5eff9b8c012e60935d982d9d65ac7f5c1f17964736f6c63430008000033",
  "immutableReferences": {},
  "source": "//SPDX-License-Identifier: MIT\npragma solidity ^0.8.0;\n\nimport '@openzeppelin/contracts/access/Ownable.sol';\n\ncontract SaleStages is Ownable {\n\n    event AddedNewStage(uint256 indexed allocation);\n\n    // The current stage of the ICO \n    uint256 public currentStage; \n\n    struct Stage {\n        // the id of the stage.\n        uint256 id; \n        // the name of the sale stage. For example: Crowdsale.\n        string name;\n        // the token allocation of the stage of the ICO sale.\n        uint256 allocation;\n        // the max amount of tokens a address can buy from the contract in this stage.\n        uint256 min;\n        // the max amount of tokens a address can buy from the contract in this stage.\n        uint256 limit;\n        // Amount of OFLY tokens returned for 1 uint of USDC/USDT/DAI.\n        uint256 rate;\n        // The amount of tokens sold from this sale stage.\n        uint256 amountSold;\n        // if the sale stage is active this is set to true.\n        bool active;\n        // set to true is goal is reached thus all allocation is sold. \n        bool goalReached; \n        // whitelist.\n        bool whitelisted;\n    }\n\n    // Array that holds the stages. \n    Stage[] internal Stages;\n\n    /**\n     * Returns all the relevant information about a specific stage.\n     * @param _stage The ID of the stage.\n     * @param allocation The allocation (amount of OFLY tokens).\n     * @param limit The max USD limit in gwei a user can buy.\n     * @param rate Amount of OFLY tokens returned for 1 unit of DAI/USDC/USDT.\n     * @param name The name of the sale Stage.\n     * @param active Indicates if the stage is active.\n     * @param goalReached If all of the tokens are sold. \n     * @param whitelisted If the stage is whitelisted or not. \n     */\n    function getStage(uint256 _stage) \n        public \n        view \n        returns (\n            string memory name,\n            uint allocation,\n            uint min, \n            uint limit, \n            uint rate, \n            uint sold,\n            bool active, \n            bool goalReached, \n            bool whitelisted\n    ) {\n\n        Stage storage stage = Stages[_stage];\n        name = stage.name;\n        allocation = stage.allocation;\n        min = stage.min;\n        limit = stage.limit;\n        rate = stage.rate;\n        sold = stage.amountSold;\n        active = stage.active;\n        goalReached = stage.goalReached;\n        whitelisted = stage.whitelisted;\n    }\n\n\n    /**\n     * @dev Initialize a new stage.\n     *  \n     * @param _all The amount of tokens allocated to this sale stage.\n     * @param _limit The max amount of tokens a address can buy from this contract. \n     * @param _rate The rate for 1 token in gwei \n     * @param _name The name of the Sale Stage (Seed Funding, Crowd Funding, ....).\n     * @param whitelisted If the stage is whitelisted or not. \n     */\n    function addStage(\n        uint256 _all,\n        uint256 _min,\n        uint256 _limit,\n        uint256 _rate,\n        string memory _name,\n        bool whitelisted\n    ) internal {\n        \n        // assemble the stage info \n        Stage memory newStage = Stage({\n            id: Stages.length,\n            name: _name,\n            allocation: _all, \n            min: _min,\n            limit: _limit, \n            rate: _rate, \n            amountSold: 0,\n            active: false, \n            goalReached: false,\n            whitelisted: whitelisted\n        });\n        // push it to the array \n        Stages.push(newStage);\n    }\n\n    /**\n     * @dev Sets a Sale to active. The stage can not be already active otherwise it will revert\n     * @param _stage The stage of the ICO.\n     */\n    function activateStage(uint256 _stage) internal  {\n        // only requireing for the second stage. \n        require(Stages[_stage].active != true, 'Already activated');\n        Stages[_stage].active = true; \n        currentStage = Stages[_stage].id;\n    }\n\n\n    /**\n     * @dev Sets a Sale to non-active. This means the Sale Stage is finished and a new one can be activated \n     * @param _stage The stage of the ICO.\n     */\n    function deactivateStage(uint256 _stage) internal onlyActive()  {\n        Stages[_stage].active = false; \n    }\n\n   \n    modifier onlyActive {\n      require(Stages[currentStage].active == true, 'Stage is not active');\n      _;\n    }\n\n\n}",
  "sourcePath": "/Users/lexcalebout/Desktop/Dev-Projects/OFlights_ICO/packages/contracts/contracts/ico/SaleStages.sol",
  "compiler": {
    "name": "solc",
    "version": "0.8.0+commit.c7dfd78e.Emscripten.clang"
  },
  "schemaVersion": "3.3.4",
  "updatedAt": "2021-04-16T16:09:17.545Z",
  "devdoc": {
    "kind": "dev",
    "methods": {
      "getStage(uint256)": {
        "params": {
          "_stage": "The ID of the stage.",
          "active": "Indicates if the stage is active.",
          "allocation": "The allocation (amount of OFLY tokens).",
          "goalReached": "If all of the tokens are sold. ",
          "limit": "The max USD limit in gwei a user can buy.",
          "name": "The name of the sale Stage.",
          "rate": "Amount of OFLY tokens returned for 1 unit of DAI/USDC/USDT.",
          "whitelisted": "If the stage is whitelisted or not. "
        }
      },
      "owner()": {
        "details": "Returns the address of the current owner."
      },
      "renounceOwnership()": {
        "details": "Leaves the contract without owner. It will not be possible to call `onlyOwner` functions anymore. Can only be called by the current owner. NOTE: Renouncing ownership will leave the contract without an owner, thereby removing any functionality that is only available to the owner."
      },
      "transferOwnership(address)": {
        "details": "Transfers ownership of the contract to a new account (`newOwner`). Can only be called by the current owner."
      }
    },
    "version": 1
  },
  "userdoc": {
    "kind": "user",
    "methods": {
      "getStage(uint256)": {
        "notice": "Returns all the relevant information about a specific stage."
      }
    },
    "version": 1
  }
}