{
  "contractName": "Whitelist",
  "abi": [
    {
      "anonymous": false,
      "inputs": [
        {
          "indexed": true,
          "internalType": "uint256",
          "name": "allocation",
          "type": "uint256"
        }
      ],
      "name": "AddedNewStage",
      "type": "event"
    },
    {
      "anonymous": false,
      "inputs": [
        {
          "indexed": true,
          "internalType": "address",
          "name": "account",
          "type": "address"
        }
      ],
      "name": "AddedToWhitelist",
      "type": "event"
    },
    {
      "anonymous": false,
      "inputs": [
        {
          "indexed": true,
          "internalType": "address",
          "name": "previousOwner",
          "type": "address"
        },
        {
          "indexed": true,
          "internalType": "address",
          "name": "newOwner",
          "type": "address"
        }
      ],
      "name": "OwnershipTransferred",
      "type": "event"
    },
    {
      "anonymous": false,
      "inputs": [
        {
          "indexed": true,
          "internalType": "address",
          "name": "account",
          "type": "address"
        }
      ],
      "name": "RemovedFromWhitelist",
      "type": "event"
    },
    {
      "inputs": [],
      "name": "currentStage",
      "outputs": [
        {
          "internalType": "uint256",
          "name": "",
          "type": "uint256"
        }
      ],
      "stateMutability": "view",
      "type": "function"
    },
    {
      "inputs": [
        {
          "internalType": "uint256",
          "name": "_stage",
          "type": "uint256"
        }
      ],
      "name": "getStage",
      "outputs": [
        {
          "internalType": "string",
          "name": "name",
          "type": "string"
        },
        {
          "internalType": "uint256",
          "name": "allocation",
          "type": "uint256"
        },
        {
          "internalType": "uint256",
          "name": "min",
          "type": "uint256"
        },
        {
          "internalType": "uint256",
          "name": "limit",
          "type": "uint256"
        },
        {
          "internalType": "uint256",
          "name": "rate",
          "type": "uint256"
        },
        {
          "internalType": "uint256",
          "name": "sold",
          "type": "uint256"
        },
        {
          "internalType": "bool",
          "name": "active",
          "type": "bool"
        },
        {
          "internalType": "bool",
          "name": "goalReached",
          "type": "bool"
        },
        {
          "internalType": "bool",
          "name": "whitelisted",
          "type": "bool"
        }
      ],
      "stateMutability": "view",
      "type": "function"
    },
    {
      "inputs": [],
      "name": "owner",
      "outputs": [
        {
          "internalType": "address",
          "name": "",
          "type": "address"
        }
      ],
      "stateMutability": "view",
      "type": "function"
    },
    {
      "inputs": [],
      "name": "renounceOwnership",
      "outputs": [],
      "stateMutability": "nonpayable",
      "type": "function"
    },
    {
      "inputs": [
        {
          "internalType": "address",
          "name": "newOwner",
          "type": "address"
        }
      ],
      "name": "transferOwnership",
      "outputs": [],
      "stateMutability": "nonpayable",
      "type": "function"
    },
    {
      "inputs": [
        {
          "internalType": "address",
          "name": "_address",
          "type": "address"
        }
      ],
      "name": "add",
      "outputs": [],
      "stateMutability": "nonpayable",
      "type": "function"
    },
    {
      "inputs": [
        {
          "internalType": "address[]",
          "name": "_addresses",
          "type": "address[]"
        }
      ],
      "name": "addBatch",
      "outputs": [],
      "stateMutability": "nonpayable",
      "type": "function"
    },
    {
      "inputs": [
        {
          "internalType": "address",
          "name": "_address",
          "type": "address"
        }
      ],
      "name": "remove",
      "outputs": [],
      "stateMutability": "nonpayable",
      "type": "function"
    },
    {
      "inputs": [
        {
          "internalType": "address[]",
          "name": "_addresses",
          "type": "address[]"
        }
      ],
      "name": "removeBatch",
      "outputs": [],
      "stateMutability": "nonpayable",
      "type": "function"
    },
    {
      "inputs": [
        {
          "internalType": "address",
          "name": "_address",
          "type": "address"
        }
      ],
      "name": "isWhitelisted",
      "outputs": [
        {
          "internalType": "bool",
          "name": "",
          "type": "bool"
        }
      ],
      "stateMutability": "view",
      "type": "function"
    }
  ],
  "bytecode": "0x608060405234801561001057600080fd5b50600061001b61006a565b600080546001600160a01b0319166001600160a01b0383169081178255604051929350917f8be0079c531659141344cd1fd0a4f28419497f9722a3daafe3b4186f6b6457e0908290a35061006e565b3390565b610abb8061007d6000396000f3fe608060405234801561001057600080fd5b506004361061009e5760003560e01c80635bf5d54c116100665780635bf5d54c1461012f5780636b845bfe14610144578063715018a6146101575780638da5cb5b1461015f578063f2fde38b146101745761009e565b80630a3b0a4f146100a357806324efa264146100b857806329092d0e146100cb5780632e325020146100de5780633af32abf1461010f575b600080fd5b6100b66100b13660046107bd565b610187565b005b6100b66100c63660046107de565b61021b565b6100b66100d93660046107bd565b61033e565b6100f16100ec36600461089f565b6103c6565b604051610106999897969594939291906108dc565b60405180910390f35b61012261011d3660046107bd565b610503565b60405161010691906108d1565b610137610525565b6040516101069190610a04565b6100b66101523660046107de565b61052b565b6100b661064a565b6101676106d3565b60405161010691906108bd565b6100b66101823660046107bd565b6106e2565b61018f6107a2565b6001600160a01b03166101a06106d3565b6001600160a01b0316146101cf5760405162461bcd60e51b81526004016101c6906109cf565b60405180910390fd5b6001600160a01b038116600081815260036020526040808220805460ff19166001179055517fa850ae9193f515cbae8d35e8925bd2be26627fc91bce650b8652ed254e9cab039190a250565b6102236107a2565b6001600160a01b03166102346106d3565b6001600160a01b03161461025a5760405162461bcd60e51b81526004016101c6906109cf565b60005b815181101561033a5760016003600084848151811061028c57634e487b7160e01b600052603260045260246000fd5b60200260200101516001600160a01b03166001600160a01b0316815260200190815260200160002060006101000a81548160ff0219169083151502179055508181815181106102eb57634e487b7160e01b600052603260045260246000fd5b60200260200101516001600160a01b03167fa850ae9193f515cbae8d35e8925bd2be26627fc91bce650b8652ed254e9cab0360405160405180910390a28061033281610a48565b91505061025d565b5050565b6103466107a2565b6001600160a01b03166103576106d3565b6001600160a01b03161461037d5760405162461bcd60e51b81526004016101c6906109cf565b6001600160a01b038116600081815260036020526040808220805460ff19169055517fcdd2e9b91a56913d370075169cefa1602ba36be5301664f752192bb1709df7579190a250565b6060600080600080600080600080600060028b815481106103f757634e487b7160e01b600052603260045260246000fd5b9060005260206000209060080201905080600101805461041690610a0d565b80601f016020809104026020016040519081016040528092919081815260200182805461044290610a0d565b801561048f5780601f106104645761010080835404028352916020019161048f565b820191906000526020600020905b81548152906001019060200180831161047257829003601f168201915b5050505050995080600201549850806003015497508060040154965080600501549550806006015494508060070160009054906101000a900460ff1693508060070160019054906101000a900460ff1692508060070160029054906101000a900460ff169150509193959799909294969850565b6001600160a01b03811660009081526003602052604090205460ff165b919050565b60015481565b6105336107a2565b6001600160a01b03166105446106d3565b6001600160a01b03161461056a5760405162461bcd60e51b81526004016101c6906109cf565b60005b815181101561033a5760006003600084848151811061059c57634e487b7160e01b600052603260045260246000fd5b60200260200101516001600160a01b03166001600160a01b0316815260200190815260200160002060006101000a81548160ff0219169083151502179055508181815181106105fb57634e487b7160e01b600052603260045260246000fd5b60200260200101516001600160a01b03167fcdd2e9b91a56913d370075169cefa1602ba36be5301664f752192bb1709df75760405160405180910390a28061064281610a48565b91505061056d565b6106526107a2565b6001600160a01b03166106636106d3565b6001600160a01b0316146106895760405162461bcd60e51b81526004016101c6906109cf565b600080546040516001600160a01b03909116907f8be0079c531659141344cd1fd0a4f28419497f9722a3daafe3b4186f6b6457e0908390a3600080546001600160a01b0319169055565b6000546001600160a01b031690565b6106ea6107a2565b6001600160a01b03166106fb6106d3565b6001600160a01b0316146107215760405162461bcd60e51b81526004016101c6906109cf565b6001600160a01b0381166107475760405162461bcd60e51b81526004016101c690610989565b600080546040516001600160a01b03808516939216917f8be0079c531659141344cd1fd0a4f28419497f9722a3daafe3b4186f6b6457e091a3600080546001600160a01b0319166001600160a01b0392909216919091179055565b3390565b80356001600160a01b038116811461052057600080fd5b6000602082840312156107ce578081fd5b6107d7826107a6565b9392505050565b600060208083850312156107f0578182fd5b823567ffffffffffffffff80821115610807578384fd5b818501915085601f83011261081a578384fd5b81358181111561082c5761082c610a6f565b8381026040518582820101818110858211171561084b5761084b610a6f565b604052828152858101935084860182860187018a1015610869578788fd5b8795505b838610156108925761087e816107a6565b85526001959095019493860193860161086d565b5098975050505050505050565b6000602082840312156108b0578081fd5b5035919050565b15159052565b6001600160a01b0391909116815260200190565b901515815260200190565b60006101208083528b5180828501528291505b80821015610911576020828e01015161014083860101526020820191506108ef565b80821115610923578261014082860101525b610140601f19601f830116850101925050508960208301528860408301528760608301528660808301528560a083015261096060c08301866108b7565b61096d60e08301856108b7565b61097b6101008301846108b7565b9a9950505050505050505050565b60208082526026908201527f4f776e61626c653a206e6577206f776e657220697320746865207a65726f206160408201526564647265737360d01b606082015260800190565b6020808252818101527f4f776e61626c653a2063616c6c6572206973206e6f7420746865206f776e6572604082015260600190565b90815260200190565b600281046001821680610a2157607f821691505b60208210811415610a4257634e487b7160e01b600052602260045260246000fd5b50919050565b6000600019821415610a6857634e487b7160e01b81526011600452602481fd5b5060010190565b634e487b7160e01b600052604160045260246000fdfea2646970667358221220753787eb26a6116c91a93c7bbc3238e90f1b661bc9db656bd0708bfadc8146ec64736f6c63430008000033",
  "immutableReferences": {},
  "source": "//SPDX-License-Identifier: MIT\npragma solidity ^0.8.0;\n\nimport './SaleStages.sol';\n\ncontract Whitelist is SaleStages  {\n\n    mapping(address => bool) whitelist;\n\n    event AddedToWhitelist(address indexed account);\n    event RemovedFromWhitelist(address indexed account);\n\n    /**\n     * @dev Adds a new address to the whitelist.\n     * @param _address The address to be whitelisted. \n     */\n    function add(address _address) public onlyOwner {\n        whitelist[_address] = true;\n        emit AddedToWhitelist(_address);\n    }\n\n    /**\n     * @dev Adds a new address to the whitelist.\n     * @param _addresses Array of addresses to be whitelisted. \n     */\n    function addBatch(address[] memory _addresses) public onlyOwner {\n        for(uint i=0; i < _addresses.length; i++) {\n            whitelist[_addresses[i]] = true;\n            emit AddedToWhitelist(_addresses[i]);\n        }\n    }\n\n    /**\n     * @dev Removes a address from the whitelist.\n     * @param _address The address to remove. \n     */\n    function remove(address _address) public onlyOwner {\n        whitelist[_address] = false;\n        emit RemovedFromWhitelist(_address);\n    }\n\n    /**\n     * @dev Removes a address from the whitelist.\n     * @param _addresses Array of addresses to be whitelisted. \n     */\n    function removeBatch(address[] memory _addresses) public onlyOwner {\n        for(uint i=0; i < _addresses.length; i++) {\n            whitelist[_addresses[i]] = false;\n            emit RemovedFromWhitelist(_addresses[i]);\n        }\n    }\n\n     /**\n     * @dev Getter to check if address is whitelisted.\n     * @param _address The address to check. \n     */\n    function isWhitelisted(address _address) public view returns(bool) {\n        return whitelist[_address];\n    }\n\n    /**\n     * @dev Modifier to restrict acces to function for only whitelisted addresses to the current stage.\n     */\n    modifier onlyWhitelisted() {\n        if(Stages[currentStage].whitelisted == true) {\n            require(isWhitelisted(msg.sender));\n        _;\n        }\n    }\n\n}\n",
  "sourcePath": "/Users/lexcalebout/Desktop/Dev-Projects/test-deploy/oflights.ico/packages/contracts/contracts/ico/Whitelist.sol",
  "compiler": {
    "name": "solc",
    "version": "0.8.0+commit.c7dfd78e.Emscripten.clang"
  },
  "schemaVersion": "3.3.4",
  "updatedAt": "2021-06-04T08:35:44.181Z",
  "devdoc": {
    "kind": "dev",
    "methods": {
      "add(address)": {
        "details": "Adds a new address to the whitelist.",
        "params": {
          "_address": "The address to be whitelisted. "
        }
      },
      "addBatch(address[])": {
        "details": "Adds a new address to the whitelist.",
        "params": {
          "_addresses": "Array of addresses to be whitelisted. "
        }
      },
      "getStage(uint256)": {
        "params": {
          "_stage": "The ID of the stage.",
          "active": "Indicates if the stage is active.",
          "allocation": "The allocation (amount of OFLY tokens).",
          "goalReached": "If all of the tokens are sold. ",
          "limit": "The max USD limit in gwei a user can buy.",
          "name": "The name of the sale Stage.",
          "rate": "Amount of OFLY tokens returned for 1 unit of DAI/USDC/USDT.",
          "whitelisted": "If the stage is whitelisted or not. "
        }
      },
      "isWhitelisted(address)": {
        "details": "Getter to check if address is whitelisted.",
        "params": {
          "_address": "The address to check. "
        }
      },
      "owner()": {
        "details": "Returns the address of the current owner."
      },
      "remove(address)": {
        "details": "Removes a address from the whitelist.",
        "params": {
          "_address": "The address to remove. "
        }
      },
      "removeBatch(address[])": {
        "details": "Removes a address from the whitelist.",
        "params": {
          "_addresses": "Array of addresses to be whitelisted. "
        }
      },
      "renounceOwnership()": {
        "details": "Leaves the contract without owner. It will not be possible to call `onlyOwner` functions anymore. Can only be called by the current owner. NOTE: Renouncing ownership will leave the contract without an owner, thereby removing any functionality that is only available to the owner."
      },
      "transferOwnership(address)": {
        "details": "Transfers ownership of the contract to a new account (`newOwner`). Can only be called by the current owner."
      }
    },
    "version": 1
  },
  "userdoc": {
    "kind": "user",
    "methods": {
      "getStage(uint256)": {
        "notice": "Returns all the relevant information about a specific stage."
      }
    },
    "version": 1
  }
}